:020000041102E7
:1000000003B40148019001BDE927000003B4014891
:10001000019001BDE94C010003B40148019001BD0C
:10002000CD4C010003B40148019001BD154D010004
:1000300003B40148019001BD1D4B010003B4014808
:10004000019001BDF54E010003B40148019001BDCE
:10005000434D010003B40148019001BD0D52010060
:1000600003B40148019001BD751FFF1F03B401488F
:10007000019001BD2526000003B40148019001BD97
:100080008B52010003B40148019001BDB35201003D
:1000900003B40148019001BDC94A010003B40148FD
:1000A000019001BD3D4B010003B40148019001BD29
:1000B000014C010003B40148019001BDF94C01005D
:1000C00003B40148019001BD691F000003B4014859
:1000D000019001BD5D17000003B40148019001BD0E
:1000E0005952010003B40148019001BD512500009F
:1000F00003B40148019001BD594F010003B4014808
:10010000019001BD8D12000003B40148019001BDB2
:100110004D1F000003B40148019001BD55220000AD
:1001200003B40148019001BDDD52010003B4014850
:10013000019001BD1D4D010003B40148019001BDB6
:10014000BD18FF1F03B40148019001BD017F0000ED
:1001500003B40148019001BDE117000003B4014858
:10016000019001BD7918000003B40148019001BD60
:10017000D949010003B40148019001BDE9280000FC
:1001800003B40148019001BD5549010003B4014881
:10019000019001BD4551010003B40148019001BD2A
:1001A000C926000003B40148019001BD6918FF1F72
:1001B00003B40148019001BD3555000003B4014866
:1001C000019001BDC51D000003B40148019001BDAF
:1001D000F534FF1F03B40148019001BD9134FF1FA6
:1001E00003B40148019001BD894A010003B40148EC
:1001F000019001BD3519000003B40148019001BD13
:10020000BD18000003B40148019001BDC5210000E4
:1002100003B40148019001BD291C000003B401484A
:10022000019001BD851F000003B40148019001BD8C
:10023000A946010003B40148019001BD1147010026
:1002400003B40148019001BDB14E000003B4014860
:10025000019001BD3D18000003B40148019001BDAB
:100260002146010003B40148019001BDED29FF1FA3
:1002700003B40148019001BD7D28FF1F03B401486C
:10028000019001BDC528FF1F03B40148019001BDC5
:100290007527FF1F03B40148019001BD992AFF1F74
:1002A00003B40148019001BD2124000003B40148BA
:1002B000019001BD055E000003B40148019001BD3D
:1002C000EF18FF1F03B40148019001BDE54800008D
:1002D00003B40148019001BD2951010003B4014854
:1002E000019001BDD91B000003B40148019001BD7C
:1002F000091B000003B40148019001BD311B00003F
:1003000010B5FFF77DFE022805D0072805D012287A
:1003100000D1022010BD142010BD214904200A6B19
:10032000521C0A6310BDF8B500260C460D46074660
:1003300040341FE0607CC1004A1953686A5C0028A1
:1003400001D0012100E000213846FFF7D9FF002845
:1003500002D001212176F8BD607CC00040194660C2
:10036000607C401C6074207C401E20740C48016A34
:10037000491C0162207C0028DCD166742676F8BD19
:100380005C21084A414310B589185822525C012A61
:1003900005D1FFF7C8FF0248816A491C816210BD80
:1003A000987CFF1FB879FF1F0A7802708A78427024
:1003B0004A88120A82700979C170042070470A784D
:1003C00002700988090A41700220704710B50022A6
:1003D0000EE093005B189C7804705C88521C240A21
:1003E00044701C7984709B88D2B21B0AC370001DB4
:1003F0000B789342EDD81806800D10BDF8B50D4668
:1004000006464978012031700024761C16E0697890
:10041000012917D01221614349198A7832704A881C
:10042000871C120A7270B61C10223046091DFFF795
:10043000EDFD1037B8B21036641CE4B22978A14241
:10044000E5D8F8BDA10049198A7832704A88871C1E
:10045000120A7270B61C02223046091DFFF7D6FD43
:10046000BF1CB8B2B61CE7E710B50C46097801709E
:100470002188090A4170A278E11C801CFFF7C6FDA3
:10048000A078801C10BD10B50C4609780170218839
:10049000090A4170A17881706188090AC1702279C6
:1004A000611D001DFFF7B2FD2079001D10BD10B5C4
:1004B0000C460A78491CFFF7A9FD207810BD10B53D
:1004C0000B784A7802705343DCB22246401C891CE8
:1004D000FFF79CFD601C10BD10B50B784A780270C8
:1004E0005343DCB22246401C891CFFF78FFD601C81
:1004F00010BD10B50C460A78491CFFF787FD20781F
:1005000010BD10B50C460A78491CFFF77FFD207816
:1005100010BD7FB515460446022901D0102903D12C
:10052000022B04D0102B02D0002004B070BD9942E1
:1005300002D10A46294607E01029694607D000F093
:100540000DF8102269462846FFF766FDEDE71046D4
:1005500000F004F8102269462046F5E770B50C4615
:1005600005000CD0002C0AD0102206492046FFF7C7
:100570004DFD2878207368786073012070BD0020DD
:1005800070BD0000AC84021110B50B460122024977
:1005900002F05CFD10BD0000A903021170B5064613
:1005A00008880C46172812D30B4603220949304607
:1005B00002F04CFD050008D10749208809888842CF
:1005C00000D20146304600F0B3F9284670BD022043
:1005D00070BD0000BF0302114247FF1F10B500238A
:1005E0001922194602F032FD10BD000010B50A783C
:1005F000002A05D00B460722024902F027FD10BD54
:10060000022010BDCD03021110B54A78012A01D095
:10061000022A08D10A78002A05D00B460522034990
:1006200002F014FD10BD022010BD0000FD030211F8
:1006300001494000085A70474877FF1F10B50B4624
:100640001D22024902F002FD10BD000069040211E2
:1006500010B50B461B22024902F0F8FC10BD000049
:10066000690402110020044917224300401CCA52A9
:100670000828FADB704700004877FF1F0098022B1C
:1006800001D0042070471178527812028918018035
:10069000002070470098012B01D00420704711788A
:1006A00001700020704770B5049C1E461546062B4D
:1006B0001BD369782878090240182080E978A87847
:1006C00009024018608002222271291D601DFFF777
:1006D0009DFCB61FF2B2E271F02A06D82046A91D91
:1006E0000830FFF793FC002070BD042070BD009817
:1006F000042B01D004207047537811781B02C918CD
:1007000001809178D27812028918418000207047C8
:10071000F8B50646007B0D460406240E26D0B268C6
:100720001778380620D50C2C20D90C3CE4B21019CF
:10073000009001217088234602F050F9002811D062
:10074000022028707806C00F6870B806800EA87066
:10075000641E2004000CA88001D0B068401CA86072
:100760000020F8BD0120ECE70020EAE70120F8BDF9
:1007700010B502981146042B14D34C780A78240241
:1007800012190280CC788A782402121942801B1F29
:10079000DAB20271F22A05D8401D091DFFF736FCB6
:1007A000002010BD042010BD0098042B01D00420AF
:1007B0007047537811781B02C91801809178D2785C
:1007C0001202891841800020704710B50298114626
:1007D000062B03D0142B03D0042010BD022200E00E
:1007E000102202714B780A781B02D2180280CB7853
:1007F0008A781B02D21842800279401D091DFFF73A
:1008000005FC002010BD000030B5039CD80718D1AE
:10081000D805010E022914D30B488088814210D8D4
:10082000F6200155002008E0557813782D025B1959
:100830004500401C6353C0B2921C8842F4D3002090
:1008400030BD042030BD00003C47FF1F0098022B44
:1008500001D0042070471178527812028918018063
:100860000020704770B5144602460498022B18D336
:10087000667825783602AD1905800546E035EA75BB
:100880002976002A0BD0E8219B1EDAB282708A42B8
:1008900007D8A11CC01CFFF7B9FB002070BDF421D4
:1008A000F2E7042070BD000010B50B461722024984
:1008B00002F0CCFB10BD00008704021110B50B46FE
:1008C0000D22024902F0C2FB10BD0000AF0402116C
:1008D00010B50A78002A05D00B461122024902F011
:1008E000B5FB10BD022010BDBF04021110B50A787F
:1008F000002A05D00B460922024902F0A7FB10BDD1
:10090000022010BDD904021110B50B460F22024976
:1009100002F09CFB10BD0000F304021110B50B4661
:100920000B22024902F092FB10BD000003050211E8
:10093000034A1288914202D8024A4000115270477D
:100940003C47FF1F4877FF1F10B5002313221946AD
:1009500002F07CFB10BD000010B5044A6623137042
:100960005070917006F070F910BD00005546FF1FE1
:1009700010B5034A1321034801F00EFA10BD000020
:10098000588402111845FF1F10B50249087302F080
:10099000CDFE10BDAC43FF1FFFB599B000260796F2
:1009A00007AA089600F0CEF905460A287CD204462C
:1009B0000620444320462030C0B26A460E2105F08E
:1009C00089FE002802D168468089C6B21B98414939
:1009D000099009781C98022913D000211791082842
:1009E00011D020462130C7B21C2200216846FFF7F3
:1009F00019FB6A461C21384605F06CFE002805D01C
:100A000010E00121EAE720462230ECE76846807ECC
:100A1000C01F092806D8F107C90F6A46179B099815
:100A200000F014FD142200210BA8FFF7FBFA20466A
:100A30002430C0B20BAA102105F04CFE002812D1C0
:100A40001022FF210BA8FFF7F3FA00280BD1253461
:100A5000E0B20FAA042105F03DFEF107C90F0BAA71
:100A60001B9800F037FF7035E8B210AA102105F08E
:100A700031FE002811D110A802F049FE002410AD6B
:100A8000A00040190188002903D082781B9801F04A
:100A900037FA641CE4B2042CF2D3B00704D50D4835
:100AA000017B1B9801F01AFA1C9804280FD1094900
:100AB000087802280BD10A791B98002A00D001225D
:100AC0004978002900D00421114300F0CBFE00201A
:100AD0001DB0F0BDAC43FF1F70B52A4D0C46080495
:100AE00026D5287BFFF7AAFA05001ED00178B02989
:100AF00008D0B1290ED0D02914D100F045F8002833
:100B000010D112E001791E290CD16888002100F073
:100B100075F907E00179002904D10289C188688844
:100B200000F0A2F92846FFF78FFA0120C00325E064
:100B3000A0070DD50021084602F0D6FB002805D0FD
:100B40000121287BFFF786FA022017E0022070BD02
:100B5000E007FCD0E869808802F076FE00280FD01C
:100B6000A869002807D04368002B04D0E869002258
:100B700080880121984702F0A9FB0120604070BDE8
:100B8000012070BDAC43FF1F7FB582786B4C921F74
:100B9000A1691300FFF764FA0AACD0D0631B06D03A
:100BA000D05A75D00546002908D00E68002E05D011
:100BB0006B7B2A7B6989E81CB047BDE06989606965
:100BC00000F06EFD0028F8D0688901218AE0054612
:100BD0004078002829D1A879C00726D0E0690028EC
:100BE00023D10E2200216846FFF71CFA696900290B
:100BF00003D006226846103107E0A88805F092FA73
:100C000000283DD0811D06226846FFF7FFF969469E
:100C10008889A9794907C90F084369468881294607
:100C2000684602F061FB002809D0A069002827D09F
:100C30004368002B24D06A78A88801214FE0022164
:100C4000207BFFF707FA002004B070BD002973D0A5
:100C50004B68002B70D04278808802213FE0044628
:100C6000C0780022211D00F06DF80A2864D2062108
:100C7000484325302246C0B20C32042105F056FD0F
:100C80005AE005466079002802D0A888A17929E0B9
:100C900020780028A88824D005F044FA0646A87ACF
:100CA000C0070DD0002E47D07079002808D0A98940
:100CB000890505D46A46B11D00F044F8002814D017
:100CC0002A467179A888083202F0AAFBA069002898
:100CD00032D04368002B2FD00022A88811469847B5
:100CE0002AE0052100F01CFE26E0A8880321F9E790
:100CF00000F0B6FC00281FD1A07A0026012805D0FC
:100D00000F4D0024285D012809D00CE002F040FCC2
:100D1000A6720A2200210A48FFF784F907E020465C
:100D200002F042FC2E55641CE4B20A2CEAD3502097
:100D300005F0CEFC02F0FAFC012085E7AC43FF1F72
:100D4000D46AFF1FF0B50A2485B016460F46002866
:100D500007D0012805D00A25022810D0032847D142
:100D60001FE0084602F092FC04460A2840D2002EFA
:100D70003ED0062239463046FFF748F938E01E4F8C
:100D8000002400910E206043C0190622801D0099A6
:100D9000FFF742F9002823D1641CE4B20A2CF1D3F6
:100DA0001CE000242046062148432330C0B26A4696
:100DB000102105F08FFC00280CD11022FF2168467D
:100DC000FFF736F9002805D13946684600F026FDC0
:100DD000002805D0641CE4B20A2CE3D32C4607E0BB
:100DE0000A2C05D2002E03D03146204602F074FCB6
:100DF000204605B0F0BD0000486AFF1F70B50E46E2
:100E000017491525884212D1002432460221204676
:100E100002F092FB002800D00025641CE4B20A2CEA
:100E2000F3D3002E1AD00F4805F0DCF916E005F0D8
:100E300079F9040011D060790022A11DFFF782FF2B
:100E40000A2804D23246022102F076FB0025002E49
:100E500004D0204602F098FC00E01425284670BD1E
:100E6000FFFF000089370211F8B50F461349152519
:100E7000164688420DD1002432463946204602F0FB
:100E80008DFC002800D00025641CE4B20A2CF3D3AA
:100E900012E005F047F900280DD04379811D0022AA
:100EA0001846FFF74FFF0A2806D23246394602F0AD
:100EB00075FC002500E014252846F8BDFFFF000062
:100EC00070B50C460146032000020A1A002534487A
:100ED0001300FFF7C5F81D1012151C1F2326282C20
:100EE000303234383A3C3E40424446484A4E5052F2
:100EF0005A5456585A00C07911E01022294902E08C
:100F00002849102210312046FFF780F845E0C06ADA
:100F1000206042E0224906223C31F4E7007820704C
:100F20003BE0808936E01E4942784231EBE71D49BB
:100F300082781F39E7E7007AF1E7407AEFE718494E
:100F400006223031DFE7807AE9E7C07AE7E7C08937
:100F500020E0808A1EE0C0781CE0C08A1AE0008B86
:100F600018E0408B16E0808B14E00D4906223631E4
:100F7000C9E7C08B0EE0008C0CE0408C0AE0807961
:100F8000CDE7008A06E0408A04E0272904D208461B
:100F900000F0EAFA208000E00225284670BD00003B
:100FA0005444FF1F136BFF1F70B50E4C002560717A
:100FB000A571691EE18100F02BFC0420E071102274
:100FC00000210948FFF72EF80748102200211030B1
:100FD000FFF728F8E562257265720120A072E572BC
:100FE00070BD00005444FF1F136BFF1FFEB53B4D47
:100FF0000C4608040CD56879FFF720F8050004D0EA
:1010000003F07EF92846FFF71FF80120C00360E0D7
:10101000600403D5012080034840FEBD2F48E1074E
:101020000126807900292AD02978002920D0052896
:1010300021D0297A68460170697A417027490622D1
:101040003031801CFEF7E2FFA97A68460172E97A26
:1010500041726946687900F0A3FA002808D0072099
:10106000A871696A002903D00968002900D088475F
:1010700020467040FEBD032069460870E4E7A107E2
:101080000DD5052809D1E889FEF7F0FFAA8A002AC4
:1010900003D002216879FEF7EFFF022019E0600714
:1010A00004D5002003F084F9042012E0200712D5B3
:1010B0002879012802D002280AD107E00096AB8BDC
:1010C0006A8B298BE88A00F00BF801E000F05AF9EE
:1010D00008206040FEBD0020FEBD00005444FF1FFC
:1010E000F8B5134C069EA579052D01D01420F8BD46
:1010F000104F851FBD4219D2062917D3BD1DA94225
:1011000014D2FF27F537BA4210D20A2B0ED3AB42C6
:101110000CD2E08221836283A383304603F048F936
:1011200004216079FEF7AEFF0020F8BD1820F8BD5D
:101130005444FF1F7A0C0000F7B50D468049009813
:10114000164642187F4F00247879B9791300FEF7CC
:1011500087FF190E141BE92040455970777E888F50
:10116000E996A2A9B4BFC8E9E9E9E9D3E900102DDD
:1011700076D11022314674486FE0102D70D172483C
:1011800010223146103068E0042D69D13068F862D1
:10119000CEE0012D64D13B7832783A70002B0AD032
:1011A000002A07D1022903D0062901D0042901D140
:1011B00000F0B0F9BCE0002A0AD0012905D00329CB
:1011C00003D0052901D0042902D10121FEF742FFF5
:1011D000AEE0022D44D13088B881A9E01F2D3FD860
:1011E00058481F2200214230FEF71CFF55482A466E
:1011F00031464230FEF70AFF524B7D7042332A4699
:10120000012112E01F2D7CD84F481F2200211F38DA
:10121000FEF708FF4C482A4631461F38FEF7F6FE17
:10122000494B2A461F3BBD700021787900F0C8FB6E
:1012300083E0012D65D13078042862D8387277E0D8
:10124000012D5ED1307803285BD8787270E0062DCE
:1012500057D13C48062231463030FEF7D7FE67E0D2
:101260004FE0012D4DD1307807284AD8B8725FE0A1
:10127000012D46D13078032843D8F87258E0022D6A
:101280003FD13288BA82002A52D0052950D102219A
:10129000FEF7F2FE4CE0012D33D13078012830D832
:1012A000F87045E03088022D2BD1062829D319216A
:1012B000C901884225D8F8823AE03088022D20D131
:1012C00006281ED31921C90188421AD838832FE075
:1012D0003088022D15D1FF21F531884211D2788353
:1012E00026E03088022D0CD10A280AD31921C90121
:1012F000884206D8B8831BE03178012D01D101293D
:1013000001D0182414E00821FEF7C2FE002801D005
:1013100016240DE0002003F04BF804217879FEF745
:10132000B1FE05E00098272801D2022D02D0022448
:101330002046FEBD318800F0BDFA0446F8E7000003
:10134000FFFCFFFF5444FF1F136BFF1F1CB50B4C2A
:10135000A179002901D011201CBD002800D06062B5
:10136000064907482C31034601910090103B0022AA
:10137000E179607900F0AEF800201CBD5444FF1FF5
:10138000236BFF1F10B506488179052901D0122073
:1013900010BDC1891322407900F0D2FA10BD0000BF
:1013A0005444FF1FF8B50F46254904460878022823
:1013B00005D0012803D0082803D1002F01D0122026
:1013C000F8BD002C05D01F4DA868002803D01120BF
:1013D000F8BD0220F8BD208804F0A4FE06002BD042
:1013E0002C20FEF75BFEA860002827D02C220021CD
:1013F000FEF718FEA868218841801C22211D001DCF
:10140000FEF704FEAB68022018700D480E49007804
:1014100022880007C00F09781B1D01F09BFA0446C3
:10142000002F03D03946304605F072FF002C01D062
:1014300002F0B8FA2046F8BD1420F8BD1320F8BD1C
:101440004747FF1FA847FF1FD547FF1FFFB5204D88
:1014500081B028781E461746022823D0012821D0C3
:10146000002F22D0019804F05DFE04001FD0606AB6
:10147000002801D0FEF718FE1C213846FEF71AFEA0
:101480006062010015D02878000714D5002E12D014
:10149000887E00900B4612330A8A019806F0E8F91C
:1014A000014609E0122005B0F0BD0220FBE7142040
:1014B000F9E71320F7E70021207904221043207177
:1014C000029A002A02D00222104320710846EAE75D
:1014D0004747FF1FF8B51D460224069F079E0B00D5
:1014E000FEF7BEFD0D150815150815151515151572
:1014F0001508150000F0B8F8040008D13246394646
:10150000284600F08FF900F0EFF801F013FA2046BA
:10151000F8BD000070B5104C2168002904D009788E
:10152000814203D0032070BD122070BD0B4D0221FB
:101530002878FEF7A7FD0A4800264680042128786F
:10154000FEF7A0FD074806802168032048700020B0
:10155000FEF7B6FD70BD0000A447FF1FD547FF1F73
:10156000B847FF1F4A47FF1F272803D20249400000
:10157000085A7047014870475247FF1FFFFF00009D
:1015800010B5064C607004F0FDFD6078FEF79EFD1E
:101590000521607801F056F810BD0000D447FF1F08
:1015A00070B5284E054630680C46002801D0112041
:1015B00070BD254801780520014216D02348806877
:1015C000002805D00078002802D0C80706D101E025
:1015D000102070BD00F044F8002808D020780328BF
:1015E00005D0022803D0002801D0122070BD0C20A5
:1015F000FEF754FD3060002820D0057000214170B6
:101600000A222146801CFEF701FD02F0B5FF04000E
:1016100002D002F0BBF912E00D48007803280ED189
:101620001D20FFF7A1FF0B490028088007D00B48B9
:10163000094A04210078FEF74FFD00E013242046FC
:1016400070BD0000A447FF1F4747FF1FB847FF1F9B
:101650004847FF1F4A47FF1F60EA0000D547FF1FAA
:1016600010B504F0ADFD10BD70B50C4605461C224A
:1016700000210948FEF7D6FC084805704470FEF7C3
:1016800031FD0549002803D000200870122070BDEC
:1016900001220A7070BD00005877FF1F4647FF1FE8
:1016A0007FB504460D46084604F03CFD002805D0F1
:1016B0000C48844204D9022004B070BD1220FBE71C
:1016C000102200216846FEF7ADFC68460470210A2E
:1016D0004170210C8170210EC170294601F092F8F1
:1016E000EAE700003F420F0070B50F4C0025A068EC
:1016F000002802D0FEF7D8FCA560E068002802D0E0
:10170000FEF7D2FCE560094805210078084206D0C2
:101710000548103002F0F4FC01F0AEFD70BD002071
:1017200002F0EEFC002070BDB847FF1F4747FF1FC7
:10173000FEB5344D0C46080419D56878FEF77EFCDA
:101740000121C9034C40064600280ED002F0F8FBE8
:10175000002807D12878FF2804D03146FEF7C8FCBE
:10176000002802D03046FEF76FFC2046FEBDE007A1
:10177000012700280AD0A868002804D04168002961
:1017800001D00020884720467840FEBDA00709D53B
:101790006868002804D04168002901D001208847EA
:1017A00002202AE060072AD5174E308800281FD073
:1017B000401E0004000C30801ED102F057F90028B2
:1017C00009D0124807706868002804D041680029D1
:1017D00001D00120884702F023F9694600F090FF0C
:1017E000684602F097FB1D20FFF7BEFE308003E045
:1017F00004216878FEF746FC04206040FEBD00200E
:10180000FEBD0000D447FF1F4A47FF1F4947FF1F87
:101810000149087070470000D447FF1F10B501F060
:1018200063F810BD70B50E4C0B46261D07C6054665
:10183000102200211846FEF7FBFB012803D11021DE
:10184000A06805F0D9FB102200212846FEF7F0FB26
:10185000012803D11021606805F0CEFB70BD0000A7
:101860005877FF1F38B505460F480C4600784007EB
:1018700001D4122038BD284604F054FC002810D0B2
:101880000A480068002801D0817D00E021466846B2
:1018900006F01BF8064B6A460221284605F0A8FF11
:1018A00038BD142038BD00004747FF1FB047FF1F59
:1018B000D57D0211272807D2044A914204D0044A58
:1018C000400011520020704702207047FFFF0000C7
:1018D0005247FF1F70B50E46104915460978022978
:1018E00016D0012914D0002D14D004F01BFC0400E4
:1018F00012D0002E03D0207902210843207110223B
:101900002946A018FEF782FB28692062002070BDDE
:10191000122070BD022070BD142070BD4747FF1F0C
:1019200038B50C46054604F0FDFB002806D0684695
:1019300004706946284605F04BFF38BD142038BDB9
:10194000F8B50D4617461D4906461B4A1224C868BD
:10195000954208D100282DD00268002A2AD02946B5
:101960003046904723E0144A521C954213D1002878
:1019700007D00268002A04D0294630469047040068
:1019800005D03946304601F051FC040012D10B4815
:10199000067047700EE0284604F0C4FB002809D00A
:1019A0000078B04205D139462846FEF7A7FB044629
:1019B00000E003242046F8BDFEFF0000A847FF1FFB
:1019C000F8B50E46014619481546007805221F460F
:1019D000104028D0304326D01548012E1BD0C468B3
:1019E000002C20D01F2D18D8002D01D0002F14D08E
:1019F00001701F220021601CFEF714FB2A463946A5
:101A0000601CFEF703FB28462570002E07D0611CE2
:101A1000FEF77AFBF8BD8468E2E70220F8BD611C9E
:101A2000FEF778FBF8BD1220F8BD00004747FF1F06
:101A3000B847FF1F014610B50020C90704D0034A6C
:101A40000421034800F0A8F910BD0000BC83021176
:101A5000C444FF1F70B50E4D0F4CA8700D492046B1
:101A600000F020F800210D480B46CA0084521218DD
:101A7000491CC9B253600829F7D3012003F05EFC6A
:101A8000A87800F00FFC064804F0C2FB70BD00000F
:101A9000B844FF1F2475FF1FFFFF0000346BFF1FBA
:101AA000714B021170B50A4C0025A04209D10020EB
:101AB00082008C525218401CC0B295700928F7D38E
:101AC00070BD03F024F80028FAD00480857070BD42
:101AD000FFFF0000F8B50E46074606990024079858
:101AE000002902D00B242046F8BD022B01D00D2482
:101AF000F9E711785278120289188DB2294681438C
:101B000001D08024EFE73846F16800F03DF9A842A3
:101B1000E9D02A463846F16800F024FA0400E2D100
:101B200071892A46384600F0BDF9DCE770B50C46ED
:101B3000080412D50A488078FEF780FA050008D01C
:101B40002878B02802D1284603F000F92846FEF78D
:101B50007BFA0120C003604070BD002070BD000012
:101B6000B844FF1FFFB587B0087A0025109E1C46B9
:101B70000F46C0060DD5099802F0C2FF030006D03B
:101B80000A22394607989847050035D101E00E250D
:101B900032E0387802281DD178682922017840780F
:101BA00012020002081880B2811A90427ED009DC2D
:101BB0007249401A23D0012821D0022851D003288D
:101BC00008D125E0012972D0022971D003296DD0F6
:101BD00004296ED0099802F0BBFF0028D7D0056811
:101BE000002DD4D0129911980191009033462246CD
:101BF00039460798A847054628460BB0F0BD11980E
:101C0000002873D1F868017831700278416897E054
:101C1000119800286AD101203070F86800210078FE
:101C200020707889401C80B200F00CFA00280FD098
:101C3000317802788918891C3170817A6170418904
:101C4000090AA17002784168E01CFEF7DFF9D3E7CA
:101C500030780422001D30700021601CFEF7E2F98C
:101C6000CAE71198002872D1F86804A9008800908A
:101C700004203070009820700098000A607000986E
:101C800000F0E0F9070028D0F86805906846028A5D
:101C900003AB3B49384600F02DFA00280FD13B78C2
:101CA000022138487A68FEF734FC03E027E031E08F
:101CB0001DE049E0002802D1314869468881059835
:101CC000007802280CD1059802224168201DFEF7F9
:101CD0009DF93078801C307002E069460098888158
:101CE00068468089A070000AE07085E72FE01198AF
:101CF00000282CD1F968079800F046F804E0119804
:101D0000002824D1F8680088022131702070000A70
:101D1000607071E7F868FEF703FA1199C0B281426A
:101D200010D8814201D1002206E0129A891881421E
:101D300002D31199401AC2B23270F9681198091889
:101D4000204682E7072557E71198002801D00B2588
:101D500052E70721F868317001782170417861708D
:101D60008178A1704188090AE17001792171817936
:101D70006171C088000AA0713EE7000000280000E1
:101D8000FFFF00002285021110B502F0C0FE0028FE
:101D900000D0807810BD0000FEB515460F46060045
:101DA00021D068460196078000F082FA0446144864
:101DB0000078002803D13946304600F025F8002C81
:101DC0001CD1002D1AD07689002E0CD00C20FEF7E5
:101DD00065F9002809D0046086800A4A8560516848
:101DE000002904D006E0022408E0132406E0506035
:101DF00004E011460A68002AFBD108602046FEBDB7
:101E00000648FF1FB844FF1FF0B54268002413784E
:101E1000002B3CD15278282A39D1C2680325137887
:101E20002D03022B02D0102B06D030E053685A78D5
:101E30001B7812021A4304E05268937B567B1A0205
:101E40003243AA4223D90122144D24E01301C65C77
:101E5000022E1ED11B185E689C46737836781B02D2
:101E600033436E782F7836023E439E4211D163464B
:101E7000DB681B78DB060CD5521C92B28A4206D274
:101E8000110108184189064841800121017020464E
:101E9000F0BD521C92B28A42D8D3F8E726850211CF
:101EA0000648FF1FF8B50C4C0746207815460E462D
:101EB000FF280FD00A20FEF739F901000AD0B1201F
:101EC00008700020487008714F80CE800D81207806
:101ED000FEF70EF9F8BD0000B844FF1F70B50C46C0
:101EE00005460649FFF750FF800704D521462846DE
:101EF00000F032FA70BD012070BD00002475FF1F94
:101F00001CB56B461A71120A5A7100220092022304
:101F100001AA00F001F81CBDFFB583B008461E46BB
:101F200001A90C9F00F08EF8050019D06846808842
:101F300002F00EFE002811D04468002C0ED000974D
:101F4000F3B22946059A039800F022F80097F3B2FD
:101F50002946059A0398A04707B0F0BD0E20FBE77D
:101F60000120F9E770B514460E46054602F0CFFD94
:101F7000002806D13146054802F0C9FD002803D0EB
:101F800005808470002070BD112070BDFFFF00002F
:101F900070B51546BEB01278002642981C467B2AC2
:101FA00002D16A78102A02D000203EB070BD0A7AB1
:101FB000920601D50820F8E70B780322120349683E
:101FC000022B09D04B7B897B0902591889B29142B7
:101FD0001FD9002815D01CE00B7849780902591840
:101FE00089B2914215D9002813D1002C11D0224674
:101FF00029466846FEF70AF82146684604F03EFC8A
:1020000007E0002C05D0F12200216846FEF70AF80F
:10201000EDE73046C9E710B50178B0290BD141781A
:10202000002908D10179122906D01B2903D1408843
:10203000012100F08FFA10BDFF210131095C012957
:10204000F5D010BDF0B58C4610494B6819E09F687B
:102050007C89A04214D39E883119814210D9002274
:102060000CE011017D186989814205D16046002884
:1020700000D004802846F0BD521C92B29642F0D89F
:102080001B68002BE3D10020F0BD0000E047FF1FDC
:10209000FFB5174881B00A9F446824E000251EE080
:1020A000A0682901461870890199884215D30299C0
:1020B000884212D80498002807D031787068049BB1
:1020C000039AFEF726FA002807D0002F02D0A06856
:1020D00040893880304605B0F0BD6D1CADB2A08897
:1020E000A842DDD82468002CD8D10020F3E70000F6
:1020F000E047FF1FFEB5174600256A469580044657
:1021000040891D4A1E46904208D001AA0092401CF8
:10211000237880B26268FFF7BBFF0546237802216F
:1021200016486268FEF7F5F9002807D123780221E6
:1021300013486268FEF7EDF9002801D060890EE0CF
:10214000237802210F486268FEF7E3F900280DD0DA
:10215000002D03D068468088B84203D0384603F08B
:10216000FFF904E06889401E80B200E06089002E1B
:1021700000D030802846FEBDFFFF00002085021100
:102180002285021126850211FFB581B00F461E4639
:1021900014466946019802F001FB050018D1002C95
:1021A00006D001221021019803F096FF05000FD1FF
:1021B00039460198FEF742FA050009D1009CFF2E2E
:1021C00006D021461E22A31C034803F0D5F9E67071
:1021D000284605B0F0BD00006554021110B5054950
:1021E0000870042100F02EFA00F006F8FEF73AFA23
:1021F00010BD0000E847FF1F70B50E4C00200C4BCF
:10220000651CFF228100C91800280ED00D80401CDB
:10221000CA70C0B28A700928F4D3074802F062FC81
:10222000064803F0F5FF002070BD0C80EFE70000CA
:102230007477FF1FFEFF000091540211E553021155
:10224000F8B50D4614460646694602F0A7FA172867
:102250000CD0002C06D001221021304603F03CFFA8
:10226000002803D129463046FEF7F2F9F8BD0000F8
:1022700070B50C46080411D509480078FDF7DEFE5C
:10228000050007D00178A02901D102F0CFFB284634
:10229000FDF7DAFE0120C003604070BD002070BD74
:1022A000E847FF1F0149087070470000E047FF1F23
:1022B00070B50546008800281DD0686802210378A3
:1022C00042682248FEF725F9002808D168680221F3
:1022D000037842681E48FEF71CF900280BD01D4CFD
:1022E0006088002805D0012229881204101A814232
:1022F00003D9012070BD022070BD0C20FDF7CEFE79
:10230000060001D000200AE0132070BD02016B68B6
:1023100061880A329952491C401C618080B2298828
:102320008142F3D80020306008222946301DFDF795
:102330006DFE6068002802D1666004E0084601680E
:102340000029FBD10660002070BD0000208502112D
:1023500022850211E047FF1F70B5BEB00D4606464C
:10236000002402230E4A0F4901200094FFF790FE3B
:10237000002812D040896A46108004209070012005
:10238000D0701471FF20507190712B460022694665
:102390003046FFF7F9FE3EB070BD0120FBE70000BC
:1023A0003E850211FFFF00000649496806E08A6881
:1023B0005289824201D18888704709680029F6D184
:1023C00000207047E047FF1F10B51422114201D0D2
:1023D000012202E04A0604D50022102103F07CFE0F
:1023E00010BDC80701D0002010BD022010BD10B5DF
:1023F00014468A0604D50122102103F06DFE10BD9B
:10240000882211420ED008220A40102103F064FEF7
:1024100000280BD0E034217E0029F0D0E17D012995
:10242000EDD103E0880701D4032010BD002010BDCA
:10243000014610B50020C90704D0034A072103480C
:10244000FFF7AAFC10BD0000A8830211E043FF1FA4
:1024500070B50D46164600241D490300FDF700FE29
:1024600008051234341934222934152D23D81622A4
:1024700000211848FDF7D6FD2A4631461548FDF7DC
:10248000C5FD22E0022D16D11149108810390880AF
:102490001BE0082D0FD10E48082231460838FDF701
:1024A0004BFE12E0012D06D1CA6909493078283166
:1024B00007E0012D01D0182407E0CA6B04493078E9
:1024C000483103F01CF900E00224204670BD0000F2
:1024D000E043FF1FDE6AFF1F0B7803700B880222A8
:1024E0001B0A43700B88801C012B02D0022B07D0E3
:1024F00011E08A7802704988090A417004220AE0D2
:102500008A7802704A88120A42700A798270898831
:10251000090AC170062210467047000008B5044B36
:10252000009313460A46012103F028FD08BD000070
:10253000D92402111CB50323019200930A46024BD1
:10254000122103F04BFD1CBDA158021110B5FDF77F
:10255000F9FD10BD13B504480078012803D101AA84
:102560006946FDF7F5FD1CBDF447FF1F70B50F4927
:102570000F4A087000210B468C00491CC9B2135346
:102580000429F9D30A4C00211034FF260A460A25F3
:102590006A4315196B80491CA354C9B26E72032992
:1025A000F4D3FDF7DBFD03F0B7FC70BDF547FF1F6B
:1025B0009877FF1F082A01D0012070474B780A78CE
:1025C0001B02D2180280CB788A781B02D218428074
:1025D0004B790A791B02D21882808A79C97909025B
:1025E0005118C1800020704770B50C46080411D501
:1025F00009480078FDF722FD050007D001789029F1
:1026000001D103F0EBFB2846FDF71EFD0120C003BE
:10261000604070BD002070BDF547FF1F70B50828F1
:102620000CD201010648002444520D18AC81AC8044
:10263000A868002802D0FDF797FDAC6070BD0000CF
:102640003879FF1F072907D0052905D0042903D0B1
:10265000062901D002207047044A8B009A181346BD
:10266000403B1986203A9074002070479877FF1FEE
:1026700070B508281BD25C2148430D490024461838
:10268000354640352C746C742C76706D002802D061
:10269000FDF76AFD74650024E000301840680028EA
:1026A00001D0FDF761FD641CE4B20A2CF4D370BDC7
:1026B000B879FF1F70B50A880C460546072A07D06F
:1026C000052A05D0042A03D0062A01D0022070BDB5
:1026D000012103F0CBFD002804D02146284603F059
:1026E000F5F870BD142070BD10B5001D80B2FDF767
:1026F00041FD002803D00321C943FDF741FD10BD72
:1027000038B50C46050014D0002C12D003216846C1
:1027100004F072FC6946887840218006800E0843E8
:10272000694688702246284605F08FF9050002D0D8
:1027300006E0022038BD03226946E01CFDF766FC76
:10274000284638BDF7B58EB00E9815460E460028BF
:102750002DD0002D2BD0301DC0B20190FDF79EFC76
:10276000040039D001F068F907463246201D0E9961
:10277000FDF70CFDF8B20890E0703804000E0B90E5
:10278000A0703802000E0A9060703F0E277001F0B2
:102790004DF90146102202A8FDF7F8FC06AB2146D0
:1027A00002A8019A05F0A7F8060003D010E0022065
:1027B00011B0F0BD089828700B9868700A98A8703E
:1027C000EF70082206A9281DFDF7E0FC01F03AF998
:1027D0002046FDF769FC00E013263046E8E70000DC
:1027E00010B5064C2070FDF7D7FC06212078FFF7C6
:1027F00029FF034803F00CFD10BD00000448FF1F33
:102800004D70021170B51F4D0346286800240A461A
:10281000002807D02421095C022905D0032903D010
:10282000042901D0122070BD8188914201D002207C
:1028300070BD102219460C30FDF7E8FB2868102106
:10284000353004F0D9FB2A681146104635310C307A
:10285000253205F01DF9286802210278002A427805
:1028600006D0032A0AD1417004F092FB044605E029
:10287000042A02D0032A03D000E04170204670BD34
:102880000521F0E71448FF1F70B50C46080418D561
:1028900013480078FDF7D2FB05000FD004F0EEFCE2
:1028A000002808D10F480078FF2804D02946FDF7FA
:1028B0001FFC002802D02846FDF7C6FB0120C003FC
:1028C0000AE0E00703D004F0FBFF012004E0A007CA
:1028D00004D504F0CBFB0220604070BD002070BD29
:1028E0000448FF1FD447FF1F7CB50C4605001DD0D0
:1028F000002C1BD00322E11C6846FDF787FB6946CC
:10290000887840218006800E08436946887001AAB5
:10291000284605F09AF8002807D10322214601A88D
:10292000FDF77AFB012803D001207CBD02207CBD8D
:1029300000207CBD10B505480078400701D504484B
:1029400000E0002004F04EFD002010BD4747FF1FAF
:10295000F847FF1FFFB5204C07462068002681B0CE
:102960001D46002802D0112005B0F0BD002D0BD06F
:102970002120FEF7F9FD297E884205D82220FEF7A6
:10298000F3FD297E884201D20220EDE77820FDF791
:1029900085FB206000281DD078220021FDF742FB36
:1029A0002068002141700770029A8270039A828029
:1029B0008560016220300171002F02D004F0FEFA20
:1029C000064601202168002E487001D004F0B4FAB8
:1029D0003046C9E71320C7E71448FF1FFFB58DB085
:1029E0000F98169C0E46002815D0002C13D00D9879
:1029F00003F098FB050011D0617820780902401897
:102A0000A178E2780904120689184718286AB842A2
:102A100006D3401C04D0022011B0F0BD1420FBE707
:102A2000002E04D02879800701D40120F4E7082281
:102A3000002106A8FDF7F6FA1098001DC0B201901B
:102A4000FDF72CFB060017D0301D109A0F99FDF7EB
:102A50009DFB042221463046FDF798FB1022A91861
:102A600002A8FDF793FB06AB314602A8019A04F0D9
:102A700042FF050002D013E01320CDE7082206A98B
:102A800008A8FDF783FB0822211D08A8FDF7C4FA5A
:102A9000012801D0012503E039460D9801F0C6FD5B
:102AA0003046FDF701FB2846B6E7000030B58DB093
:102AB000794C6A46A0700121892003F00BFE68461C
:102AC000007866280DD06620694608706A460121A4
:102AD000892003F02BFE224638322021882003F083
:102AE00025FE6E4A2021882003F0F4FD6A48082262
:102AF0006A495830FDF78AFA674808226749123058
:102B0000FDF784FA65496448102208312330FDF747
:102B10007DFA62496048022218313330FDF776FAB7
:102B20005E495D4802221A313530FDF76FFA5B4984
:102B3000594801221E313730FDF768FA574D58A029
:102B4000A98B00F0C1FAA88B7D21C90048435C49DC
:102B5000FDF728FB85B229465AA000F0B5FA0621F8
:102B60001F20FEF7A7FE01216846017101720721AF
:102B700001730021018418228284192252010285E6
:102B80008185FF21F531018651A103C90791069086
:102B90002178684601744A4804AA01219830FEF75A
:102BA000CBFA474806AA06219A30FEF7C5FAC32099
:102BB00003AA01218000FEF7BFFA414801AA0121C2
:102BC0009430FEF7B9FA3E4808AA02219530FEF784
:102BD000B3FA314A612010320A21C000FEF7ACFA84
:102BE0002D4A37481A321E219630FEF7A5FA3120B9
:102BF00002AA01210001FEF79FFA314809AA022129
:102C0000A030FEF799FA2E480AAA0221A130FEF759
:102C100093FA2B480BAA0221A230FEF78DFAC520A9
:102C20000CAA02218000FEF787FA1B4A15215832B0
:102C30000020FFF70DFC29460620FEF73BFE294643
:102C40000720FEF737FE29460820FEF733FE294607
:102C50000920FEF72FFE0025ED432846FFF7E8FB8D
:102C60002846FEF7E7FEFDF783FE284600F0C2F98E
:102C70000121A078FDF7EEF9A078FEF7C9FD16480E
:102C8000FDF796FA154A0821A078FDF7F5F91448E2
:102C900000F01AFA0DB030BDC446FF1F5C75FF1F6F
:102CA00049626561636F6E5F73746F72655F6461C3
:102CB00074612E616476496E74766C3D25640A00F9
:102CC00071020000696E74766C3D25640A00000094
:102CD00001020304050600008C75FF1F307500001B
:102CE000C0850211FEB5404D0C46A878090413D5E5
:102CF000FDF7A4F905000CD02878912806D1687852
:102D00000E2803D1A98839A000F0DEF92846FDF786
:102D10009BF90120C00362E0E107012600290BD0E6
:102D200031480830FEF712FBFDF748FA3AA000F0F0
:102D3000CBF920467040FEBD3A4FA1070ED568463C
:102D400006706A4601213846FEF7F6F92A78684689
:102D5000017835A000F0B8F9022040E021070326F1
:102D600000291FDA36A000F0AFF900216846017093
:102D70006A4601213846FEF7DFF934A000F0A4F9D5
:102D80002E70297868460171264801AA0121001D8C
:102D9000FEF7D2F9FF22F5320221A878FDF76CF98F
:102DA00008201CE0E10612D50821FDF76BF92E7012
:102DB0002878694608701B486A460121001DFEF705
:102DC000BBF9297825A000F07FF9102007E0600703
:102DD00007D503222949A88803F0D6FE04206040C5
:102DE000FEBD0020FEBD0000C446FF1F3D3D3E204D
:102DF0004843495F434F4D4D414E445F434F4D5013
:102E00004C4554455F4556454E545F434F44453A03
:102E10002025780A000000006465762073746172D2
:102E2000740A000005030000656E61626C655B2535
:102E3000645D20616476747970653D25780A0000D0
:102E4000727374206164760A000000006469736123
:102E5000626C65204144560A00000000636F6E6E8C
:102E600065637465642C6368616E67652061647670
:102E700020747970653D25780A0000005546FF1FD3
:102E800070B57D210446C90048430E49FDF78AF913
:102E900085B20D48294684830620FEF70BFD29469E
:102EA0000720FEF707FD29460820FEF703FD294607
:102EB0000920FEF7FFFC044A2021882003F036FC9D
:102EC00070BD0000710200005C75FF1F70B50C46FC
:102ED0000A46054601460A48FDF798F82246294663
:102EE0000848FDF793F8074A1E21093A0648FEF7FD
:102EF00023F9034A2021083A882003F017FC70BD0B
:102F00006475FF1FE746FF1F070300001CB5002282
:102F1000009201920A4601466846FDF777F80822BA
:102F200069460748FDF772F8082269460548FDF72B
:102F30006DF8034A2021882003F0F8FB1CBD000037
:102F40005C75FF1FD646FF1F70B50C460A46054646
:102F500001460A48FDF75AF8224629460848FDF777
:102F600055F8074A1E21193A0648FEF7E5F8034AC4
:102F70002021183A882003F0D9FB70BD7475FF1F1B
:102F8000F746FF1F0703000070B50C460A460546CA
:102F900001460A48FDF73AF8224629460848FDF757
:102FA00035F8074A1E211B3A0648FEF7C5F8034AC2
:102FB00020211A3A882003F0B9FB70BD7675FF1FF7
:102FC000F946FF1F0703000010B507498877074936
:102FD00048770A461E210648FEF7AEF8024A20212D
:102FE000882003F0A3FB10BD5C75FF1FDE46FF1FAA
:102FF0000703000070B505460024084803F008F9EF
:10300000E80705D0064A06210648FEF7C5FE044635
:10301000214605A000F058F8204670BD6D6B0211E6
:10302000A08402116046FF1F616464736572766953
:1030300063207265743D25780A0000000A4610B5C9
:1030400001460020FDF7C0F810BD0000FFB583B0B9
:103050000F4603981B4940001646085AFFF744FBE9
:1030600004002AD00125601C2670002F03D0069989
:10307000B847401C85B2300610D51021039803F0E4
:10308000F5F8002801D0192613E06219E9B22046AC
:10309000FFF758FB06000CD10C35ADB20421684691
:1030A00001800194058169460398FFF703FB060040
:1030B00004D02046FDF758F800E01326304607B04C
:1030C000F0BD00004877FF1F0FB410B503AA0448F5
:1030D000029903F0DDF810BC08BC04B018470000EA
:1030E0003D30021138B5034B00240FCB0094FDF79F
:1030F00071F838BD90830211F8B5496894460A7892
:103100004978069C090251188EB2444A11210025C3
:103110000798B71A091B964243D009DC404AB218F7
:1031200013D0012A1CD0022A25D0032A08D12EE070
:10313000012F40D0022F48D0032F50D0292F5AD032
:10314000002018700A252846F8BD082C55D2082101
:10315000091B814200D80846C2B21A70314857E0B4
:103160000C2C4AD20C21091B814200D80846C2B25D
:103170001A702D484CE00D2C3FD20D21091B8142C5
:1031800000D80846C2B228481A700D3040E0112C11
:1031900033D2814200D80846C2B223481A701B308D
:1031A00036E0112C29D2814200D80846C2B21E480E
:1031B0001A702D302CE0112C1FD2814200D8084605
:1031C000C2B219481A703F3022E0112C15D2814248
:1031D00000D80846C2B214481A70513018E00E2CBC
:1031E0000BD20E21091B814200D80846C2B20E48FC
:1031F0001A7063300CE0072C01D30725A3E70721E1
:10320000091B814200D80846C2B206481A70C01F86
:1032100001196046FCF7FAFE95E70000272A000036
:10322000DDD5FFFF0F45FF1FE483021110B50C46EB
:1032300002F08CFF002804D040882146FCF75EFF96
:1032400010BD122010BD0022002913D0002811D07B
:10325000012806D04A799206920E4A71032805D0B9
:1032600007E04879C0221043487102E04020024341
:103270004A7101221046704770B512480025007847
:10328000052108421BD02020FCF708FF0E4C002827
:10329000A06013D020220021FCF7C4FE2020FCF700
:1032A000FDFEE060002804D020220021FCF7BAFED9
:1032B00005E0A068FCF7F8FE0020A0601325284672
:1032C00070BD00004747FF1FB847FF1F10B5054CF2
:1032D000E069002803D0FCF7B7FE0020E0610A2077
:1032E000E07210BDAC43FF1FF3B54B4C4B4FE06990
:1032F00085B00E46002819D1059800287ED0002EF2
:103300007CD000F0C3F9E0720A2812D300250E2009
:103310006843C0190622FF21FCF78AFE002804D169
:103320006D1CEDB20A2DF2D30A25E572E07A0A2867
:1033300070D2E06900280ED082680025002A29D0CA
:10334000E07A062148432130C0B21C2103F0EEF997
:10335000E069856054E0E07A062148432030C0B23D
:103360000E21059A03F0E2F91022FF216846FCF7CE
:1033700059FEE07A6A467030C0B2102103F0D6F9E7
:10338000E07A0E2148430A46C0190599FCF73EFE33
:10339000E66135E00269002A0AD0E07A0621484356
:1033A0002230C0B21C2103F0C1F9E069056127E0B9
:1033B0004269002A0AD0E07A062148432330C0B28D
:1033C000102103F0B3F9E069456119E0C268002AF1
:1033D00019D0E07A062148432430C0B2102103F00E
:1033E000A5F9E0690621C268E07A10324843253029
:1033F000C0B2042103F09AF9E06900E00AE0C56078
:10340000002007B0F0BD607A002801D000F060FA1B
:1034100000F078FA0120F4E7AC43FF1F486AFF1F71
:10342000F0B589B017460E460446202200216846B2
:10343000FCF7F8FD684604802E4C0225A178017146
:10344000E2784271217A017706984108E0794900D3
:10345000C307DB0F1943069181070029069901DA9A
:10346000294300E0A94306910107234B069901D5A2
:10347000194300E099430691C106204B069901D5F6
:10348000194300E09943069181061D4B069901D529
:10349000194300E09943069140070421002806984B
:1034A00001DA084300E088430690002A05D001A80D
:1034B000102214490230FCF7A9FD2079002804D01D
:1034C000002E02D00699294306916946897D00287D
:1034D00000D001200143684681756078002800D043
:1034E00004200143684681753946FDF75BFF09B04A
:1034F000F0BD0000AC43FF1F00010000000200000F
:1035000000040000386AFF1F70B50025094E2C46E4
:103510000E20604380190622FF21FCF789FD002858
:1035200001D16D1CEDB2641CE4B20A2CF0D3284624
:1035300070BD0000486AFF1F7FB50C460621484356
:10354000064615462036F0B26A460E2103F0C2F850
:10355000002806D10622FF216846FCF769FD0028F5
:1035600002D0002004B070BD68468189002DC8B229
:1035700002D02043C0B200E0A043814206D0694699
:103580008881F0B26A460E2103F0D0F80120E9E705
:1035900010B50024204600F007F8641CE4B20A2CA1
:1035A00001D20028F6D010BDF0B5374C0546E07AC0
:1035B0008FB0854209D10121207BFCF711FE022149
:1035C000207BFCF70DFEFFF781FE2C4606204443CE
:1035D00026462036F0B207AA0E2103F07BF8002819
:1035E00006D10622FF2107A8FCF722FD002803D000
:1035F000002108460FB0F0BD0E22FF2107A8FCF7FE
:1036000011FD1C22FF216846FCF70CFD1022FF2152
:103610000BA8FCF707FDF0B207AA0E2103F086F80D
:10362000064620462130C0B26A461C2103F07EF8CF
:103630003043074620462230C0B26A461C2103F0C0
:1036400075F80646204623303E43C0B26A46102134
:1036500003F06CF8064320462430C0B26A461021BD
:1036600003F064F806432534E0B26A46042103F00F
:103670005DF8304304467035E8B20BAA102103F020
:1036800055F801462143B4E7AC43FF1F70B50A4D1E
:10369000064600240E206043401906223146FCF7FE
:1036A000BBFC002801D0204670BD641CE4B20A2C8B
:1036B000F0D30A2070BD0000486AFF1F002293006B
:1036C000CB5A834202D1900040187047521CD2B2AC
:1036D000042AF4D3002070477FB50C460A280CD288
:1036E000002C0AD0062148432030C0B26A460E2181
:1036F00002F0F0FF050003D007E0022004B070BD27
:10370000062269462046FCF781FC2846F6E70021A0
:103710008A00835A491CDB43835212189378C9B23A
:10372000DB4393700429F3D37047000070B5144E47
:1037300000240E2060438219204606214843203091
:103740001546C0B20E2102F0C5FF00280BD0284656
:103750000622FF21FCF766FCA81D0622FF21FCF7CC
:1037600061FC0020A881641CE4B20A2CE1D3054866
:10377000407A002801D000F0ABF800F0C3F870BD2B
:10378000486AFF1FAC43FF1F10B503494088097BFF
:10379000FEF7A4FB10BD0000AC43FF1F70B50E4642
:1037A00004460621484388B015462030C0B204AA1A
:1037B0000E2102F08FFF002843D10622FF2104A82A
:1037C000FCF736FC00283CD17034E0B26A46102188
:1037D00002F080FF002831D16846FFF798FF002EE5
:1037E00006D069463046FFF769FF00280DD015E086
:1037F000102200216846FCF71BFC00281ED1102275
:1038000000216846FCF70EFC10E0002D19D0694637
:103810000020FFF753FF002813D006808178A942CB
:103820000CD08570002D01D1002101806846FFF782
:103830006EFFE0B26A46102102F078FF012008B066
:1038400070BD0020FBE7000070B51E4C0646206AE4
:103850001D4D86B000280BD1204610300090022369
:103860001A4A29460120FEF713FC2062002826D0C0
:1038700004A80222002100900292019103AB228A47
:103880003046216AFEF76EF900280CD16846017BAC
:10389000407B000208180204120C04D0206A4189FF
:1038A0003046FDF7E1FA0023228A2946206AFEF716
:1038B00021FC2062002802D0002006B070BD01204B
:1038C000FBE70000AC43FF1FFFFF00002C85021147
:1038D00070B5FCF78BFC0A4E00240E206043801963
:1038E00005460622FF21FCF7A3FB002802D129464A
:1038F000FCF782FC641CE4B20A2CEED370BD00001D
:10390000486AFF1F08B5FFF7FFFD012801D9022013
:1039100000E00A20694608706A4601210520FEF78A
:1039200097FD08BD002909D0012807D149798909E7
:103930008901C02902D0402901D00220704703200C
:103940007047FFB500200E4608701AE01C5C401C52
:10395000C5B2002C17D02819904214D85F5D6D1C99
:10396000EDB2384600F08BFE002806D0641EE0B2AF
:10397000307000998F4202D1581904B0F0BD40193F
:10398000C0B29042E2D30020F7E7000010B5044C2B
:103990002068002803D0FCF787FB0020206010BDC2
:1039A000A447FF1F10B50D4CA068002815D0006A71
:1039B000002801D0FCF778FBA068406A002801D0FD
:1039C000FCF772FBA068806A002801D0FCF76CFB52
:1039D000A068FCF769FB0020A06010BDA847FF1F8E
:1039E00010B5044C6068002803D0FCF75DFB002094
:1039F000606010BDA847FF1F0100044805D10449BD
:103A00008978002901D00248801D70476877FF1F20
:103A10004647FF1F01488078704700004647FF1F58
:103A200001484068704700005877FF1F01488068D0
:103A3000704700005877FF1F0148C0680068704752
:103A40005877FF1F10B50748C0680168491C01601E
:103A500005480078FF2803D001218903FCF7FAFA12
:103A600010BD00005877FF1F4647FF1F02484068FF
:103A7000002800D001207047A047FF1FFFB581B08C
:103A80000B9F0D9E0A9D039802F04CFB040042D050
:103A9000019800283FD12079102108432071049912
:103AA000490702D50221084301E0FD2108402071A9
:103AB00028460C99384308433043207902D004212A
:103AC000084301E0FB2108402071002E06D0306938
:103AD000102220623146A018FCF798FA002D02D07F
:103AE0000298002805D0002F15D00298012808D090
:103AF00011E0606A002801D0FCF7D6FA1C212846A4
:103B000006E0606A002801D0FCF7CEFA1C21384696
:103B1000FCF7D0FA6062224CA06800283ED0002D4D
:103B20000FD0006A002806D11C20FCF7B7FAA16864
:103B30000028086205D0A0681C22006A2946FCF70C
:103B400065FA0C98002810D0A068406A002806D1B9
:103B50001620FCF7A3FAA1680028486205D0A068E7
:103B60001622406A0C99FCF751FA002E10D0A0687A
:103B7000806A002806D11420FCF790FAA16800287A
:103B8000886205D0A0681422806A3146FCF73EFAAC
:103B90003B46049A0399019802F03AFF05B0F0BD44
:103BA000A847FF1FF3B581B0019802F0BBFA0500EA
:103BB00029D00E20FCF7BAFA040024D02620FDF705
:103BC000D3FC060000D12E78D0202070002767702B
:103BD0000B20A0700622A91DE01CFCF717FA019823
:103BE00060810298C1070120002901D0207300E004
:103BF00027730299890701D5607300E06773F0B2FB
:103C00002146FCF775FAFEBD10B581881F4B0124D3
:103C1000CA1A994237D011DC1D4BCA1A994219D0E1
:103C200007DC1C4A8A1810D0022A1ED0032A29D188
:103C30001BE0472A27D0482A24D124E01300FCF7B0
:103C40000FFA06212222222222218068007800F029
:103C5000D7FC08E08068827841781202891889B21E
:103C6000007800F02DFD04460DE0094A921E9142B5
:103C700001D1012200E0002280680178104600F0A6
:103C800007FD00E00024204610BD00005320000086
:103C90000A200000FADFFFFF70B51A4D1A4A0146EC
:103CA000002628781268194C01290CD0002A09D066
:103CB00017490978490705D50221FCF7E3F9668021
:103CC000FFF764FE70BD6188002903D0114B1B789B
:103CD000002B05D0002AF5D01078FDF71BFC70BD35
:103CE0003C2902D33C39618070BD0221FCF7CAF93E
:103CF00062887D20C000424302212878FCF7BCF98D
:103D0000668070BDD547FF1FA447FF1FB847FF1F40
:103D10004747FF1F4947FF1F08B5418900910389A5
:103D2000C2888188C07800F0B7FB08BDF0B587B0C5
:103D3000040053D02A4D6868002823D0067829480B
:103D40000068002804D04168002901D0002088477D
:103D50002146E07908310591FFF7E4FDE071024664
:103D6000277D638A218AE089019002A88AC0A08801
:103D70000090E0783146059B02F0B6FEE07800281E
:103D800002D00CE01848D9E7E1890598009001912C
:103D9000E379A1880122304602F074F9E070686886
:103DA000002811D0FFF71CFE287800280CD0697875
:103DB000FFF73CFA002807D0E078A288034629786C
:103DC00002F0BFFE00202870A0881721FCF7B0FD8C
:103DD000A088FEF723FCA088FEF74AFC07B0F0BDE0
:103DE000A847FF1FD847FF1F4647FF1F70B504466F
:103DF0000025808802F096F9002803D00578A08875
:103E000002F018FA124E3078002808D0854206D108
:103E10007178FFF70BFA002809D000203070002DD0
:103E200005D0A379A288A078294602F08AFEB0685E
:103E3000002801D0FFF7B6FDA0881721FCF778FD18
:103E4000A088FEF7EBFBA088FEF712FC70BD000017
:103E5000A847FF1F70B58288294D0124531B2949AB
:103E6000AA4242D019DC284D531BAA4218D00BDCC1
:103E7000264BD21826D0254B1033D2181ED0032A39
:103E800017D0042A39D10BE0012B09D0022B07D01F
:103E9000032B21D0042B30D11AE0433B072B2CD825
:103EA000496800292AD00968002927D08847044694
:103EB00024E08068007800F0ADF81FE0806800F032
:103EC00001F9F4E78068411C007800F0D9F8EEE7CA
:103ED00083681B78002B11D0896800290ED00B68ED
:103EE00008E0014610469847E1E7094909680029BA
:103EF00004D04B68002BF4D100E00024204670BDB4
:103F00000E200000D447FF1F08200000F7EFFFFF3E
:103F1000B447FF1F10B5094CA17800290CD0014609
:103F20000622A01DFCF772F8A11DA078FFF78BF9FF
:103F3000A01DFCF767F910BD002010BD4647FF1F0C
:103F40001CB52F49037801240A68912B02D0A22BBB
:103F50002ED13EE04178052909D00E2904D00F2941
:103F600008D03E2924D115E0FFF774FF10E0FFF7D9
:103F70003DFF42E001468088224B0124C31801D056
:103F8000062B15D1002A38D05268002A35D0904728
:103F9000044632E081780124032917D004DC01298A
:103FA00011D0022904D105E0152926D0162924D0E4
:103FB000002422E01449896800291ED0496800299C
:103FC0001BD0884719E0FFF7B1FE16E0FFF7A4FE0B
:103FD00013E00E490978490707D500216A46118088
:103FE00001794088FEF79AFA07E0002A05D0526866
:103FF000002A02D001460648904720461CBD00001A
:10400000B447FF1FF3DFFFFFD447FF1F4747FF1FE2
:10401000FFFF0000F8B5164F0646BD1F2878FF28A1
:1040200014D00A20FCF782F804000FD0D0202070B2
:1040300066700820A070A878E07006223946201D1E
:10404000FBF7E4FF21462878FCF752F8E8780128CE
:104050000DD108480068002803D08068002800D0EF
:1040600080470648044A04210078FCF735F8F8BD7B
:104070004C47FF1FD847FF1F60EA0000D547FF1FCE
:1040800070B500240546002805D1002903D006227A
:104090000B48FBF7BBFF0A4810380178012907D10C
:1040A0000124002D06D000210170284600F0D0F92F
:1040B000204670BD02210170FCF7AAF8F8E7000065
:1040C0006877FF1F10B50024002813D002780B4931
:1040D000002A03D14288CA8202790A760A78022A23
:1040E00008D102780124002A06D000220A70007844
:1040F00000F0AEF9204610BD0322F7E75877FF1F06
:104100000149486070470000D447FF1FF8B57A4C5A
:1041100087780146002507266079A2793B00FBF7E6
:104120009FFF0805361A37375F9ACD364878002842
:104130005CD1714806223C30C91CFBF767FF0120A7
:10414000A0716D4B0146423362786079FDF738FC0F
:1041500000284BD1A8E00F464978002946D1F978CC
:10416000002906D0654BA2780021FDF729FC787064
:104170000AE0022A0BD00121FBF78AFF002803D1B5
:1041800001216079FBF766FF787800282ED1F8BD11
:10419000497800292AD1032F09D0A289002A0CD0FE
:1041A000217800290AD00121FBF766FF06E0052AE5
:1041B00001D0022012E0062010E02570A079062828
:1041C00002D0042802D008E0052007E0012020707A
:1041D00001466079FBF73EFF66E00320A07163E0D3
:1041E00048780F46002803D0312832D0A6715BE012
:1041F00041480622391D3630FBF708FF7889E081F7
:10420000B8892082F88960820520A071A28A002ADC
:1042100003D002216079FBF72FFFB889E083F8898A
:104220002084388A6084E07801280AD11F20FDF7B5
:104230009BF97D21C9004843024604216079FBF7C0
:104240001BFF7A89F8780423391DFCF7A5FB25703C
:104250002AE02570C1E728480E46062200213630A4
:10426000FBF7E0FEE5832584658404216079FBF794
:1042700009FF08216079FBF705FFB079082808D00D
:104280000320A0712078002805D06079FDF742F95D
:1042900007E00420F5E70120207001466079FBF774
:1042A000D9FE0020C043E081606A002800D16EE79B
:1042B00001680029FBD0A0798847F8BD0D46082188
:1042C000FBF7E0FE687829460028F6D1E888E0830D
:1042D000288920844889608404216079FBF7D8FE0E
:1042E0000028EAD1A06A0028E7D00368628C218CFC
:1042F000E08B9847F8BD00005444FF1FF46AFF1F8D
:1043000010B50178224C912906D0A22926D0D029B7
:1043100001D1FFF7FBFE10BD41780E29FBD181884A
:104320001C4A91420FD1816803200856A1790529C2
:10433000F1D17F28EFD0616A0029ECD049680029CB
:10434000E9D0884710BD144A9142FBD18068837838
:104350004278017811A0FEF7B7FE10BD417913290C
:10436000FBD10089012802D12079022808D005203C
:10437000FDF7FAF8024608216079FBF77DFE10BDD3
:1043800008216079FBF77EFEFCF7FCFF10BD000002
:104390005444FF1F05140000222000005B484349DD
:1043A00020444C455D25642025642025640A0000D6
:1043B0007CB5154C0546E08BE18A88420AD3218BF7
:1043C000884207D8208C618B884203D1608CA18BF6
:1043D000884217D00520FDF7C7F80646E18A6846EF
:1043E0000180218B4180618B8180A18BC1806279AA
:1043F0006946E089FEF79EF825713246082160790A
:10440000FBF73AFE7CBD00005444FF1FF8B5074699
:104410000E46084601F086FE040018D02620FDF75F
:10442000A3F8050000D125780620FBF77FFE0400E5
:104430000DD006220021FBF7F5FDD020207067701B
:104440000E20A070A680E8B22146FBF751FEF8BD11
:1044500070B50F4D06462878FF2818D00E20FBF7C0
:1044600065FE040013D0D020207066700020A0707C
:1044700006220849E01CFBF7C9FD06481038C18A2E
:104480006181007E207321462878FBF731FE70BDE4
:104490004647FF1F6877FF1FFFB581B01E461746CE
:1044A0000D460C20FBF742FE040013D0284601F015
:1044B00039FE002810D00078D02121700199617058
:1044C0000721A170A580E78026810A996181214694
:1044D000FBF70EFE05B0F0BD0048ECE74647FF1FB6
:1044E00070B50D4D044628680E46002812D00620EF
:1044F000FBF71CFE010009D0D02008704C7003208F
:1045000088708E8028680078FBF7F2FD002C01D0BF
:10451000FFF73CFA70BD0000A447FF1FFFB581B054
:104520001F460E46084601F0FDFD050022D0102072
:10453000FBF7FCFD04001DD010220021FBF772FDEB
:104540002620FDF711F8002800D12878D02121700D
:10455000019961700F21A170A68003992172677281
:104560000A99A1720B99E1720C99E160C0B22146DF
:10457000FBF7BEFD05B0F0BDF0B51F4D85B0286856
:10458000002837D08778FDF76BF8002805D00A207F
:10459000FCF7EAFF04900B200EE001F04FF9002831
:1045A00005D00620FCF7E0FF0490072004E0082077
:1045B000FCF7DAFF04900920FCF7D6FF04460F4809
:1045C0000078002814D001262968C878091DFEF754
:1045D0003AFE29686D46CA7A8B7A091D0BC503928B
:1045E00033463A4621460498FBF718FE05B0F0BD65
:1045F0000026E9E70120F9E7A447FF1F4847FF1F0E
:1046000010B50949096800290CD0002805D10120FE
:104610004870FBF755FD002802D00021FFF760FF2E
:10462000012010BD002010BDA447FF1FF8B50C46A7
:1046300001F078FD020021D026201462FCF794FFDF
:1046400005062D0E00D115785679901D009010208A
:10465000176AFBF76BFD040010D0D02020700020FB
:1046600060700920A070E6700622201D0099FBF7FB
:10467000CDFC21462846E760FBF73AFDF8BD411E18
:10468000152903D9FF2801D0002070470120704769
:1046900070B50A4E054630780C46FF280DD0042030
:1046A000FBF744FD010008D0D02008704C700220B8
:1046B0008870CD703078FBF71BFD70BDB847FF1FC9
:1046C000F3B5284D81B0286800284AD04078264E9E
:1046D000012803D03078002831D041E001F0AEF855
:1046E000224F002813D00120FCF73EFF044641284A
:1046F00008D91F4A02213878FBF7EEFC1D483C3CE4
:1047000044800EE07D20C0002246424303E00020AA
:10471000FCF72AFF0246002A03D002213878FBF773
:10472000ABFC2968022048703078002802D00020B5
:10473000307015E002990198FFF7D2FE10E00320D7
:10474000019CFBF7F3FC010008D0D02008704C70EE
:104750000420887028680078FBF7CAFCFFF716F978
:104760000120FEBDA447FF1F4947FF1FD547FF1F7C
:1047700060EA0000B847FF1F074A00218B00D35AA8
:10478000834202D1880080187047491CC9B20929A8
:10479000F4D30020704700007477FF1F10B50C465B
:1047A000FFF7EAFF00280DD0002C00D020608078B1
:1047B000FE2803D0FF2803D0162010BD172010BDFF
:1047C000002010BD022010BDFFB581B0FF201E46A5
:1047D000174605300A9DFBF7A9FC04001BD0B0204A
:1047E00020706770029860802671002D06D02046E8
:1047F000FC2229460830FBF709FC05E02046FC2294
:1048000000210830FBF70EFC21460198FBF770FCF5
:10481000002005B0F0BD1320FBE70000054817227B
:1048200002800988172901D20420704701800020E6
:10483000704700004247FF1F0020704708B50A4636
:104840000888498888420BD8002809D000230093A3
:104850001379521DFDF71CFC002803D0002008BD71
:10486000012008BD0A2008BDF3B50D460888498817
:10487000002687B0814215D3002813D0002769464F
:104880000F710097002369881A46FDF701FC0400A8
:104890004FD068460079002807D069464979012938
:1048A00025D008E0012009B0F0BD217802291BD0F5
:1048B00002216A4651711222504301AA618980186F
:1048C0004180684600791223584380181022001D49
:1048D0006168FBF79BFB68460079401C0106090EE6
:1048E000684601711FD11AE001216A465171217891
:1048F00002291ED1820001A86189121851806A46DE
:1049000012796168920010180222001DFBF77EFBED
:104910006A461079401CC0B21071052803D2618923
:104920000A48814200D101266089401C80B2002ED5
:10493000A7D068460079002805D001A90798FBF7A1
:1049400063FE0020AFE70A20ADE70000FFFF000094
:1049500038B50C4608884988884215D8002813D0F5
:104960002379621D02210B48FBF7D3FD00280DD0EF
:1049700000200090237961882088621DFDF788FB64
:10498000002805D0002038BD012038BD102038BDDA
:104990000A2038BD2085021108B50A4608884988D2
:1049A00088420BD8002809D0002300931379521DA8
:1049B000FDF76EFB002803D0002008BD012008BDD4
:1049C0000A2008BDF8B500250F4606460C46E0371C
:1049D00017E06800205A0021FDF734FB002809D0B9
:1049E000017A3046FDF7F0FC002808D06900615AD2
:1049F0002180F8BD6800205A20800120F8BD6D1C80
:104A0000EDB2B87DA842E4D80020F8BD10B5044648
:104A100008880021FDF716FB002804D0017A204603
:104A2000FDF7D2FC10BD012010BD000030B585B0EF
:104A300005466946FBF76CFE040026D1684680787F
:104A4000C1071E4809D08268002A04D068886946D8
:104A50009047044619E0062417E04268002A05D072
:104A6000688869469047040001D10EE00624684634
:104A70004078002809D16846817801730021C181FE
:104A80000474688803A9FBF77FFDA868002801D09B
:104A9000FBF76AFB002C05D168468078122807D006
:104AA0001B2803D068880121FDF754FD05B030BDF7
:104AB000684640780128F5D1F8E70000E847FF1F75
:104AC00070B505460C4608880021FDF7BBFA0028A2
:104AD00005D0017A22462846FDF789FC70BD0120E9
:104AE00070BD00000149486070470000E847FF1FA3
:104AF00010B50446801C00F047FDFF20E07010BD9B
:104B000010B500F025F8002800D0806810BD002204
:104B10009300CB5A834202D1900040187047521C38
:104B2000D2B2092AF4D3002070470000074A0021BE
:104B3000CB00D35A834202D1C80080187047491C69
:104B4000C9B20829F4D3002070470000346BFF1F5E
:104B50000649496805E08A88824201D18868704721
:104B600009680029F7D1002070470000B844FF1FF2
:104B7000F8B50746012906D0022923D1012101F009
:104B800075FB00281ED13846FFF7D0FF050015D071
:104B900000240D4E0CE0F820696860430818018875
:104BA000002908D0F8220021FBF73CFA641CE4B28B
:104BB00070788442EFD30020C043288003493846F0
:104BC000FCF770FFF8BD0000B844FF1F2475FF1FFD
:104BD000F3B5064683B0083001900020009070883D
:104BE000FFF7A4FF07002FD0002523E0F820796805
:104BF00068430C182188002920D0019800780128EA
:104C00000FD16088009023797088621DFDF784F9C8
:104C10000090002805D00199002008700498218890
:104C20000180F82200212046FBF7FCF900206D1CD2
:104C30002080EDB2074840788542D7D30020C0439A
:104C400038800098002802D17088FBF7C7FC0098D4
:104C500005B0F0BDB844FF1FF3B50546374C064616
:104C600085B00835F62200212046FBF7DBF903A8C2
:104C700000902B79698828886A1DFDF709FA074694
:104C800045E070882E4A4100515C2E4BC91FC9B2C5
:104C90000093002202910192284B69468A89F63BD3
:104CA0003946FCF75FFF002812D12648E979C01E7B
:104CB000C27891420CD121492846F6390830FBF7D9
:104CC000ABF9002804D02178788989000919488037
:104CD00068468289698804AB3846FDF70BFA0746B7
:104CE0002078810009194A88002A10D0002F05D0A9
:104CF0006A46128A401C20708A800AE0020600215F
:104D0000920DC9431219401C2070918006E0002FBB
:104D100004D00D48217800888142B2D32078002841
:104D200006D070882146FBF761FC002007B0F0BD7B
:104D30000698298801800A20F8E700002A74FF1FDE
:104D40004877FF1FBB44FF1F3E47FF1FF0B585B0EC
:104D5000044600206946888120790E2869D00FDC3E
:104D6000082823D004DC022813D0062818D118E024
:104D700025460835484F0A281DD00C2810D138E0A8
:104D800010285BD012285ED0162861D0182877D161
:104D900063E043484149008808806088FBF7FEFBD8
:104DA0006EE003A92046FFF757FF5AE003A920460B
:104DB00000F076F955E0288804A9FDF743F90100D1
:104DC00015D06088354E4200BA5C0023521ED2B224
:104DD0000193029200966A46731C128AFCF7C2FE87
:104DE00000281DD160883146FBF798FD48E001207E
:104DF00016E0288804A9FDF725F90100F7D060889E
:104E00006B884200BA5C254E521ED2B201930292C8
:104E100000966A46731C128AFCF7A4FE002803D091
:104E200029886A4691811CE060883146FBF746FD7F
:104E300026E003A9204600F0D3F912E003A920469A
:104E400000F082F80DE003A9204600F039FA08E0EE
:104E500003A9204600F028F803E003A92046FFF745
:104E6000B7FE00280CD06178142909D00B492279AB
:104E70000A706A4692894A8008716088FBF784FB51
:104E80002046FDF7C8F807488168002901D0204670
:104E9000884705B0F0BD00004877FF1F2A74FF1F48
:104EA0003C47FF1FB844FF1FF8B504460F460546B0
:104EB000083400896946FDF7C5F806003AD0307A13
:104EC00080060ED568460088FFF71AFE030006D05C
:104ED0006888122231469847060002D02BE00E2641
:104EE00029E06E883046FFF721FE010005D1144805
:104EF000FFF71CFE01000ED00E80124A00205278EF
:104F000007E0F8264B6846439B5B002B05D0401C0E
:104F1000C0B29042F5D309260DE04968F82250430B
:104F200008182146FBF772F8002668882146FBF72F
:104F3000BBFC02E00126208838803046F8BD000026
:104F4000FFFF0000B844FF1FF3B58BB000200B9E9D
:104F50000746039004A800903246337B718930895C
:104F60004C4C0D320836FDF793F8054678E00B9867
:104F7000297A4088FDF728FA070003D00C98698940
:104F800001806FE00B984449408800234200895C0F
:104F90000193891FCAB24149009102923D4B694673
:104FA0000A8AF63B2946FCF7DDFD0700E6D10398A7
:104FB000002833D039486178C01EC078021D914264
:104FC00053D1039909180B98408842003248805AFF
:104FD000801F814249DC0399A87A61188870039880
:104FE0006989401CC0B22218090A401C9170C0B2E5
:104FF00003906846028A718807AB2846FDF77AF865
:10500000050011D003986946898B20188170039898
:105010006946401C898BC0B2090A0CE01F48C01EBB
:10502000C078001D6070D6E70398FF2120188170BA
:105030000398401CC0B222189170401CC0B217499E
:105040000390C91ECA7813492018F639801CFAF754
:10505000DDFF12490398C91EC9784018C0B20390F9
:10506000002D84D1039800280CD061780398FBF7B9
:1050700099F820700B9821464088FBF729FC002006
:105080000DB0F0BD002F00D10A270C9831880180A7
:105090003846F5E72A74FF1F4877FF1FBB44FF1F00
:1050A000F3B50746044608378BB049480490388862
:1050B00000252E4605906AE007A800903B79798884
:1050C0007A1D0598FCF7E4FF0890002852D040892B
:1050D00005900898017A6088FDF776F906005DD1A1
:1050E00060883C494200895C3B4B091FC9B2009370
:1050F000002202910192364B69468A8BF63B089951
:10510000FCF730FD060049D1002D36D004984178D7
:105110003148C01EC078801C814241D12E4BDB1E1D
:10512000D8782918608842002A48805A001F814296
:1051300020DC0898817A04984019817008996D1CC8
:105140004989E8B20A0A049909188A70401CC5B254
:1051500019460498CA781E494019F639801CFAF796
:1051600055FF1D481D49C01EC0782818C5B20598B6
:10517000884209D1002D13D123E017480499C01E9D
:10518000C078801C4870C9E7401C80B205906088D8
:1051900041001048405A001FA8428DDA002D0ED061
:1051A000049841782846FAF7FDFF014604980170FB
:1051B00060880499FBF79AFB00200DB0F0BD002E2B
:1051C00000D10A260C99059808803046F5E70000C2
:1051D0002A74FF1F4877FF1FBB44FF1FFFFF00001B
:1051E000F3B506460446002085B0324D00900836DF
:1051F000287007463046E030049048E07800305A86
:1052000003A9FCF71FFF01001AD060882B4B8446CE
:1052100042002948805C0093401EC0B200220290E8
:105220000192244B68468289F63B6046FCF79AFC63
:105230000090002807D07800315A0698018035E0A8
:1052400001200090F7E71D492878C91EC978421847
:1052500061884B001849C95A4B1E9A4204DD081A4E
:105260001649C91E401EC8702978681C08181349C1
:10527000C91ECA780F49F639FAF7C8FE0F482978CF
:10528000C01EC078081828707F1C0498FFB2807D6B
:10529000B84207D96088297842000748805A401EE2
:1052A0008142ABDB60882946FBF72EFB009807B0F4
:1052B000F0BD00002A74FF1F4877FF1FBB44FF1F8B
:1052C000F3B5054683B004460835008901A9FCF70B
:1052D000B9FE2746E8370646002822D0307A8006F5
:1052E0000ED568468088FFF70BFC030006D0608867
:1052F000122231469847060002D013E00E2611E034
:1053000000200090AB7829886088EA1CFCF704FE36
:10531000060007D1387E002807D16088FBF714FB10
:1053200003E00126049829880180387E002802D0F5
:10533000002005B0F0BD3046FBE70000F8B504469C
:105340001F208001604382B218480025184F457025
:105350007868002807D00020C100C919401CC0B2DD
:105360004D600828F8D3124E002140363046FAF737
:1053700059FE002108466043C0B2F8225043831909
:105380000B48CA0012180020536005E0F827474375
:105390005368401CDD53C0B2A042F7D3491CC9B2C8
:1053A0000829E7D3014844700020F8BDB844FF1F26
:1053B000346BFF1F7CB50C78069D022C0ED14C6817
:1053C0002678647824023419054EA4B2F44205D13B
:1053D000022400950194FCF77DFB7CBD01207CBD7F
:1053E000FED6FFFFF8B505461D48854223D0461C72
:1053F000002921D001292BD002291CD101212846C6
:1054000000F034FF002816D12846FFF7B5F9040054
:1054100011D0A078FF280ED0FE2807D000200090E1
:10542000E0781E2314222946FFF7CEF92046FFF725
:105430005FFBFF20A070F8BD2846FFF79DF900280C
:10544000F9D13046FFF798F90028F4D00580F8BD6F
:105450002846FFF791F90400F9D02680D9E700002B
:10546000FEFF000038B5040010D0A078FF280DD052
:10547000FE280BD0002000902188E0781E23172200
:10548000FFF7A2F9FE20A070FF20E07038BD0000F9
:10549000F3B50C468978C1B01E2914D02E4D28785A
:1054A000FF2829D0182927D84808C2002B481218ED
:1054B000803A976F002F1FD0D06F00281CD0207823
:1054C000002817D113E04198FFF756F905000BD0DB
:1054D00000200090A378E87800224199FFF774F942
:1054E00006462846FFF704FB304643B0F0BD62781D
:1054F000012A03D1122901D00620F6E702AE009658
:10550000A3886178A268B8470028EED1A078400847
:10551000C100124808188038C26F02A9419890470C
:1055200000280FD061780029DFD1A27869460A707F
:10553000087168460189418069464198FBF724F863
:105540000020D2E7A378042BCFD000960022287841
:105550004199FFF739F9C8E7E047FF1FBC84021102
:1055600000B50346FCF720FF002803D0C018401EFA
:1055700080B200BD184600BD10B57D24E400624332
:1055800092B2FAF751FE10BD10B5040008D0207891
:10559000FF2805D0FE2803D0FAF74CFEFF2020702C
:1055A00010BD0000F7B506460F461020FAF776FD4D
:1055B00005461020FAF772FD0446002D3AD0002C63
:1055C0002DD010220021FAF72DFD2A462146304623
:1055D00001F09AFC060023D12878000604D439464D
:1055E000284600F041FD08E02146284600F03CFD39
:1055F0003A461149204602F0BFFE3878000604D42E
:105600003846029900F030FD0AE02146384600F0A5
:105610002BFD09492046029A02F0AEFE00E0132657
:105620002846FAF741FD002C02D02046FAF73CFD4F
:105630003046FEBD1326F6E746850211F8B50698FA
:1056400000271D4614460E46002801D00B20F8BD49
:1056500030780021022801D019704DE0706802787E
:10566000407800021018152280B25202801A0300FE
:10567000FAF7F6FC0504121F1A254100F068FAF744
:105680004FFDC2B20798824200D902462A70F168E3
:105690002046FAF7BBFC30E0F06802210088297050
:1056A0002070000A607028E0062028700246F16829
:1056B000EEE701202870F068007820701DE0F068A7
:1056C000002816D008212970017821700188090A64
:1056D00061708178A1704188090AE17001792171B6
:1056E0008188090A61718179A171C088000AE0711D
:1056F00003E0297001E0297001273846F8BD10B594
:105700000B78840702D50224234301E0FD242340C3
:105710000B7003070B7802D50824234301E0F7241C
:1057200023400B7083060B7802D52024234301E02D
:10573000DF2423400B700A21084201D1810603D5E2
:1057400010780C21084304E0002803D11078F321DD
:105750000840107010BD0000FFB581B0087800242B
:105760000A9E1F460D4602280FD1686801784078CE
:1057700000020818152180B24902401A09D00128F8
:1057800029D0022848D003283CD00124204605B067
:10579000F0BDE868FAF7C4FCC0B2864205D8F0193B
:1057A0000090152803D90D24F0E70724EEE7E868F8
:1057B0003A4680190399FAF729FC0098EA6880B202
:1057C000002111541C4840680028DFD001680029DE
:1057D000DCD0002012E0002E12D1022BE3D103997D
:1057E000E8680A784978090251180180124840682F
:1057F0000028CBD001680029C8D001208847C5E720
:105800000B24C3E7002EFBD1062BCCD10622E8687F
:105810000399FAF7FBFBB9E7002EF1D1012BC2D1B6
:1058200003980078002803D0012801D08024ADE738
:10583000E9680870AAE70000D043FF1F08B50948CF
:105840008368002B0CD01A78694601205B1CFEF798
:1058500078F8002804D00078C00701D0012008BDE6
:10586000002008BDB847FF1F10B503460B4A0020B3
:105870000A21414389184988002905D0401CC0B23B
:105880000328F5D3002010BD0A21002441435454BD
:105890000446403488184480037210BDA877FF1F67
:1058A0000A7802700A88120A42708A7882704A88DE
:1058B000120AC2700A7902718A88120A42718A79C0
:1058C0008271C988090AC17108207047F8B5054678
:1058D0000C4648680421FAF753FC217A01702189AB
:1058E0000346401C090A0170217841702188090A89
:1058F0008170207A001DC2B2FB2A35D81B48854230
:1059000015D114461E460C20FAF710FC01000CD0ED
:1059100090200870022008714D808E601448CC8061
:105920000078FAF7E5FB00271CE013271AE05C205B
:1059300010496843441826464036307E002805D07A
:105940000D480727416A491C41620BE02146284661
:1059500000F08EF90746307E002803D12146284604
:10596000FAF7E1FC3846F8BD0220F8BDFEFF000062
:10597000F547FF1FB879FF1F987CFF1F10B50A4A33
:1059800000210A234B439B185C88002C06D01B790E
:10599000834203D10A204143881810BD491CC9B273
:1059A0000329EED3002010BDA877FF1F00214180FE
:1059B0000170704770477CB504000FD060880028E4
:1059C0000CD00025009501951323E188207A172239
:1059D00000F028F8FF206072658025707CBDF8B566
:1059E000074615460E461020FAF7A0FB040017D014
:1059F000A0202070002060706680002D05D00C2251
:105A00002946201DFAF702FB04E00C220021201D8C
:105A1000FAF708FB21463846FAF76AFB0020F8BD82
:105A20000120F8BDFFB581B01E46174614200B9D1E
:105A3000FAF77CFB04001AD0A2202070677002984D
:105A400060800A9820716671002D06D020460C22D5
:105A500029460830FAF7DAFA05E020460C22002140
:105A60000830FAF7DFFA21460198FAF741FB05B052
:105A7000F0BD022A1CD34B780A781B02D21892B2CE
:105A80000280012A02D0022A06D00FE08A78C97863
:105A900009025118418009E0CB788A781B02D2189C
:105AA00042800A79497909025118818000207047A3
:105AB00001207047F8B506464D88002070600A79CD
:105AC0000C46022A11D029015B480091415A002955
:105AD00006D0009B1F18BB68002B01D0012A7AD08A
