:020000041FFFDC
:10000000000000006D44FF1F784FFF1F804FFF1F4F
:100010004051FF1F00000000000000000000000031
:1000200000000000000000000000000000000000D0
:1000300000000000000000000000000000000000C0
:1000400000000000000000000000000000000000B0
:1000500000000000000000000000000000000000A0
:100060000000000000000000000000000000000090
:100070000000000000000000000000000000000080
:100080000000000000000000000000000000000070
:100090000000000000000000000000000000000060
:1000A0000000000000000000000000000000000050
:1000B0000000000000000000000000000000000040
:1000C0000000000000000000000000000000000030
:1000D0000000000000000000000000000000000020
:1000E0000000000000000000000000000000000010
:1000F0000000000000000000000000000000000000
:1001000000000000000000000000000000000000EF
:1001100000000000000000000000000000000000DF
:1001200000000000000000000000000000000000CF
:1001300000000000000000000000000000000000BF
:1001400000000000000000000000000000000000AF
:10015000000000000000000000000000000000009F
:10016000000000000000000000000000000000008F
:10017000000000000000000000000000000000007F
:10018000000000000000000000000000000000006F
:100190004934FF1F1135FF1F0949FF1F00000000F0
:1001A000000000000000000000000000000000004F
:1001B000000000000000000000000000000000003F
:1001C000000000000000000000000000000000002F
:1001D000000000000000000000000000000000001F
:1001E000000000000000000000000000000000000F
:1001F00000000000000000000000000000000000FF
:1002000000000000000000000000000000000000EE
:1002100000000000000000000000000000000000DE
:1002200000000000000000000000000000000000CE
:1002300000000000000000000000000000000000BE
:1002400000000000000000000000000000000000AE
:10025000000000000000000000000000000000009E
:10026000000000000000000000000000000000008E
:10027000000000000000000000000000000000007E
:10028000000000000000000000000000000000006E
:10029000000000000000000000000000000000005E
:1002A000000000000000000000000000000000004E
:1002B000000000000000000000000000000000003E
:1002C000000000000000000000000000000000002E
:1002D000000000000000000000000000000000001E
:1002E000000000000000000000000000000000000E
:1002F00000000000000000000000000000000000FE
:1003000000000000000000000000000000000000ED
:1003100000000000000000000000000000000000DD
:1003200000000000000000000000000000000000CD
:1003300000000000000000000000000000000000BD
:1003400000000000000000000000000000000000AD
:10035000000000000000000000000000000000009D
:10036000000000000000000000000000000000008D
:100370007937FF1F000000000000000000000000AF
:10038000000000000000000000000000000000006D
:10039000000000000000000000000000000000005D
:1003A000000000000000000000000000ED26FF1F1C
:1003B000000000000000000000000000000000003D
:1003C000000000000000000000000000000000002D
:1003D000000000000000000000000000000000001D
:1003E000000000000000000000000000000000000D
:1003F00000000000000000000000000000000000FD
:0C04000001FF01FF01FF01FF41000000AF
:020000041FFFDC
:10183800C877FF1F0D19FF1F81840000F1280000E1
:101848000000000000000000000000000000000090
:101858000000000000000000000000001919FF1F30
:101868000000000000000000CD8400001D19FF1FCB
:101878001F19FF1F1F19FF1F1F19FF1F1F19FF1F08
:101888001F19FF1F1F19FF1F1F19FF1F1F19FF1FF8
:101898001F19FF1F1F19FF1F1F19FF1F1F19FF1FE8
:1018A8001F19FF1F1F19FF1F1F19FF1F1F19FF1FD8
:1018B8001F19FF1F1F19FF1F1F19FF1F1F19FF1FC8
:1018C8000000000000000000000000000000000010
:1018D8000000000000000000000000000000000000
:1018E8001F19FF1F000000001F19FF1F1F19FF1FEE
:1018F8000348854600F04EF8004800475141FF1F55
:10190800C877FF1F0448804704480047FEE7FEE702
:10191800FEE7FEE7FEE7FEE72D22FF1FF918FF1F8F
:1019280030B50B46014600202022012409E00D466F
:10193800D5409D4205D31D469540491B25469540F7
:1019480040191546521E002DF1DC30BD03460B43ED
:101958009B0703D009E008C9121F08C0042AFAD25D
:1019680003E00B780370401C491C521EF9D27047E3
:10197800D2B201E00270401C491EFBD2704700221F
:10198800F6E710B513460A4604461946FFF7F0FF76
:10199800204610BD064C0125064E05E0E36807CC3D
:1019A8002B430C3C98471034B442F7D3FFF7A4FFFD
:1019B800CC50FF1FFC50FF1F70B58C180578401CD9
:1019C8006B075B0F01D10378401C2A1106D10278FE
:1019D800401C03E006780E70401C491C5B1EF9D1C0
:1019E8002B0705D40023521E0DD40B70491CFAE7AF
:1019F8000378401CCB1A921C03E01D780D70491C1B
:101A08005B1C521EF9D5A142D8D3002070BD00003E
:101A180003B40148019001BDADAE000003B4014814
:101A2800019001BD456B010003B40148019001BD5F
:101A38008B52010003B40148019001BD59520100C5
:101A480003B40148019001BDDD3F000003B4014823
:101A5800019001BD0541000003B40148019001BD9A
:101A68007942000003B40148019001BDC95C01003E
:101A780003B40148019001BD1907010003B40148EE
:101A8800019001BDBD0B010003B40148019001BDE7
:101A9800E917010003B40148019001BDDD0A010006
:101AA80003B40148019001BD0134010003B40148A9
:101AB800019001BD0934010003B40148019001BD42
:101AC8000534010003B40148019001BDF53501005A
:101AD80003B40148019001BDF935010003B4014880
:101AE800019001BD01D7000003B40148019001BD78
:101AF8006DF6000003B40148019001BD4DF90000E6
:101B080003B40148019001BDC1F7000003B40148C6
:101B1800019001BD9D6A000003B40148019001BD18
:101B2800E1AC000003B40148019001BDED4A010099
:101B380003B40148019001BDA54F010003B4014859
:101B4800019001BD8552010003B40148019001BD17
:101B5800B54C010003B40148019001BD4550000097
:101B680003B40148019001BD75A9000003B4014800
:101B7800019001BD9DA9000003B40148019001BD79
:101B8800EDA5000003B40148019001BD21A90000A2
:101B980003B40148019001BDC56D010003B40148BB
:101BA800019001BDE9AF000003B40148019001BDF7
:101BB800B352010003B40148019001BDDD0C0100DE
:101BC80003B40148019001BDED6B010003B4014865
:101BD800019001BDC9A9000003B40148019001BDED
:101BE8003D4B010003B40148019001BD154D0100B2
:101BF80003B40148019001BDB14E000003B401488F
:101C0800019001BD0189000003B40148019001BDA4
:101C18002D11010003B40148019001BD8914010090
:101C280003B40148019001BDD1A50000F8B5814970
:101C38007F4A002005460A608300401CD550FF28D3
:101C4800FADD08687C4A014680318A606E22C262E9
:101C58007A4A1278002A01D07F22C2620A220265DB
:101C6800774A13788363774BC36114781023022C67
:101C780005D01478032C02D01478042C00D1036208
:101C8800714B4361714B83613C263623CE60C3633D
:101C98003424082344643E2703644F6032270F60CE
:101CA8003B27CF634927CF640D463927403598C570
:101CB80032270F6502270F664227083598C51E2769
:101CC8004F66CC668B6605244C6742240C675A2401
:101CD8008E610C61AF244B61E40004605C4C0463CA
:101CE8001478022C06D01478032C05D01478042C10
:101CF80004D005E00D2402E0042400E0032444603D
:101D0800FF242D348460C460FF24F5340461514CF1
:101D180084647D24E400CC674F4CC4647D24E400D3
:101D280044624E4C84627324C46506244465846509
:101D3800C41D4B27F934FF002360876602264666D8
:101D48000926C666464E002506678567B5104367AF
:101D5800444F414EC5673E601678022E06D016786D
:101D6800032E07D01278042A07D009E01222CA618C
:101D7800192204E00622CA6101E00A22CB610A6244
:101D8800344A8A627D22D2008A6764224A62052226
:101D9800CA6202220A63C8224A6300228A6338217F
:101DA800616031492164AF21C900A1614B21C9009B
:101DB800E1612E4921627D2109016162E2662267A3
:101DC8000F21A1662649A165256665646567E165F9
:101DD8001E49A1672649FF30264A8130E167026023
:101DE80082604160FF21F531C160016123482249C9
:101DF8000F4A81602249803A11612049214A803185
:101E08008A62214ACA62214981612149C162214904
:101E1800016321481949C039086018491F484031F1
:101E28008861FFF7F5FD0120FFF7F8FDF8BD000018
:101E38000004FF1F8051FF1FC877FF1FFC50FF1FC2
:101E48004A0AFF1F3A07000080C3C901DC050000E9
:101E58009A02000050C30000F81100006A18000040
:101E6800204E0000F009FF1F00400011C4090000C7
:101E780040420F0010270000F93CFF1F0001FF1F20
:101E88001D21FF1FC145FF1F7548FF1FCD20FF1FE4
:101E98000121FF1FE720FF1FD921FF1FF53CFF1F6E
:101EA80070B5054600243448057034A000F034FBB2
:101EB80000F03EFE0D203749087000BF44E00020C6
:101EC80061006118334A89184870610061188918DF
:101ED8008870600020181146085C0A280FD12E4A25
:101EE8000021622001F082FA61006118294A505CE1
:101EF800002100F0B1FD29A000F00EFB22E06000F7
:101F080020182449085C0B280FD1284A0021632097
:101F180001F06CFA610061181E4A505C002100F063
:101F28009BFD23A000F0F8FA0CE060002018194986
:101F3800085C052804D060002018085C062801D138
:101F480002F0C8FF601CC4B2012CB8DB0A48007854
:101F5800104908731A48086101F02CFD194A01213B
:101F680005480078FFF760FD164A0221024800780C
:101F7800FFF760FD70BD00003C51FF1F6770696F7F
:101F8800206B65792064656D6F2073746172742E9F
:101F98002E2E0A00B073FF1F1522FF1F5031362066
:101FA800697320757365640A000000002122FF1F11
:101FB80050313720697320757365640A000000008A
:101FC800013BFF1F8813000070B506460C463048D9
:101FD8000078864201D0002070BDE007C00F0028BD
:101FE80009D02C4A01212A480078FFF71DFD204618
:101FF80001214840F0E702202040002803D0204675
:1020080002214840E8E701208003204000281BD037
:10201800002512E0E900204808180079012807D0B7
:10202800680028181C49091F40184078032802D165
:10203800284600F0ABFA681CC5B2012DEADB204641
:10204800012189034840C7E70120C0032040002838
:102058001BD0002512E0680028180F49091F4018F6
:102068004078022809D1680028180A5C29460BA084
:1020780000F052FA0DA000F04FFA6D1C012DEADBBA
:1020880020460121C9034840A6E70020A4E7000034
:102098003C51FF1F88130000B473FF1F6B65793A2A
:1020A8002564206770696F3A256409006B65792893
:1020B8006C6F6E6720707265737320646F776E291A
:1020C8000000000070B50124A407A36810252B4365
:1020D800A360FFF7B5FCA068A843A06070BD70B509
:1020E8000124A407A66810252E43A660FFF7AEFCBE
:1020F800A168A943A16070BD70B50124A407A668B2
:1021080010252E43A660FFF7A7FCA068A843A0608F
:1021180070BD000010B5FFF7A5FC27490860042032
:10212800FFF7A6FCFFF7AAFCC10719D0234A002134
:10213800116023490978012915D0032916D00429EB
:1021480017D0022918D0052919D0FFF79DFC1D4C7E
:102158002078042819D0032820D0072823D026E087
:10216800FFF798FC10BDFFF79BFC0AE0FFF79EFC09
:1021780007E0FFF7A1FC04E0FFF7A4FC01E0FFF78C
:10218800A7FC40B20128EDD0E1E7FFF7A7FC002843
:102198000DD0FFF7A9FC0220207008E00A48807CD7
:1021A800FFF7A8FC03E00948807BFFF7A9FC0320A0
:1021B800FFF75EFC10BD00009C09FF1F9809FF1F78
:1021C8009009FF1F2309FF1FBC0BFF1FD40BFF1F24
:1021D800F0B585B014460AAAE4CA03976F4664C7E7
:1021E8002246FFF793FC012C01D0042C08D10549A5
:1021F80080240978CA0104498B88A3431A438A803A
:1022080005B0F0BD7809FF1F6C11FF1F10B5002144
:102218000A2000F021FC10BD10B500210B2000F0B1
:102228001BFC10BD014802490860704740787D01D9
:102238007C51FF1F30B47446641E2578641CAB4281
:1022480000D21D46635D5B00E31830BC18470000F0
:10225800002809DB00BF00BFC206D20E0121914051
:10226800024A116000BF00BF7047000000E100E0B3
:1022780010B5002819DB1A4A03231B02D218830859
:102288009B00D2588307DC0EFF23A3409A438B0799
:102298001B0E8407E40EA3401A43114B03242402A7
:1022A8001B198408A4001A5118E00E4A03071B0FD3
:1022B800083B9B089B00D2588307DC0EFF23A340F2
:1022C8009A438B071B0E8407E40EA3401A43054B61
:1022D8000407240F083CA408A4001A5110BD0000EC
:1022E80000E100E01CED00E010B5002819DB1A4AF7
:1022F80003231B02D21883089B00D2588307DC0EE5
:10230800FF23A3409A438B071B0E8407E40EA340C8
:102318001A43114B032424021B198408A4001A51E0
:1023280018E00E4A03071B0F083B9B089B00D25876
:102338008307DC0EFF23A3409A438B071B0E8407F9
:10234800E40EA3401A43054B0407240F083CA408D5
:10235800A4001A5110BD000000E100E01CED00E0EF
:1023680010B5002819DB1A4A03231B02D218830868
:102378009B00D2588307DC0EFF23A3409A438B07A8
:102388001B0E8407E40EA3401A43114B03242402B6
:102398001B198408A4001A5118E00E4A03071B0FE2
:1023A800083B9B089B00D2588307DC0EFF23A34001
:1023B8009A438B071B0E8407E40EA3401A43054B70
:1023C8000407240F083CA408A4001A5110BD0000FB
:1023D80000E100E01CED00E010B5002819DB1A4A06
:1023E80003231B02D21883089B00D2588307DC0EF4
:1023F800FF23A3409A438B071B0E8407E40EA340D8
:102408001A43114B032424021B198408A4001A51EF
:1024180018E00E4A03071B0F083B9B089B00D25885
:102428008307DC0EFF23A3409A438B071B0E840708
:10243800E40EA3401A43054B0407240F083CA408E4
:10244800A4001A5110BD000000E100E01CED00E0FE
:1024580002E008C8121F08C1002AFAD17047704765
:10246800002001E001C1121F002AFBD170471CB5F2
:1024780069460120FFF750FB01201CBD10B5FFF78E
:10248800F6FF002802D00248804710BDFEE7000092
:10249800E1A2000010B502460B46114600E0491CB7
:1024A8000878002803D018465B1E0028F7D1881A40
:1024B80010BD70B504460D462A462146002001F09D
:1024C8003FF970BD10B5FFF72DFB0120FFF730FB7A
:1024D800FFF734FB002010BD1CB501210903074894
:1024E800FFF732FB012004210B46024600910190C0
:1024F80003490448FFF72EFB1CBD0000A461FF1F21
:102508008451FF1F205FFF1F10B528210148FFF7E6
:1025180036FA10BD8873FF1F0FB408B503A80090E2
:102528000448009A029901F06FFC01B008BC04B09D
:1025380018470000BB24FF1F00B585B0064B0FCB22
:10254800049301AB07C30020009001A80FC801F055
:10255800BDF805B000BD00000C50FF1F70B5044663
:1025680026460948855DFF2D00D170BD002128460B
:1025780000F072FA0021284600F072FB002128467C
:1025880000F0A0FB00BFF0E76A51FF1F10B504463A
:1025980060002018094940184078012802D0032813
:1025A80008D103E0204601F055FA04E0204601F086
:1025B80041FB00E000BF00BF10BD0000B073FF1F6B
:1025C800F0B595B03C48C06B8705BF0D3A48406BE5
:1025D800400A40023849486338484078B84263D1D5
:1025E800022459E00120A0403840002852D0324847
:1025F800406B0121A14088432F494863002516E01C
:10260800E0012F494118A81C800008580005000D5A
:10261800690005AA5052E00129494118A81C800008
:1026280008580001010D681C400011526D1C1D2D39
:10263800E6DB0120A0402049886320480078002874
:1026480000D128E02046E10F091849104900611A15
:1026580001D0611E00E0611C0E46B1001748001D44
:10266800405800280FD0012001906846067205A83E
:1026780003901D2168460174B2001048001D81585E
:1026880001A8884700BF0C48406B0121A1400843BE
:102698000949486300BF641C072CA3DD07488078FC
:1026A800002801D100F072F80348406B054908433F
:1026B8000149486315B0F0BD000005408873FF1F4D
:1026C80000040540FF01000070B50548C56B0448CB
:1026D80040300468C4602946204600F001FD70BD02
:1026E8000080004010B5134880680407240F062CAA
:1026F80017D004DC022C10D0042C17D108E0072CCA
:1027080010D00C2C12D10221002001F087F80EE025
:102718000121002001F082F809E0002001F0B8F85A
:1027280005E004E003484030C06B00E000BF00BF94
:1027380010BD00000040004010B513488068040731
:10274800240F062C17D004DC022C10D0042C17D12F
:1027580008E0072C10D00C2C12D10221012001F026
:102768005DF80EE00121084601F058F809E0012063
:1027780001F08EF805E004E003484030C06B00E04B
:1027880000BF00BF10BD00000090004010B52748F2
:102798000078002801D1122010BD2548254948633A
:1027A8001D20002809DBC206D20E01219140224AD1
:1027B8001160BFF34F8FBFF36F8F00BF00201F4919
:1027C800486308151B49886302E01948194988635A
:1027D8001848C06B0028F8D1194880680821884338
:1027E8001749886008464068491488431449486076
:1027F800002408E0A10013484058002802D0E0B2A5
:10280800FFF7ACFE641C092CF4DB0D488068400817
:1028180040000B498860112000F062F8FFF774FE51
:10282800112000F02FFE0020B6E700006451FF1FC2
:10283800FF0100000000054080E100E0C003FF1F29
:1028480040F000408C73FF1F08B5642000904120C1
:1028580000F06EF8402000F06BF802204107486253
:1028680000BF0098411E00910028FAD103200121E1
:102878008907486200F006F800200121890788626C
:1028880008BD000038B5FFF76BF901208007846A9E
:1028980008200090002C02D10120810788620220C4
:1028A8000E49086000BF0098411E00910028FAD127
:1028B80003200A4908600820009000BF0098411EC4
:1028C80000910028FAD105490860002C02D10121A5
:1028D80089078862FFF74AF938BD000000C0004048
:1028E800202809DA01218907896801228240914359
:1028F8000122920791601AE040280BDA012189072A
:102908004A690146203901238B409A4301218907EE
:102918004A610CE060280ADA012189070A6A01463F
:10292800403901238B409A43012189070A62704785
:10293800202809DA01218907896801228240114388
:102948000122920791601AE040280BDA01218907D9
:102958004A690146203901238B401A43012189071E
:102968004A610CE060280ADA01218907096A0246EF
:10297800403A01239340194301229207116270479C
:10298800202823DA15280FDB16280DDC01218907FA
:1029980009682022914352061160114609682022D5
:1029A80011435206116056E0012189070968012286
:1029B8008240914301229207116011460968012261
:1029C8008240114301229207116044E0402827DA2F
:1029D80035280FDB38280DDC01218907C96810224A
:1029E80091439206D1601146C9681022114392069C
:1029F800D16030E001218907C9680246203A0123E5
:102A08009340994301229207D1601146C968024652
:102A1800203A01239340194301229207D1601AE01A
:102A2800602818DA01218907496A0246413A0123D8
:102A38009B1A01229A409143012292075162114642
:102A4800496A0246413A01239B1A01229A401143DE
:102A5800012292075162704730B504460D46072C93
:102A680001DB102C01DD062030BD002D0CD000212B
:102A7800204600F027F909480068E11F01228A4032
:102A880010430649086007E004480068E11F012276
:102A98008A409043014908600020E5E7003800407B
:102AA800002907D0074AD268012383401A43054BFF
:102AB800DA6006E0034AD268012383409A43014B57
:102AC800DA60704700380040FCB504460F46002025
:102AD80001900025FF2C27D02046E117890F0918FF
:102AE8008E10E117890F091889108900611A009161
:102AF8000099C806050E681DC0B201900B48B100C8
:102B080041580198421B521C01209040421EAA4085
:102B1800084690433946A94008430449B200885002
:102B280001212046FFF7BCFFFCBD0000183800401B
:102B380010B511480078002801D0072010BDFF21EA
:102B48002D310D48FEF71BFF01200B4908700020AE
:102B58000A49086348630A4908624862022110204A
:102B6800FFF7C2FB1020FFF773FB064A06490D204A
:102B780000F03CFC0020E1E7A471FF1F008000404A
:102B880080F00040D12EFF1F152EFF1F0146104870
:102B9800426B4B1A5B1C01209840431E8B40104629
:102BA800984301228A401043094A50631046026B39
:102BB8004B1A5B1C01209840431E8B4010469843DB
:102BC80000228A401043024A106300207047000028
:102BD8000080004010B502460B46172A01DB05208D
:102BE80010BD1248816B0120904001430F4881635A
:102BF800416B012090400C46844321460B484163B9
:102C0800C16B012B03D101209040014304E0012056
:102C180090400C46844321460448C163016B01205F
:102C280090400143014801630020D9E7008000403B
:102C380010B5002908D0094A5269831E01249C4016
:102C48002243064B5A6107E0044A5269841E012355
:102C5800A3409A43014B5A6110BD00000038004060
:102C680030B504460D46002D05D11448005D0128F5
:102C780001D1072030BD00212046FFF711FF022CAB
:102C880001D0032C03D101212046FFF7D1FF0021F9
:102C98002046FFF7E1FE012D07D1094840680121D0
:102CA800A14008430649486006E0054840680121FC
:102CB800A1408843024948600020DBE7A571FF1F57
:102CC80000800040F0B5024655005519174E735D57
:102CD80055005519AD196C7855005519AD19A878D6
:102CE800132A11DA124D9E00AE59271A7F1C0125AE
:102CF800BD406F1E87403546BD430E4686402E4375
:102D08000B4D9F00EE5110E0094D083D6E69271AE2
:102D18007F1C0125BD406F1E87403546BD430E46CA
:102D280086403543024E083E7561F0BD984FFF1F3F
:102D380008F0004001460948406801238B401840CC
:102D4800002802D00548026802E0044840300269C1
:102D58001046C840C007C00F704700000080004000
:102D680030B5002926D0142803D0152801D01628FC
:102D78000BD1244A52694300234C1B195C78012368
:102D8800A3401A431F4B5A613AE01E4A08324300D7
:102D98001D4CE3569B00D25843001B195C78012355
:102DA800A3401A43174B08334400174D2C57A4006F
:102DB8001A5125E0142803D0152801D016280BD164
:102DC800104A53694200104C121954780122A2404B
:102DD80093430C4A536113E00A4A083243000A4CF1
:102DE800E3569B00D3584200121954780122A2409E
:102DF8009343044A08324400034D2C57A40013514E
:102E080030BD000000F00040DD4FFF1F70B500240A
:102E18001FE01148005D012803D1E0B20121FFF74E
:102E28009FFF0D48005D022812D1E0B2FFF782FF34
:102E3800012148400546E0B2294600F07BF8E0B29F
:102E4800FFF778FF0C216143034A1732891848704D
:102E5800641C172CDDDB70BDA571FF1F10B514288D
:102E680015DA002909D0164A126A164B1C5C012390
:102E7800A3401A43124B1A6220E0114A136A114AFE
:102E8800145C0122A24093430D4A136216E0002904
:102E98000AD00B4A526A0B4B1B5C203B01249C4016
:102EA8002243074B5A6209E0054A526A054B1B5CEC
:102EB800203B01249C40A243014B5A6210BD0000F4
:102EC80080F00040814FFF1F70B502211020FFF7EE
:102ED8000BFA1020FFF7BCF9002426E0022C01D0E1
:102EE800032C03D1E0B20121FFF7A2FE1048005DD8
:102EF80001280CD1E0B2FFF71DFF0546E0B22946D4
:102F080000F06CF8E0B20021FFF72AFF00BF0C20A8
:102F1800604307491731085C002805D0E0B200F08B
:102F280091F8E0B200F074F9641C172CD6DB70BD80
:102F3800A571FF1FF8B504460F4660002018234905
:102F48000D5C6000201840188078401EC6B22048EA
:102F5800005D022800D0F8BD1E48806B0121A14009
:102F680008431C498863132C15DA002F09D11A4825
:102F7800A90040580121B14001431748AA008150D7
:102F88001EE01548A90040580121B1408843124964
:102F9800AA00885014E0002F09D10F48083840696A
:102FA8000121B14008430C490839486108E00A4842
:102FB800083840690121B140884307490839486108
:102FC80001212046FFF74AFF00BFC4E7984FFF1FC3
:102FD800A571FF1F0080004008F0004030B504468E
:102FE8000D46002D07D00A4800680121A14008437A
:102FF8000749086006E0064800680121A1408843A7
:103008000349086001212046FFF72AFE30BD000071
:103018000080004070B50446094D162C01DD0520DE
:1030280070BD00210C20604329540548173801550C
:103038002046FFF715FE2046FFF7A8FDF0E7000041
:10304800BC71FF1FF8B50446244D002600270C204C
:10305800604340194068002807D10C20604340199C
:103068008068002801D11220F8BD02211B481738BA
:10307800015501210C206043295400212046FFF707
:10308800EFFD0C20604340194068002810D00C2048
:1030980060434019806800280AD02046FFF74AFE9E
:1030A8000746002F01D1012000E0002006460EE06F
:1030B8000C20604340194068002801D0012606E032
:1030C8000C20604340198068002800D00026314653
:1030D8002046FFF77FFD0020C6E70000BC71FF1FF8
:1030E800F3B581B00646234D002440E00120A040FE
:1030F800304000283AD00120A0400299084000281A
:1031080001D0012000E000200746E0B2394600F077
:1031180033F80C20604340194068002810D00C2078
:1031280060434019806800280AD0012F01D001208F
:1031380000E000200746E0B23946FFF74BFD14E0F7
:103148000C20604340194068002804D0E0B20121F7
:10315800FFF740FD09E00C20604340198068002813
:1031680003D0E0B20021FFF735FD00BF641C172C27
:10317800BCDBFEBDBC71FF1F70B504460E46104D8A
:103188000C20604340194068002808D0012E06D161
:103198000C20604340194268204690470EE00C20FE
:1031A800604340198068002808D0002E06D10C2002
:1031B80060434019002182682046904770BD000096
:1031C800BC71FF1FF8B504460D4616460D4F204644
:1031D800FFF720FF0C206043C01945600C206043B6
:1031E800C01986602046FFF72DFF00900648074962
:1031F80008600098002802D02046FFF70BFF0098CF
:10320800F8BD0000BC71FF1FD126FF1FC003FF1FC0
:1032180070B504462046FFF78DFD0546002D01D008
:10322800012000E0002006460C20604304494018B5
:103238004078A84203D031462046FFF79DFF70BD75
:10324800BC71FF1F1CB500F01DF80B480078FEF795
:1032580093FC0A48007800F0CFF900F075F80849A7
:1032680003C9019100900199009800F019FAFFF73D
:1032780063F9FFF75DFC1CBD4A0AFF1FFC50FF1FE6
:10328800604FFF1F10B586B01422164901A8FEF73B
:103298005DFB002409E0620001ABD218517862009E
:1032A800985CFFF70FFD601CC4B20A2CF3D30E48DC
:1032B80040690F21C903884340180B4948610846F3
:1032C80040690321490588430121490540180649F9
:1032D8004861012000F016F800F024F800F006F824
:1032E80006B010BD4C4FFF1F00F000400448406975
:1032F8000121890688434018014948610020704728
:1033080000F00040014648094001002804D0002090
:10331800034A106006207047014801600020FAE760
:103328005051FF1F0648C0691F21490488430549B9
:103338000988490408430249C86100207047000011
:1033480000F000405051FF1F10B578210A48FEF7E1
:1033580016FB0A480078012804D0022806D0042861
:1033680007D100E000BFFEF70DFC02E0FEF750FBBE
:1033780000BF00BF002010BD1073FF1F4C51FF1F7E
:1033880070B50546122617480078012803D015485D
:103398000078042803D1FEF7F5FB002070BDFEF786
:1033A800DFFB002417E00C2060430F49085C00286D
:1033B80000D112E00C2060430B49085CA84209D1F7
:1033C80001210C206043084A80184170FEF7DAFB9F
:1033D800002602E0641C0A2CE5DB00BFFEF7C6FBF2
:1033E8003046DBE74C51FF1F1073FF1F70B50346D3
:1033F8000C4615460021002212E00C2050430F4EC7
:10340800305C984201D1072070BD0C2050430B4E10
:10341800305C002803D10C205043811902E0521C73
:103428000A2AEADB00BF002901D10320ECE70020CB
:1034380048700B704C608D6000BFE5E71073FF1F8C
:1034480010B5FFF76FFF002414E00C2060430C490F
:10345800085C002800D10FE00C20604308494018A0
:103468004068002805D00C216143054A891848683E
:103478008047641C0A2CE8DB00BF002010BD000058
:103488001073FF1F70B5054600261D4800780128F7
:1034980003D01B480078042803D1FEF773FB0020F3
:1034A80070BDFEF75DFB00241BE00C20604315494E
:1034B800085C002800D116E00C2060431149085C24
:1034C800A84205D100210C2060430E4A80184170A3
:1034D8000C2060430B4940184078002800D0761C27
:1034E800641C0A2CE1DB00BF002E02D1FEF790FA23
:1034F80001E0FEF747FBFEF739FB0020D0E70000AC
:103508004C51FF1F1073FF1F10B5184800680121A8
:1035180089078860164800680121084389074861BF
:103528001448006B14490860124830304068134949
:103538000860002415E00C2060431149085C00284D
:1035480001D1122010BD0C2060430D49401880683D
:10355800002805D00C216143094A891888688047EA
:10356800641C0A2CE7DB0020ECE700005451FF1F25
:103578005851FF1F80F000405C51FF1F6051FF1F32
:103588001073FF1F10B50D2015490870012015494B
:1035980008700020144908701448C06B40094001A5
:1035A80009301249C8630846C06B6021884320303F
:1035B8000E49C86300F01CF800210420FEF758FEED
:1035C80001211420FEF754FE01211520FEF750FEBC
:1035D80001211720FEF74CFEFEF77EFF10BD00000C
:1035E800480AFF1F490AFF1F680AFF1F80F00040B2
:1035F80010B5FEF743FF10BD10B50446012C18D1D5
:1036080024484069400140090521C906401821495C
:1036180048610846C06920490840204940181D49AA
:10362800C8610846C0694021884340301949C861CB
:1036380020E0002C1ED100210A20FFF743FB0021C7
:103648000B20FFF73FFB1348C06903210902884399
:1036580040181049C8610846C069402188430D498F
:10366800C86108464069400140090B210907401814
:1036780008494861074840690121090788434018FB
:10368800044948610846806903214904884301497F
:10369800886110BD00F000407F00FEFF80FD010042
:1036A80013B50848002101604160019A009906C0DD
:1036B80000F08AF8044A00211320FFF797FE002043
:1036C8001CBD00007451FF1FD137FF1F7FB5089C38
:1036D80060011849085C002802D0112004B070BDB0
:1036E8006846407A002801D00520F7E76101114AB1
:1036F80088182021FEF743F960010E4940186946F1
:103708002EC910302EC0204601F03EFB0120610179
:10371800084A5054002C05D1074A00210820FFF719
:1037280065FE04E0054A00211920FFF75FFE00202E
:10373800D4E70000D072FF1F394FFF1F434FFF1F10
:1037480070B504460D461646600108494018807E4B
:10375800002805D032462946204601F0B7FA70BD48
:1037680032462946204601F069FAF8E7D072FF1F71
:1037780070B56D4629460AA0FEF7CEFE002405E086
:10378800A00029580CA0FEF7C7FE641C102CF7DB1C
:1037980000BF0B48006B0B498842FAD170BD00008E
:1037A80048617264204661756C74205350206973B7
:1037B8002025780A00000000307825782C000000C9
:1037C800C007FF1F7856341208B500200F49009033
:1037D8004A68087800230121FEF7DAF90C480D49F8
:1037E80088631220002809DBC206D20E012191400D
:1037F800094A1160BFF34F8FBFF36F8F00BF0221DB
:103808001220FEF7E9FDFFF71FF808BD7451FF1FEE
:10381800050001FF00C8004080E100E0F3B587B073
:103828000446184F012C00D1174F60011749401862
:10383800007E00280BD08420C059C6B2002503E0C2
:10384800387803A948556D1CB542F9DB04E0012618
:10385800387D38786946087360010C494018C0699A
:1038680000280CD069460898087003A801900E72C9
:103878006001064A8018C1696846884700BF09B0D8
:10388800F0BD00000040004000900040D072FF1FD3
:10389800F0B585B0054668012D494018041D2D482E
:1038A80003906801085C002801D105B0F0BD6801EB
:1038B80027494018007E002800D1F6E7680124490E
:1038C8004018807E002800D1EFE72078022800D039
:1038D800EBE7A768A0886188401A86B2102E01DD40
:1038E800102000E030460646002E1FD1012020702F
:1038F80000206080A080680115494018C069002830
:103908000AD0154A07CA6B4607C36801104A8018CF
:10391800C1696846884700BF002D03D10820FFF71A
:10392800B1FD02E01920FFF7ADFDBEE7012D01D181
:103938000A48039005E06188481C6080795C039818
:1039480001703046711E8EB20028F4D100BFACE77A
:10395800D072FF1F004000401C50FF1F0090004025
:1039680070B504460D46002D06D160002018104998
:1039780040188078012808D0012D18D1600020183F
:103988000B4940188078002811D16120FFF7F8FC16
:10399800012061006118064A891848700121E20077
:1039A8000348001D10180171142000F091F970BD32
:1039B800B073FF1F10B5002424E0600020181549DB
:1039C80040188078002807D161006118114A505CBE
:1039D8000321FFF777F906E0610061180D4A505C92
:1039E8000221FFF76FF90021E2000A48001D81500B
:1039F80061006118021F505C074A1146FFF7E2FB9D
:103A0800601CC4B2012CD8DB002211466120FFF7EC
:103A1800EDFC10BDB073FF1F9D44FF1F70B5044639
:103A28000D46002D06D160002018094940188078FD
:103A3800012808D0012D09D1600020180449401838
:103A48008078002802D1142000F042F970BD0000EF
:103A5800B073FF1F10B5044661006118244A505C1A
:103A6800FFF768F9002806D160002018204940189F
:103A7800807801280ED0610061181D4A505CFFF75C
:103A880059F9002826D06000201819494018807874
:103A980000281FD11649087B164A0121C903FDF7E2
:103AA800C3FF6120FFF7EEFC022061006118104A95
:103AB80089184870FEF772F8E2000D49091D885010
:103AC800081F0069002811D0081F0221026920463A
:103AD80090470BE0002061006118054A891848707A
:103AE8000021E2000248001D1018017110BD0000FD
:103AF800B073FF1FB80B000070B504460D46600098
:103B0800201811490A5C214610A0FEF705FD022D78
:103B180004D0042D06D0202D0FD107E011A0FEF708
:103B2800FBFC0EE014A0FEF7F7FC0AE06120FFF7AB
:103B3800A9FC16A0FEF7F0FC03E01BA0FEF7ECFCC6
:103B480000BF00BF70BD0000B073FF1F0A6B65792E
:103B580020696E6465783A2564206770696F3A2534
:103B6800642000006B657928707265737320646F38
:103B7800776E290A000000006B65792870726573FA
:103B8800732072656C65617365290A006B65792815
:103B98006C6F6E672070726573732072656C6561F7
:103BA8007365290A00000000756E65787065637496
:103BB8000A00000070B504460D46012D06D16000CC
:103BC80020180D4940188078012808D0002D12D1FE
:103BD8006000201808494018807800280BD161201F
:103BE800FFF7CEFB032061006118034A891848706B
:103BF800142000F06DF870BDB073FF1F70B5044657
:103C08000D46012D06D1600020180949401880781A
:103C1800012808D0002D09D1600020180449401857
:103C28008078002802D1142000F052F870BD0000FE
:103C3800B073FF1F70B5044661006118214A505CDB
:103C4800FFF778F8610061181E4A89188978884258
:103C580030D11146087B1021FDF7A6FFFDF79EFF26
:103C6800E2001849091D8958401A17494843054672
:103C78006120FFF707FC13480069002819D0134892
:103C880085420BD30F482021026920469047002027
:103C9800610061180B4A891848700AE00948042134
:103CA800026920469047002061006118054A89187A
:103CB800487005E0022061006118024A89184870BE
:103CC80070BD0000B073FF1F71020000C0C62D0058
:103CD80010B504460449087B224601218903FDF7F3
:103CE800A3FE002010BD0000B073FF1F7047000046
:103CF80070B534480068012803D13348816D491CE8
:103D080081653348314941610124C4600460314907
:103D1800486B314AC0B21278002A17D12F4A0023C3
:103D2800D356002B2E4BD35606DB1B0400255557C4
:103D38002A029A18121808E0FF331B040025555769
:103D48002A029A18274B1218D2184A63022801D25D
:103D5800022002E0502800D95020234A1278022A73
:103D680011D0224A1578224B1E78B5420FD9157802
:103D78001B78EB1A801E4010434310784001C01A8C
:103D88001030401104E01B4A15781B4BECE7107803
:103D98004A69120A120210434861FDF70BFF052811
:103DA80001D004280AD115480078002806D0144804
:103DB8000078002802D00020FDF702FF1148C482D5
:103DC80070BD00009809FF1FFC0FFF1FFF3F000098
:103DD80000100340800003408C09FF1F680AFF1F82
:103DE80000000000FFFE0000490AFF1F440AFF1FF1
:103DF800450AFF1F460AFF1F470AFF1FF908FF1F52
:103E08002209FF1FBC0BFF1FF7B58CB00546002029
:103E18000690059083E10D98007825280AD0069829
:103E2800002803D10D980690002005900598401CA5
:103E3800059071E10598002806D0059881B206988A
:103E4800A847002006900590002400BF0D98401C4C
:103E58000D900D9800782B280DD004DC20280DD06B
:103E6800232814D10DE02D2802D030280FD10BE0E3
:103E780010200443EAE704200443E7E7082004434A
:103E8800E4E720200443E1E701200443DEE70026BD
:103E9800F6430D980078302808DB0D98007839280B
:103EA80004DC0DA800F0B4FE06460EE00D9800787C
:103EB8002A280AD10D98401C0D900E9840C80E90E3
:103EC800002E02DA7642102004430020C0430890F6
:103ED8000D9800782E2821D10D98401C0D900D9832
:103EE8000078302808DB0D980078392804DC0DA804
:103EF80000F08EFE08900CE00D9800782A2808D172
:103F08000D98401C0D900E98006808900E98001DA2
:103F18000E900898002801DA002008900020C0437D
:103F280007900D980078682807D00D9800786C28BD
:103F380003D00D9800784C2805D10D98007807908B
:103F48000D98401C0D900A200A900D9800786E2854
:103F58007ED00CDC632817D004DC412879D058289F
:103F680073D17AE064287FD06928F9D17DE073287D
:103F78002AD004DC6F286DD070287AD150E07528DB
:103F880076D0782875D16BE010202040002808D121
:103F980004E020200490012104A8A847701E061EF2
:103FA800F7DC0E980178001D0E90C8B2049001212C
:103FB80004A8A84704E020200490012104A8A847E9
:103FC800701E061EF7DCA7E00E98006809900E9890
:103FD800001D0E900998002801D159A00990089950
:103FE8000998FEF757FA074610202040002809D103
:103FF80004E020200490012104A8A8473046761E3A
:10400800B842F6DCB9B20998A84704E02020049029
:10401800012104A8A8473046761EB842F6DC7BE0AA
:10402800701C002802D10826012004430898019436
:1040380000900E9802C83346102203910E9028462D
:1040480000F034F968E003E003E012E00CE001E07E
:1040580062E061E008200A9023E04020044300BFAA
:1040680010200A901DE003E000BF0220044300BFB7
:1040780017E00D980078252804D025200490012108
:1040880004A8A8470D980078002806D00D98007855
:104098000490012104A8A84702E00D98401E0D9045
:1040A8003AE000BF07986C2806D10E9800680B907C
:1040B8000E98001D0E9025E00798682811D102205F
:1040C8002040002806D00E9800680B900E98001D1E
:1040D8000E9017E00E9800680B900E98001D0E9039
:1040E80010E002202040002806D00E9800680B90AF
:1040F8000E98001D0E9005E00E9800680B900E9823
:10410800001D0E90089833460194009028460A9A9C
:104118000B9900F0CBF800BF0D98401C0D900D983E
:104128000078002800D076E60598002806D0059883
:1041380081B20698A8470020069005900FB0F0BD00
:104148003C4E554C4C3E00001CB5022018490870E6
:10415800012018490870FDF739FDFDF767FDFFF7E5
:1041680011FAFFF76FF8144914A0FEF7D5F91948AA
:10417800007819490978009101900D4803780D4895
:1041880002781648017816A0FEF7C6F9204A0821D9
:1041980020A0FEF7C1F901231B03A12292001C49AC
:1041A8002848FEF7B9F9FEF78DF900201CBD00007C
:1041B8004A0AFF1FFC50FF1F0600030053444B2010
:1041C80056657273696F6E2049442025303878200F
:1041D8000A000000450AFF1F440AFF1F4B0AFF1F81
:1041E8007266436C6B202564207263436C6B2025D8
:1041F8006420737973436C6B202564207470436169
:10420800705B2530327820253032785D0A00000056
:104218009C0D000073697A656F6628737472756304
:1042280074206C6C5F706B745F6465736329203DE8
:104238002025642C206275662073697A65203D20EC
:1042480025640A002850FF1F70B505460C46002C4F
:1042580005D12246294605A0FEF75EF904E022466C
:1042680029460AA0FEF758F970BD000077616B6512
:104278007570286E6567293A6770696F3A256420FA
:10428800747970653A25640A0000000077616B65EF
:10429800757028706F73293A6770696F3A256420C2
:1042A800747970653A25640A00000000FFB597B07C
:1042B800054617461E46219C684800680390402022
:1042C8002040002802D06648006803901020204053
:1042D800002801D064086400022F01DB242F01DDCF
:1042E8001BB0F0BDE007C00F002801D0302100E06E
:1042F800202116910021159102202040002818D075
:104308001898002806DA2D20159018984042189021
:10431800761E0EE004202040002803D02B201590A4
:10432800761E06E008202040002802D020201590A4
:10433800761E20202040002806D0102F01D1B61E5E
:1043480002E0082F00D1761E00200290189800285D
:1043580006D130220298411C029104A90A5413E0A4
:104368000FE039461898FDF7DBFA0398425C02988B
:10437800411C029104A90A5439461898FDF7D0FA4D
:10438800189018980028ECD120990298884201DDED
:10439800029820902098361A11202040002809D130
:1043A80004E020200190012101A8A8473046761E8C
:1043B8000028F6DC10A8007D002802D0012115A8ED
:1043C800A84720202040002816D0082F05D13020EB
:1043D8000190012101A8A8470EE0102F0CD130212F
:1043E8000191012101A8A8471C48006820304178A4
:1043F8000191012101A8A84710202040002807D1D9
:1044080002E0012116A8A8473046761E0028F8DCED
:1044180004E030200190012101A8A8472098411EFE
:10442800209102998842F4DC06E004A90298085C0D
:104438000190012101A8A8470298411E0291002875
:10444800F3DC04E020200190012101A8A8473046B0
:10445800761E0028F6DC00BF42E700004451FF1F2B
:104468004851FF1F10B500240420FDF7B5FB08498B
:1044780008600422002106480068FDF7B3FB2046C7
:10448800641CFDF7B5FB2046FDF70AFD10BD0000D2
:104498004051FF1F70B505460E46002408E0600035
:1044A80020181849085CA84200D103E0601CC4B277
:1044B800012CF4DB00BF012C23DA6000201811491D
:1044C80040184078002806D0012809D002280CD0CE
:1044D800032814D10EE031462046FFF741FA0FE0D9
:1044E80031462046FFF79AFA0AE031462046FFF7A0
:1044F80061FB05E031462046FFF780FB00E000BF86
:1045080000BF70BDB073FF1F70B505460C46012C87
:1045180005D12246294604A0FDF7FEFF02E00AA0C5
:10452800FDF7FAFF70BD000077616B657570287044
:104538006F73293A6770696F3A25642074797065DA
:104548003A25640A000000006572726F720A000062
:10455800F8B5184D0A26E86940084000E8610620C9
:10456800FDF74CFB134C403CA06980210843A06137
:10457800E86901210843E86102E00820FDF73EFBF5
:10458800A86A800504D43046761EF6B20028F4D115
:10459800002E07D0286A7E21C70BA0690F408843E8
:1045A8003843A061A16980208143A1613806400E8B
:1045B800F8BD000040F0004010B500F00DF800F024
:1045C80087FA044A0121582000F0F2F9FFF7C0FFEA
:1045D80010BD0000600AFF1F70B53848016801224D
:1045E8009204114301604168032212069143344A40
:1045F80013781B06194341604368032189058B43DF
:1046080030490C78A405234343604368602423435E
:1046180043601378022B08D01378012B05D00B7850
:10462800022B02D00B78012B04D14368FF240134FC
:10463800234343601278032A02D00A78032A03D15D
:10464800426880231A434260426803239B041A434A
:1046580042600B780122D2051B48002B03D11B4B6B
:104668001B78032B18D0C3689343C360164A184BB2
:104678004032D360FF2681361661164C5461164DC0
:104688009561114B80335E609C60DD60134B036065
:104698000978002903D006E0C3681343E5E70168F9
:1046A8000123194301600E4909780E4BC906C90B4D
:1046B800C91881630C48D06170BD000040F000400B
:1046C8004C0AFF1F4B0AFF1F800003404A0AFF1FC6
:1046D800C00B00206A3E6A0700008904CC24000051
:1046E800480AFF1F250800002FFCA601F8B5454A17
:1046F800072401234349A404434D9B04403A00285E
:1047080034D0022832D08E155F100E628E69A6430F
:10471800F4188C612978002933D017613B4911635B
:104728003B49097801231B03C9185161354D354CA4
:10473800384EC03D803C002827D06522364BD20237
:10474800364901282ED0022831D0032852D0042817
:1047580050D0334A801828603248A0602660E16053
:1047680002210846FDF750FA2F482BE080260E62FA
:104778008E69A6430124E40436198E61297800293C
:1047880001D01361CAE71461C8E7284828600020EF
:10479800A06026602648E06003210846FDF734FA49
:1047A80024480FE024482860A3602260D7E7224805
:1047B800401C2860A3602260E16002210846FDF7E2
:1047C80023FA1E482061E868FF210843E8601C4876
:1047D80060611C48A0611C48E0611C4820621C48BC
:1047E80060621C48A0621C48E0621C4820631C48A8
:1047F8006063F8BD1B4E801928601B486860226002
:10480800A360ACE7C00003404B0AFF1F0300000190
:10481800440AFF1F00280B0055555537D6BE898E10
:1048280000800642555555008055082200800678BC
:1048380007EE7536806608220180063D804508220D
:10484800A49C5C544C44434241524C46403A342E5A
:1048580028007F554F49433D37312B4C46403A3469
:104868002E28221C00800698545A9850F0B51D4AEC
:104878001C4C1C4D072601231A49B604403AC03C7B
:10488800803D9B04022812D08F150F628F69B743B1
:10489800FE188E611449097800291BD0591011613E
:1048A800012819D0114940182060114810E08020D3
:1048B80008628F690003B7433E188E610A49097878
:1048C800002901D0136100E010610A4820600A48FD
:1048D8002861F0BD1361E3E70648401E20600748E1
:1048E800F6E70000C00003404B0AFF1F008006984F
:1048F800805508220280063D8045082280660822ED
:1049080010B50A4900200870094902200870FFF70D
:1049180063FE0848007800F011F8074C2078FFF78C
:10492800E5FE2078FDF776F910BD00004B0AFF1F61
:104938004C0AFF1F480AFF1F490AFF1FF0B51A4A11
:1049480003230725D60019499B026024ED01576906
:104958003F281AD0B74305263604BE195661CA68DF
:104968009A43CB14D218CA60CA69A2432032CA61DA
:10497800CA69AA43CA610D4940398A6BC006120543
:10498800120DC00B02438A63F0BDB7430126B6047B
:10499800BE195661CA689A43CA60CA69A243CA6105
:1049A800CA69AA438032E5E700F00040C00003402E
:1049B800F8B53A4B5D6A9C6A00265E629E62384B87
:1049C80058630E2018629E155E624020986250203F
:1049D800D862FF202B30586231484030012915D069
:1049E800802101622F49FF232D48A5334030836081
:1049F8002D4B43602A4B2D48403B18617D20C00059
:104A08000090471E009705D33846FAE70662254905
:104A18008331E8E7264889050F182148403887631D
:104A2800234B5B1CC91881632248009022480078F8
:104A38000300FDF7FFFB05040408060D08001F48E6
:104A480000E01F4800901F4810601548403005E0FE
:104A58001D48F7E7C16AC943890F14D000994B1E56
:104A68000093F7D20E4940398F630D4900228A62BC
:104A7800CA6282604E620A62FF204130486207487B
:104A880045628462F8BDC16A104B19401160116813
:104A98000122090C120489184160E3E70010034061
:104AA80080000340CA0200002020000080560C202D
:104AB80064652100102700004A0AFF1F204E0000ED
:104AC8003075000000002020409C0000FFFF3F3FA1
:104AD80000B50021022000F021F80C49801C087064
:104AE8000021422000F01AF80949801C08700121B1
:104AF800022000F013F80749801C087001214220A9
:104B080000F00CF80449801C087000BD440AFF1F1F
:104B1800450AFF1F460AFF1F470AFF1FF8B5324A1A
:104B2800304B1360304C304A07239B0480344032AA
:104B38000129A1690ED0994301239B04C918A161D9
:104B48002A49D1602A4E33780121C905294D002B05
:104B580007D009E099430123DB04C918A16126495C
:104B6800EFE72B78032B14D0D3688B43D3605063C3
:104B78000E20106200275762FF20153050621F4830
:104B8800009028780300FDF755FB0507070D090B72
:104B98000D00D3680B43E9E7194802E0194800E023
:104BA800194800900098431E0093FBD2606B57622F
:104BB8000002000E1762154BD360FF234133536286
:104BC8006524094BE4021C603378002B02D12B7852
:104BD800032B03D0D3688B43D360F8BDD3680B4352
:104BE800FAE7000010000300400003407F40730014
:104BF8004B0AFF1F4A0AFF1F7F405300102700007F
:104C0800204E000030750000409C0000404010001D
:104C18000146002008E00B685A1C0A601B780A222B
:104C280042439A18104630380A681278302A03DB53
:104C38000A681278392AEEDD7047000038B5044654
:104C48000B461F49012C00D11E490020009007E0A7
:104C58000098451C00951C4DA84201DD0D2038BD6B
:104C6800C86FC007C00F0028F2D112E000200090E2
:104C780007E00098451C0095134DA84201DD0D2062
:104C8800EDE7087D202528400028F2D01878087024
:104C98005B1C1046551EAAB20028E7D1009007E019
:104CA8000098451C0095084DA84201DD0D20D6E767
:104CB800087D402528400028F2D00020CFE70000DA
:104CC8000040004000900040A0860100F7B582B087
:104CD80007461546780129494018041D284E002D1D
:104CE80002D00398002802D1062005B0F0BD207834
:104CF800002801D10320F8E72078012801D01120ED
:104D0800F3E7E088A84201DA0320EEE72A46A06824
:104D18000399FCF71BFEA58000206080022020700C
:104D2800A0680190A0886188401A85B2102D01DD25
:104D3800102000E028460546012F00D1114E70686A
:104D480002218843706005E06188481C60800198F2
:104D5800405C30702846691E8DB20028F4D1002FBF
:104D680003D10820FEF70CFB02E01920FEF708FB30
:104D780070680221084370600020B6E7D072FF1FF8
:104D88000040004000900040F0B585B00646FCF7B2
:104D980047FF0490484C082003900B200290042001
:104DA800019005200090012E08D1444C1920039051
:104DB80011200290082001900920009070014049BC
:104DC8004018007CFF2807D170014018407CFF285C
:104DD80002D1062005B0F0BD7001394940180546DA
:104DE80010350398FDF7A4FD0398FDF7C9FD287851
:104DF8000221FDF767FF68780221FDF763FF287835
:104E08000199FDF761FE68780099FDF75DFE0020C5
:104E18002073049A12116B685B08D0186968FCF754
:104E28007FFD074600202061802020733846FF213F
:104E380009020840000A20712770E87A002802D089
:104E48001B20207301E003202073287A002802D059
:104E58008720207201E00020207201206060287AFB
:104E6800002803D06068802108436060A87A002881
:104E780003D06068022108436060002E03D1114806
:104E88001149C86203E011480F49403148600221C6
:104E98000298FDF765FA0298002809DB00BF00BFF9
:104EA800C206D20E01219140094A116000BF00BF1D
:104EB80000BF00208EE70000004000400090004046
:104EC800D072FF1FED26FF1F8003FF1F4127FF1F22
:104ED80000E100E000B585B00F4B0FCB049301ABA8
:104EE80007C300210520FDF7DBFD00210620FDF7A3
:104EF800D7FD01210820FDF7B3FE00210920FDF7A9
:104F0800AFFE0020009001A80FC8FEF7DFFB03A04A
:104F1800FDF702FB05B000BD684FFF1F7561727495
:104F2800206E657720706F72742E2E2E0A00000096
:104F380010B50020FFF728FF10BD10B50120FFF7BE
:104F480023FF10BD02000300050206020703080341
:104F580009030A000C030D03040000003B000108CC
:104F68000809FFFF00C20100010000000000000066
:104F7800F1590000D11FFF1F020001020307090AAF
:104F88000B0E0F101112141718191A1B1F202122AB
:104F9800000201000504000807000B0A00171600AC
:104FA8001D1C010201010504010E0D01111001145F
:104FB80013011716011A19020201020B0A020E0D3B
:104FC800021110021413021716030504030807033D
:104FD8000B0A030E0D000D000E0010001100130047
:104FE8001401070108010A010B011C011D0204023A
:104FF80005020702080219021A021C021D03010316
:10500800020317000506FFFF00C2010001000000AF
:105018000000000003000000000000000000000085
:1050280073697A656F6628675F70436F6E6E656334
:1050380074696F6E42756666657229203D20256425
:105048002C2073697A656F662870436F6E6E436FA4
:105058006E7465787429203D2025642C2073697A44
:10506800656F66286C6172676548656170293D25C2
:1050780064200A003031323334353637383941420A
:10508800434445464748494A4B4C4D4E4F50515270
:10509800535455565758595A00000000303132338E
:1050A8003435363738396162636465666768696ABA
:1050B8006B6C6D6E6F707172737475767778797AC0
:1050C800000000000004FF1F8451FF1F0C000000B7
:1050D8005824FF1F8451FF1F0004FF1F0004000015
:1050E800C019FF1F8451FF1F8451FF1F4426000071
:1050F8006824FF1F000000000000000008000000F6
:105108000000000000000000000000000000000097
:10511800080000001145FF1F5142FF1F0E0000004C
:105128001145FF1F5142FF1F130000001145FF1FCB
:105138005142FF1F0000000000000000A450FF1FA4
:105148007C50FF1F020000000000000080210800C2
:105158001902E00100000000000000000000FF0F3D
:10516800FF0FFFFF070E0F08090DFF0004000000E6
:0C5178003B00010840787D0100000000B1
:040000051FFF18F9C8
:00000001FF
