:020000041102E7
:1000000003B40148019001BDE927000003B4014891
:10001000019001BDE94C010003B40148019001BD0C
:10002000CD4C010003B40148019001BD154D010004
:1000300003B40148019001BD1D4B010003B4014808
:10004000019001BDF54E010003B40148019001BDCE
:10005000434D010003B40148019001BD0D52010060
:1000600003B40148019001BDD120FF1F03B4014832
:10007000019001BD2526000003B40148019001BD97
:100080008B52010003B40148019001BDB35201003D
:1000900003B40148019001BDC94A010003B40148FD
:1000A000019001BD3D4B010003B40148019001BD29
:1000B000014C010003B40148019001BDF94C01005D
:1000C00003B40148019001BD691F000003B4014859
:1000D000019001BD5D17000003B40148019001BD0E
:1000E0005952010003B40148019001BD512500009F
:1000F00003B40148019001BD594F010003B4014808
:10010000019001BD8D12000003B40148019001BDB2
:100110004D1F000003B40148019001BD55220000AD
:1001200003B40148019001BDDD52010003B4014850
:10013000019001BD1D4D010003B40148019001BDB6
:10014000BD18FF1F03B40148019001BD017F0000ED
:1001500003B40148019001BDE117000003B4014858
:10016000019001BD7918000003B40148019001BD60
:10017000D949010003B40148019001BDE9280000FC
:1001800003B40148019001BD5549010003B4014881
:10019000019001BD4551010003B40148019001BD2A
:1001A000C926000003B40148019001BD8D39FF1F2D
:1001B00003B40148019001BD2939FF1F03B4014870
:1001C000019001BD894A010003B40148019001BDBD
:1001D0003519000003B40148019001BDBD180000AD
:1001E00003B40148019001BDC521000003B40148DA
:1001F000019001BD291C000003B40148019001BD1C
:10020000851F000003B40148019001BD6918FF1F5C
:1002100003B40148019001BDA946010003B401489F
:10022000019001BD1147010003B40148019001BDD7
:10023000852EFF1F03B40148019001BD152DFF1F3E
:1002400003B40148019001BD5D2DFF1F03B40148B7
:10025000019001BD0D2CFF1F03B40148019001BDA9
:10026000312FFF1F03B40148019001BD055E00005E
:1002700003B40148019001BDE548000003B4014802
:10028000019001BD2951010003B40148019001BD55
:10029000D91B000003B40148019001BD091B0000F7
:1002A00003B40148019001BD311B000010B5FFF7F8
:1002B000A7FE022805D0072805D0122800D1022069
:1002C00010BD142010BD214904200A6B521C0A6382
:1002D00010BDF8B500260C460D46074640341FE019
:1002E000607CC1004A1953686A5C002801D0012172
:1002F00000E000213846FFF7D9FF002802D0012195
:100300002176F8BD607CC00040194660607C401CCE
:100310006074207C401E20740C48016A491C0162F4
:10032000207C0028DCD166742676F8BD5C21084A62
:10033000414310B589185822525C012A05D1FFF7B4
:10034000C8FF0248816A491C816210BD6482FF1F98
:10035000847FFF1F0A7802708A7842704A88120AE6
:1003600082700979C170042070470A780270098888
:10037000090A41700220704710B500220EE0930078
:100380005B189C7804705C88521C240A44701C79A9
:1003900084709B88D2B21B0AC370001D0B789342F5
:1003A000EDD81806800D10BDF8B50D460646497803
:1003B000012031700024761C16E06978012917D0DD
:1003C0001221614349198A7832704A88871C120ABF
:1003D0007270B61C10223046091DFFF717FE103749
:1003E000B8B21036641CE4B22978A142E5D8F8BD51
:1003F000A10049198A7832704A88871C120A7270E3
:10040000B61C02223046091DFFF700FEBF1CB8B221
:10041000B61CE7E710B50C46097801702188090A77
:100420004170A278E11C801CFFF7F0FDA078801CD1
:1004300010BD10B50C46097801702188090A417079
:10044000A17881706188090AC1702279611D001D3F
:10045000FFF7DCFD2079001D10BD10B50C460A78B1
:10046000491CFFF7D3FD207810BD10B50B784A78F2
:1004700002705343DCB22246401C891CFFF7C6FDC4
:10048000601C10BD10B50B784A7802705343DCB283
:100490002246401C891CFFF7B9FD601C10BD10B539
:1004A0000C460A78491CFFF7B1FD207810BD10B545
:1004B0000C460A78491CFFF7A9FD207810BD7FB5CE
:1004C00015460446022901D0102903D1022B04D07D
:1004D000102B02D0002004B070BD994202D10A4610
:1004E000294607E01029694607D000F00DF81022D0
:1004F00069462846FFF790FDEDE7104600F004F846
:10050000102269462046F5E770B50C4605000CD070
:10051000002C0AD0102206492046FFF777FD2878E4
:10052000207368786073012070BD002070BD0000EA
:10053000487A021110B50B460122024902F086FAF0
:1005400010BD00005503021170B5064608880C4620
:10055000172812D30B4603220949304602F076FAD7
:10056000050008D1074920880988884200D2014641
:10057000304600F0B3F9284670BD022070BD00007F
:100580006B030211EE4EFF1F10B50023192219460E
:1005900002F05CFA10BD000010B50A78002A05D000
:1005A0000B460722024902F051FA10BD022010BD8D
:1005B0007903021110B54A78012A01D0022A08D124
:1005C0000A78002A05D00B460522034902F03EFABC
:1005D00010BD022010BD0000A90302110149400016
:1005E000085A7047147DFF1F10B50B461D220249A3
:1005F00002F02CFA10BD00001504021110B50B46D4
:100600001B22024902F022FA10BD0000150402115B
:100610000020044917224300401CCA520828FADB74
:1006200070470000147DFF1F0098022B01D00420AA
:1006300070471178527812028918018000207047A3
:100640000098012B01D00420704711780170002020
:10065000704770B5049C1E461546062B1BD369785F
:100660002878090240182080E978A8780902401803
:10067000608002222271291D601DFFF7C7FCB61F92
:10068000F2B2E271F02A06D82046A91D0830FFF721
:10069000BDFC002070BD042070BD0098042B01D06B
:1006A00004207047537811781B02C9180180917893
:1006B000D27812028918418000207047F8B50646AA
:1006C000007B0D460406240E26D0B2681778380643
:1006D00020D50C2C20D90C3CE4B21019009001213B
:1006E0007088234602F044F9002811D002202870B7
:1006F0007806C00F6870B806800EA870641E2004CB
:10070000000CA88001D0B068401CA8600020F8BD93
:100710000120ECE70020EAE70120F8BD10B50298BF
:100720001146042B14D34C780A7824021219028043
:10073000CC788A782402121942801B1FDAB2027127
:10074000F22A05D8401D091DFFF760FC002010BDEE
:10075000042010BD0098042B01D00420704753786A
:1007600011781B02C91801809178D2781202891879
:1007700041800020704710B502981146062B03D027
:10078000142B03D0042010BD022200E010220271BD
:100790004B780A781B02D2180280CB788A781B0229
:1007A000D21842800279401D091DFFF72FFC00205E
:1007B00010BD000030B5039CD80718D1D805010E34
:1007C000022914D30B488088814210D8F6200155A5
:1007D000002008E0557813782D025B194500401C75
:1007E0006353C0B2921C8842F4D3002030BD042071
:1007F00030BD0000E84EFF1F0098022B01D00420FE
:1008000070471178527812028918018000207047D1
:1008100070B5144602460498022B18D366782578E2
:100820003602AD1905800546E035EA752976002ABD
:100830000BD0E8219B1EDAB282708A4207D8A11C35
:10084000C01CFFF7E3FB002070BDF421F2E7042099
:1008500070BD000010B50B461722024902F0F6F8F1
:1008600010BD00003304021110B50B460D220249E1
:1008700002F0ECF810BD00005B04021110B50A781C
:10088000002A05D00B461122024902F0DFF810BD04
:10089000022010BD6B04021110B50A78002A05D0A1
:1008A0000B460922024902F0D1F810BD022010BD0A
:1008B0008504021110B50B460F22024902F0C6F85A
:1008C00010BD00009F04021110B50B460B22024917
:1008D00002F0BCF810BD0000AF040211034A1288F8
:1008E000914202D8024A400011527047E84EFF1F61
:1008F000147DFF1F10B500231322194602F0A6F83D
:1009000010BD000010B5034A1321034801F00EFA90
:1009100010BD00003C7A0211984CFF1F10B502492F
:10092000087302F003FC10BD2C4BFF1FFFB599B0FC
:100930000026079607AA089600F0CEF905460A2871
:100940007CD204460620444320462030C0B26A468A
:100950000E2105F087FB002802D168468089C6B2C7
:100960001B984149099009781C98022913D000214D
:100970001791082811D020462130C7B21C2200212F
:100980006846FFF74FFB6A461C21384605F06AFBB4
:10099000002805D010E00121EAE720462230ECE7EC
:1009A0006846807EC01F092806D8F107C90F6A462D
:1009B000179B099800F014FD142200210BA8FFF7E3
:1009C00031FB20462430C0B20BAA102105F04AFBAF
:1009D000002812D11022FF210BA8FFF729FB0028C5
:1009E0000BD12534E0B20FAA042105F03BFBF1073F
:1009F000C90F0BAA1B9800F037FF7035E8B210AA98
:100A0000102105F02FFB002811D110A802F07FFB68
:100A1000002410ADA00040190188002903D082787D
:100A20001B9801F037FA641CE4B2042CF2D3B0072F
:100A300004D50D48017B1B9801F01AFA1C98042874
:100A40000FD10949087802280BD10A791B98002A8E
:100A500000D001224978002900D00421114300F080
:100A6000CBFE00201DB0F0BD2C4BFF1F70B52A4DF2
:100A70000C46080426D5287BFFF7E0FA05001ED0B7
:100A80000178B02908D0B1290ED0D02914D100F0B6
:100A900045F8002810D112E001791E290CD1688890
:100AA000002100F075F907E00179002904D10289DD
:100AB000C188688800F0A2F92846FFF7C5FA01202E
:100AC000C00325E0A0070DD50021084602F00CF96F
:100AD000002805D00121287BFFF7BCFA022017E08F
:100AE000022070BDE007FCD0E869808802F0ACFB12
:100AF00000280FD0A869002807D04368002B04D035
:100B0000E869002280880121984702F0DFF801207F
:100B1000604070BD012070BD2C4BFF1F7FB58278F7
:100B20006B4C921FA1691300FFF79AFA0AACD0D060
:100B3000631B06D0D05A75D00546002908D00E6830
:100B4000002E05D06B7B2A7B6989E81CB047BDE08D
:100B50006989606900F06EFD0028F8D0688901217C
:100B60008AE005464078002829D1A879C00726D018
:100B7000E069002823D10E2200216846FFF752FACF
:100B80006969002903D006226846103107E0A88869
:100B900004F0C8FF00283DD0811D06226846FFF7FB
:100BA00035FA69468889A9794907C90F0843694612
:100BB00088812946684602F097F8002809D0A06984
:100BC000002827D04368002B24D06A78A888012108
:100BD0004FE00221207BFFF73DFA002004B070BDFA
:100BE000002973D04B68002B70D042788088022196
:100BF0003FE00446C0780022211D00F06DF80A286D
:100C000064D20621484325302246C0B20C3204216A
:100C100005F054FA5AE005466079002802D0A88809
:100C2000A17929E020780028A88824D004F07AFF50
:100C30000646A87AC0070DD0002E47D0707900284C
:100C400008D0A989890505D46A46B11D00F044F889
:100C5000002814D02A467179A888083202F0E0F8FA
:100C6000A069002832D04368002B2FD00022A8882A
:100C7000114698472AE0052100F01CFE26E0A888CE
:100C80000321F9E700F0B6FC00281FD1A07A002666
:100C9000012805D00F4D0024285D012809D00CE063
:100CA00002F076F9A6720A2200210A48FFF7BAF983
:100CB00007E0204602F078F92E55641CE4B20A2CB5
:100CC000EAD3502005F0CCF902F030FA012085E794
:100CD0002C4BFF1F8072FF1FF0B50A2485B016460B
:100CE0000F46002807D0012805D00A25022810D079
:100CF000032847D11FE0084602F0C8F904460A2835
:100D000040D2002E3ED0062239463046FFF77EF90B
:100D100038E01E4F002400910E206043C0190622C7
:100D2000801D0099FFF778F9002823D1641CE4B2F4
:100D30000A2CF1D31CE0002420460621484323302E
:100D4000C0B26A46102105F08DF900280CD110229E
:100D5000FF216846FFF76CF9002805D1394668463F
:100D600000F026FD002805D0641CE4B20A2CE3D371
:100D70002C4607E00A2C05D2002E03D0314620462F
:100D800002F0AAF9204605B0F0BD0000F471FF1F83
:100D900070B50E4617491525884212D100243246F7
:100DA0000221204602F0C8F8002800D00025641C6B
:100DB000E4B20A2CF3D3002E1AD00F4804F012FF2D
:100DC00016E004F0AFFE040011D060790022A11DEE
:100DD000FFF782FF0A2804D23246022102F0ACF863
:100DE0000025002E04D0204602F0CEF900E01425A4
:100DF000284670BDFFFF000089310211F8B50F468B
:100E000013491525164688420DD10024324639462D
:100E1000204602F0C3F9002800D00025641CE4B28B
:100E20000A2CF3D312E004F07DFE00280DD04379A4
:100E3000811D00221846FFF74FFF0A2806D23246CE
:100E4000394602F0ABF9002500E014252846F8BD2C
:100E5000FFFF000070B50C460146032000020A1A8D
:100E6000002534481300FFF7FBF81D1012151C1F56
:100E70002326282C303234383A3C3E4042444648FF
:100E80004A4E50525A5456585A00C07911E0102216
:100E9000294902E02849102210312046FFF7B6F810
:100EA00045E0C06A206042E0224906223C31F4E776
:100EB000007820703BE0808936E01E49427842315C
:100EC000EBE71D4982781F39E7E7007AF1E7407ABE
:100ED000EFE7184906223031DFE7807AE9E7C07A88
:100EE000E7E7C08920E0808A1EE0C0781CE0C08A65
:100EF0001AE0008B18E0408B16E0808B14E00D495F
:100F000006223631C9E7C08B0EE0008C0CE0408C25
:100F10000AE08079CDE7008A06E0408A04E02729CC
:100F200004D2084600F0EAFA208000E002252846B4
:100F300070BD0000D44BFF1FBF72FF1F70B50E4C79
:100F400000256071A571691EE18100F02BFC042071
:100F5000E071102200210948FFF764F807481022C9
:100F600000211030FFF75EF8E562257265720120FE
:100F7000A072E57270BD0000D44BFF1FBF72FF1F4F
:100F8000FEB53B4D0C4608040CD56879FFF756F8C2
:100F9000050004D002F0B4FE2846FFF755F8012002
:100FA000C00360E0600403D5012080034840FEBD1B
:100FB0002F48E1070126807900292AD029780029C5
:100FC00020D0052821D0297A68460170697A4170BD
:100FD000274906223031801CFFF718F8A97A6846A5
:100FE0000172E97A41726946687900F0A3FA002833
:100FF00008D00720A871696A002903D00968002970
:1010000000D0884720467040FEBD03206946087026
:10101000E4E7A1070DD5052809D1E889FFF726F8EF
:10102000AA8A002A03D002216879FFF725F8022056
:1010300019E0600704D5002002F0BAFE042012E097
:10104000200712D52879012802D002280AD107E00A
:101050000096AB8B6A8B298BE88A00F00BF801E0D5
:1010600000F05AF908206040FEBD0020FEBD0000DF
:10107000D44BFF1FF8B5134C069EA579052D01D062
:101080001420F8BD104F851FBD4219D2062917D371
:10109000BD1DA94214D2FF27F537BA4210D20A2B40
:1010A0000ED3AB420CD2E08221836283A38330460D
:1010B00002F07EFE04216079FEF7E4FF0020F8BD17
:1010C0001820F8BDD44BFF1F7A0C0000F7B50D4671
:1010D00080490098164642187F4F00247879B979E4
:1010E0001300FEF7BDFF190E141BE920404559708F
:1010F000777E888FE996A2A9B4BFC8E9E9E9E9D368
:10110000E900102D76D11022314674486FE0102D81
:1011100070D1724810223146103068E0042D69D138
:101120003068F862CEE0012D64D13B7832783A70B5
:10113000002B0AD0002A07D1022903D0062901D0AA
:10114000042901D100F0B0F9BCE0002A0AD001293D
:1011500005D0032903D0052901D0042902D101219A
:10116000FEF778FFAEE0022D44D13088B881A9E0C7
:101170001F2D3FD858481F2200214230FEF752FF52
:1011800055482A4631464230FEF740FF524B7D70AB
:1011900042332A46012112E01F2D7CD84F481F22DE
:1011A00000211F38FEF73EFF4C482A4631461F38C3
:1011B000FEF72CFF494B2A461F3BBD700021787972
:1011C00000F0C8FB83E0012D65D13078042862D897
:1011D000387277E0012D5ED1307803285BD87872C1
:1011E00070E0062D57D13C48062231463030FEF7DC
:1011F0000DFF67E04FE0012D4DD1307807284AD828
:10120000B8725FE0012D46D13078032843D8F872D8
:1012100058E0022D3FD13288BA82002A52D00529E7
:1012200050D10221FEF728FF4CE0012D33D1307858
:10123000012830D8F87045E03088022D2BD10628DF
:1012400029D31921C901884225D8F8823AE030888B
:10125000022D20D106281ED31921C90188421AD88F
:1012600038832FE03088022D15D1FF21F5318842D7
:1012700011D2788326E03088022D0CD10A280AD3B7
:101280001921C901884206D8B8831BE03178012DA5
:1012900001D1012901D0182414E00821FEF7F8FE3D
:1012A000002801D016240DE0002002F081FD042169
:1012B0007879FEF7E7FE05E00098272801D2022D95
:1012C00002D002242046FEBD318800F0BDFA04465B
:1012D000F8E70000FFFCFFFFD44BFF1FBF72FF1FAA
:1012E0001CB50B4CA179002901D011201CBD002890
:1012F00000D06062064907482C31034601910090F6
:10130000103B0022E179607900F0AEF800201CBDAE
:10131000D44BFF1FCF72FF1F10B5064881790529F6
:1013200001D0122010BDC1891322407900F0D2FAF9
:1013300010BD0000D44BFF1FF8B50F4625490446E9
:101340000878022805D0012803D0082803D1002FEF
:1013500001D01220F8BD002C05D01F4DA868002830
:1013600003D01120F8BD0220F8BD208804F0DAFB7C
:1013700006002BD02C20FEF791FEA860002827D075
:101380002C220021FEF74EFEA868218841801C22F5
:10139000211D001DFEF73AFEAB68022018700D48B3
:1013A0000E49007822880007C00F09781B1D01F044
:1013B0009BFA0446002F03D03946304605F09AFACE
:1013C000002C01D001F0EEFF2046F8BD1420F8BD3E
:1013D0001320F8BDF34EFF1F544FFF1F814FFF1F17
:1013E000FFB5204D81B028781E461746022823D02D
:1013F000012821D0002F22D0019804F093FB040093
:101400001FD0606A002801D0FEF74EFE1C2138462E
:10141000FEF750FE6062010015D02878000714D551
:10142000002E12D0887E00900B4612330A8A019853
:1014300005F010FD014609E0122005B0F0BD0220C4
:10144000FBE71420F9E71320F7E7002120790422B5
:1014500010432071029A002A02D002221043207108
:101460000846EAE7F34EFF1FF8B51D460224069F23
:10147000079E0B00FEF7F4FD0D1508151508151550
:10148000151515151508150000F0B8F8040008D159
:1014900032463946284600F08FF900F0EFF801F0A7
:1014A00013FA2046F8BD000070B5104C21680029E1
:1014B00004D00978814203D0032070BD122070BD92
:1014C0000B4D02212878FEF7DDFD0A4800264680F4
:1014D00004212878FEF7D6FD0748068021680320FE
:1014E00048700020FEF7ECFD70BD0000504FFF1F5C
:1014F000814FFF1F644FFF1FF64EFF1F272803D2A7
:1015000002494000085A704701487047FE4EFF1FCD
:10151000FFFF000010B5064C607004F033FB6078EC
:10152000FEF7D4FD0521607801F056F810BD0000EB
:10153000804FFF1F70B5284E054630680C460028C6
:1015400001D0112070BD254801780520014216D038
:1015500023488068002805D00078002802D0C807FA
:1015600006D101E0102070BD00F044F8002808D03A
:101570002078032805D0022803D0002801D01220AB
:1015800070BD0C20FEF78AFD3060002820D0057069
:10159000002141700A222146801CFEF737FD02F02F
:1015A000EBFC040002D001F0F1FE12E00D480078DF
:1015B00003280ED11D20FFF7A1FF0B49002808804A
:1015C00007D00B48094A04210078FEF785FD00E0AA
:1015D0001324204670BD0000504FFF1FF34EFF1F25
:1015E000644FFF1FF44EFF1FF64EFF1F60EA00001E
:1015F000814FFF1F10B504F0E3FA10BD70B50C4623
:1016000005461C2200210948FEF70CFD084805701C
:101610004470FEF767FD0549002803D000200870DC
:10162000122070BD01220A7070BD0000247DFF1FD2
:10163000F24EFF1F7FB504460D46084604F072FACD
:10164000002805D00C48844204D9022004B070BDA3
:101650001220FBE7102200216846FEF7E3FC6846F3
:101660000470210A4170210C8170210EC17029463D
:1016700001F092F8EAE700003F420F0070B50F4C0E
:101680000025A068002802D0FEF70EFDA560E068E6
:10169000002802D0FEF708FDE56009480521007822
:1016A000084206D00548103002F02AFA01F0E4FAA8
:1016B00070BD002002F024FA002070BD644FFF1FAF
:1016C000F34EFF1FFEB5344D0C46080419D568785B
:1016D000FEF7B4FC0121C9034C40064600280ED099
:1016E00002F02EF9002807D12878FF2804D03146CF
:1016F000FEF7FEFC002802D03046FEF7A5FC20468F
:10170000FEBDE007012700280AD0A868002804D001
:101710004168002901D00020884720467840FEBD5E
:10172000A00709D56868002804D04168002901D0C5
:101730000120884702202AE060072AD5174E30880A
:1017400000281FD0401E0004000C30801ED101F084
:101750008DFE002809D0124807706868002804D060
:101760004168002901D00120884701F059FE6946EF
:1017700000F090FF684602F0CDF81D20FFF7BEFE96
:10178000308003E004216878FEF77CFC0420604090
:10179000FEBD0020FEBD0000804FFF1FF64EFF1F64
:1017A000F54EFF1F0149087070470000804FFF1F72
:1017B00010B501F063F810BD70B50E4C0B46261D38
:1017C00007C60546102200211846FEF731FC012805
:1017D00003D11021A06804F001FF10220021284647
:1017E000FEF726FC012803D11021606804F0F6FE04
:1017F00070BD0000247DFF1F38B505460F480C461C
:101800000078400701D4122038BD284604F08AF938
:10181000002810D00A480068002801D0817D00E02F
:101820002146684605F043FB064B6A4602212846DE
:1018300005F0D0FA38BD142038BD0000F34EFF1F6C
:101840005C4FFF1FB9730211272807D2044A914247
:1018500004D0044A40001152002070470220704713
:10186000FFFF0000FE4EFF1F70B50E4610491546E3
:101870000978022916D0012914D0002D14D004F0C3
:1018800051F9040012D0002E03D020790221084320
:10189000207110222946A018FEF7B8FB28692062A3
:1018A000002070BD122070BD022070BD142070BDDC
:1018B000F34EFF1F38B50C46054604F033F90028F7
:1018C00006D0684604706946284605F073FA38BDAC
:1018D000142038BDF8B50D4617461D4906461B4A6B
:1018E0001224C868954208D100282DD00268002A29
:1018F0002AD029463046904723E0144A521C95428C
:1019000013D1002807D00268002A04D029463046A7
:101910009047040005D03946304601F087F90400AD
:1019200012D10B48067047700EE0284604F0FAF812
:10193000002809D00078B04205D139462846FEF784
:10194000DDFB044600E003242046F8BDFEFF000056
:10195000544FFF1FF8B50E4601461948154600784A
:1019600005221F46104028D0304326D01548012EAE
:101970001BD0C468002C20D01F2D18D8002D01D0FA
:10198000002F14D001701F220021601CFEF74AFBBB
:101990002A463946601CFEF739FB28462570002E82
:1019A00007D0611CFEF7B0FBF8BD8468E2E70220B7
:1019B000F8BD611CFEF7AEFBF8BD1220F8BD0000BB
:1019C000F34EFF1F644FFF1F014610B50020C907EB
:1019D00004D0034A0421034800F0A8F910BD000018
:1019E000A0790211444CFF1F70B50E4D0F4CA8702A
:1019F0000D49204600F020F800210D480B46CA0092
:101A000084521218491CC9B253600829F7D3012027
:101A100003F094F9A87800F00FFC064804F0F8F8F9
:101A200070BD0000384CFF1FD07CFF1FFFFF00007F
:101A3000E072FF1F7145021170B50A4C0025A042EB
:101A400009D1002082008C525218401CC0B29570FF
:101A50000928F7D370BD02F05AFD0028FAD004809F
:101A6000857070BDFFFF0000F8B50E460746069969
:101A700000240798002902D00B242046F8BD022B31
:101A800001D00D24F9E711785278120289188DB22D
:101A90002946814301D08024EFE73846F16800F001
:101AA0003DF9A842E9D02A463846F16800F024FA08
:101AB0000400E2D171892A46384600F0BDF9DCE71E
:101AC00070B50C46080412D50A488078FEF7B6FABD
:101AD000050008D02878B02802D1284602F036FE4A
:101AE0002846FEF7B1FA0120C003604070BD002017
:101AF00070BD0000384CFF1FFFB587B0087A002585
:101B0000109E1C460F46C0060DD5099802F0F8FC41
:101B1000030006D00A22394607989847050035D1B8
:101B200001E00E2532E0387802281DD1786829229C
:101B30000178407812020002081880B2811A90429F
:101B40007ED009DC7249401A23D0012821D0022816
:101B500051D0032808D125E0012972D0022971D083
:101B600003296DD004296ED0099802F0F1FC0028F9
:101B7000D7D00568002DD4D012991198019100900A
:101B80003346224639460798A847054628460BB0F3
:101B9000F0BD1198002873D1F8680178317002788F
:101BA000416897E0119800286AD101203070F868E8
:101BB0000021007820707889401C80B200F00CFA77
:101BC00000280FD0317802788918891C3170817A09
:101BD00061704189090AA17002784168E01CFEF732
:101BE00015FAD3E730780422001D30700021601C04
:101BF000FEF718FACAE71198002872D1F86804A90C
:101C00000088009004203070009820700098000A2E
:101C10006070009800F0E0F9070028D0F86805909F
:101C20006846028A03AB3B49384600F02DFA00288B
:101C30000FD13B78022138487A68FEF740FC03E078
:101C400027E031E01DE049E0002802D13148694633
:101C500088810598007802280CD1059802224168F5
:101C6000201DFEF7D3F93078801C307002E0694601
:101C70000098888168468089A070000AE07085E736
:101C80002FE0119800282CD1F968079800F046F849
:101C900004E01198002824D1F868008802213170EE
:101CA0002070000A607071E7F868FEF739FA119940
:101CB000C0B2814210D8814201D1002206E0129ABE
:101CC0008918814202D31199401AC2B23270F96860
:101CD00011980918204682E7072557E71198002830
:101CE00001D00B2552E70721F86831700178217087
:101CF000417861708178A1704188090AE1700179A9
:101D0000217181796171C088000AA0713EE70000ED
:101D100000280000FFFF0000BE7A021110B502F09B
:101D2000F6FB002800D0807810BD0000FEB51546F7
:101D30000F46060021D068460196078000F082FA1F
:101D4000044614480078002803D13946304600F094
:101D500025F8002C1CD1002D1AD07689002E0CD02D
:101D60000C20FEF79BF9002809D0046086800A4AFF
:101D700085605168002904D006E0022408E013249D
:101D800006E0506004E011460A68002AFBD10860B2
:101D90002046FEBDB24FFF1F384CFF1FF0B5426812
:101DA00000241378002B3CD15278282A39D1C268FC
:101DB000032513782D03022B02D0102B06D030E020
:101DC00053685A781B7812021A4304E05268937BD6
:101DD000567B1A023243AA4223D90122144D24E031
:101DE0001301C65C022E1ED11B185E689C467378D8
:101DF00036781B0233436E782F7836023E439E427C
:101E000011D16346DB681B78DB060CD5521C92B2FD
:101E10008A4206D2110108184189064841800121F1
:101E200001702046F0BD521C92B28A42D8D3F8E726
:101E3000C27A0211B24FFF1FF8B50C4C074620784A
:101E400015460E46FF280FD00A20FEF76FF9010055
:101E50000AD0B12008700020487008714F80CE80F1
:101E60000D812078FEF744F9F8BD0000384CFF1FC3
:101E700070B50C4605460649FFF750FF800704D5AC
:101E80002146284600F032FA70BD012070BD0000E6
:101E9000D07CFF1F1CB56B461A71120A5A710022C2
:101EA0000092022301AA00F001F81CBDFFB583B027
:101EB00008461E4601A90C9F00F08EF8050019D0B7
:101EC0006846808802F044FB002811D04468002C4A
:101ED0000ED00097F3B22946059A039800F022F835
:101EE0000097F3B22946059A0398A04707B0F0BDC2
:101EF0000E20FBE70120F9E770B514460E460546B3
:101F000002F005FB002806D13146054802F0FFFA31
:101F1000002803D005808470002070BD112070BDA2
:101F2000FFFF000070B51546BEB01278002642983B
:101F30001C467B2A02D16A78102A02D000203EB0CB
:101F400070BD0A7A920601D50820F8E70B780322C3
:101F500012034968022B09D04B7B897B090259186F
:101F600089B291421FD9002815D01CE00B7849781E
:101F70000902591889B2914215D9002813D1002CB1
:101F800011D0224629466846FEF740F821466846A9
:101F900004F0FCF807E0002C05D0F122002168468F
:101FA000FEF740F8EDE73046C9E710B50178B029F3
:101FB0000BD14178002908D10179122906D01B29BB
:101FC00003D14088012100F08FFA10BDFF210131BB
:101FD000095C0129F5D010BDF0B58C4610494B685D
:101FE00019E09F687C89A04214D39E8831198142F0
:101FF00010D900220CE011017D186989814205D1B8
:102000006046002800D004802846F0BD521C92B2E1
:102010009642F0D81B68002BE3D10020F0BD0000F1
:102020008C4FFF1FFFB5174881B00A9F446824E01A
:1020300000251EE0A0682901461870890199884290
:1020400015D30299884212D80498002807D0317815
:102050007068049B039AFEF732FA002807D0002F1D
:1020600002D0A06840893880304605B0F0BD6D1CB4
:10207000ADB2A088A842DDD82468002CD8D10020B9
:10208000F3E700008C4FFF1FFEB5174600256A4698
:102090009580044640891D4A1E46904208D001AAF8
:1020A0000092401C237880B26268FFF7BBFF0546B0
:1020B0002378022116486268FEF701FA002807D14A
:1020C0002378022113486268FEF7F9F9002801D04D
:1020D00060890EE0237802210F486268FEF7EFF96D
:1020E00000280DD0002D03D068468088B84203D068
:1020F000384602F035FF04E06889401E80B200E0F7
:102100006089002E00D030802846FEBDFFFF000011
:10211000BC7A0211BE7A0211C27A0211FFB581B0F7
:102120000F461E4614466946019802F037F805002E
:1021300018D1002C06D001221021019803F0CCFC0C
:1021400005000FD139460198FEF74EFA050009D176
:10215000009CFF2E06D021461E22A31C034802F03D
:102160000BFFE670284605B0F0BD0000654E021179
:1021700010B505490870042100F02EFA00F006F8A9
:10218000FEF746FA10BD0000944FFF1F70B50E4CCD
:1021900000200C4B651CFF228100C91800280ED0BE
:1021A0000D80401CCA70C0B28A700928F4D3074859
:1021B00002F098F9064803F02BFD002070BD0C805A
:1021C000EFE70000407DFF1FFEFF0000914E02116F
:1021D000E54D0211F8B50D4614460646694601F074
:1021E000DDFF17280CD0002C06D00122102130462C
:1021F00003F072FC002803D129463046FEF7FEF9B1
:10220000F8BD000070B50C46080411D509480078E7
:10221000FDF714FF050007D00178A02901D102F0D5
:1022200005F92846FDF710FF0120C003604070BD8E
:10223000002070BD944FFF1F0149087070470000D7
:102240008C4FFF1F70B50546008800281DD06868B8
:102250000221037842682248FEF731F9002808D1AC
:1022600068680221037842681E48FEF728F90028B2
:102270000BD01D4C6088002805D00122298812044B
:10228000101A814203D9012070BD022070BD0C20BC
:10229000FDF704FF060001D000200AE0132070BD06
:1022A00002016B6861880A329952491C401C6180A6
:1022B00080B229888142F3D8002030600822294664
:1022C000301DFDF7A3FE6068002802D1666004E0BF
:1022D000084601680029FBD10660002070BD00009F
:1022E000BC7A0211BE7A02118C4FFF1F70B5BEB0CE
:1022F0000D460646002402230E4A0F490120009491
:10230000FFF790FE002812D040896A461080042012
:1023100090700120D0701471FF20507190712B4685
:10232000002269463046FFF7F9FE3EB070BD01203D
:10233000FBE70000DA7A0211FFFF00000649496856
:1023400006E08A685289824201D18888704709680C
:102350000029F6D1002070478C4FFF1F10B51422C2
:10236000114201D0012202E04A0604D500221021C8
:1023700003F0B2FB10BDC80701D0002010BD022041
:1023800010BD10B514468A0604D50122102103F0B1
:10239000A3FB10BD882211420ED008220A40102152
:1023A00003F09AFB00280BD0E034217E0029F0D006
:1023B000E17D0129EDD103E0880701D4032010BDA0
:1023C000002010BD014610B50020C90704D0034A03
:1023D00007210348FFF7AAFC10BD00008C79021109
:1023E000604BFF1F70B50D46164600241D490300C3
:1023F000FDF736FE08051234341934222934152D20
:1024000023D8162200211848FDF70CFE2A46314633
:102410001548FDF7FBFD22E0022D16D11149108869
:10242000103908801BE0082D0FD10E4808223146D4
:102430000838FDF781FE12E0012D06D1CA6909496D
:102440003078283107E0012D01D0182407E0CA6B4D
:1024500004493078483102F052FE00E00224204660
:1024600070BD0000604BFF1F8A72FF1F0B78037066
:102470000B8802221B0A43700B88801C012B02D0A0
:10248000022B07D011E08A7802704988090A41704E
:1024900004220AE08A7802704A88120A42700A7995
:1024A00082708988090AC1700622104670470000B0
:1024B00008B5044B009313460A46012103F05EFA67
:1024C00008BD00006D2402111CB503230192009386
:1024D0000A46024B122103F081FA1CBDA1520211DF
:1024E00010B5FDF72FFE10BD13B504480078012884
:1024F00003D101AA6946FDF72BFE1CBDA04FFF1FAB
:1025000070B50F490F4A087000210B468C00491C1A
:10251000C9B213530429F9D30A4C00211034FF2601
:102520000A460A256A4315196B80491CA354C9B28F
:102530006E720329F4D3FDF711FE03F0EDF970BDBF
:10254000A14FFF1F647DFF1F082A01D001207047A3
:102550004B780A781B02D2180280CB788A781B024B
:10256000D21842804B790A791B02D21882808A796C
:10257000C97909025118C1800020704770B50C4616
:10258000080411D509480078FDF758FD050007D06B
:102590000178902901D103F021F92846FDF754FD77
:1025A0000120C003604070BD002070BDA14FFF1F1F
:1025B00070B508280CD201010648002444520D18B9
:1025C000AC81AC80A868002802D0FDF7CDFDAC60DE
:1025D00070BD0000047FFF1F072907D0052905D023
:1025E000042903D0062901D002207047044A8B0039
:1025F0009A181346403B1986203A90740020704781
:10260000647DFF1F70B508281BD25C2148430D492B
:1026100000244618354640352C746C742C76706D49
:10262000002802D0FDF7A0FD74650024E0003018FA
:102630004068002801D0FDF797FD641CE4B20A2C25
:10264000F4D370BD847FFF1F70B50A880C46054621
:10265000072A07D0052A05D0042A03D0062A01D06C
:10266000022070BD012103F001FB002804D02146A7
:10267000284602F02BFE70BD142070BD10B5001D61
:1026800080B2FDF777FD002803D00321C943FDF791
:1026900077FD10BD38B50C46050014D0002C12D0C3
:1026A0000321684603F09AFF694688784021800636
:1026B000800E0843694688702246284604F0B7FC1D
:1026C000050002D006E0022038BD03226946E01C66
:1026D000FDF79CFC284638BDF7B58EB00E98154620
:1026E0000E4600282DD0002D2BD0301DC0B20190F9
:1026F000FDF7D4FC040039D000F09EFE07463246B8
:10270000201D0E99FDF742FDF8B20890E0703804E4
:10271000000E0B90A0703802000E0A9060703F0E01
:10272000277000F083FE0146102202A8FDF72EFD5F
:1027300006AB214602A8019A04F0CFFB060003D0A5
:1027400010E0022011B0F0BD089828700B98687056
:102750000A98A870EF70082206A9281DFDF716FD3B
:1027600000F070FE2046FDF79FFC00E01326304687
:10277000E8E7000010B5064C2070FDF70DFD0621BE
:102780002078FFF729FF034803F042FA10BD00004C
:10279000B04FFF1F3166021170B51F4D0346286808
:1027A00000240A46002807D02421095C022905D00C
:1027B000032903D0042901D0122070BD81889142E1
:1027C00001D0022070BD102219460C30FDF71EFC0E
:1027D00028681021353003F001FF2A6811461046A1
:1027E00035310C30253204F045FC2868022102788E
:1027F000002A427806D0032A0AD1417003F0BAFEBB
:10280000044605E0042A02D0032A03D000E0417008
:10281000204670BD0521F0E7C04FFF1F70B50C4684
:10282000080418D513480078FDF708FC05000FD000
:1028300004F016F8002808D10F480078FF2804D0CB
:102840002946FDF755FC002802D02846FDF7FCFB81
:102850000120C0030AE0E00703D004F023FB0120BD
:1028600004E0A00704D503F0F3FE0220604070BD31
:10287000002070BDB04FFF1F804FFF1F7CB50C467E
:1028800005001DD0002C1BD00322E11C6846FDF77B
:10289000BDFB6946887840218006800E0843694662
:1028A000887001AA284604F0C2FB002807D1032241
:1028B000214601A8FDF7B0FB012803D001207CBD13
:1028C00002207CBD00207CBD10B505480078400783
:1028D00001D5044800E0002004F076F8002010BD87
:1028E000F34EFF1FA44FFF1FFFB5204C0746206883
:1028F000002681B01D46002802D0112005B0F0BD91
:10290000002D0BD02120FEF7F9FD297E884205D845
:102910002220FEF7F3FD297E884201D20220EDE756
:102920007820FDF7BBFB206000281DD07822002115
:10293000FDF778FB2068002141700770029A8270D1
:10294000039A82808560016220300171002F02D0DD
:1029500003F026FE064601202168002E487001D0B3
:1029600003F0DCFD3046C9E71320C7E7C04FFF1F67
:10297000FFB58DB00F98169C0E46002815D0002C80
:1029800013D00D9803F0CEF8050011D061782078AF
:1029900009024018A178E27809041206891847183C
:1029A000286AB84206D3401C04D0022011B0F0BD02
:1029B0001420FBE7002E04D02879800701D40120E1
:1029C000F4E70822002106A8FDF72CFB1098001D53
:1029D000C0B20190FDF762FB060017D0301D109ABF
:1029E0000F99FDF7D3FB042221463046FDF7CEFBBD
:1029F0001022A91802A8FDF7C9FB06AB314602A8B0
:102A0000019A04F06AFA050002D013E01320CDE722
:102A1000082206A908A8FDF7B9FB0822211D08A86D
:102A2000FDF7FAFA012801D0012503E039460D9897
:102A300001F0FCFA3046FDF737FB2846B6E70A46B8
:102A400010B501460020FDF7ADFB10BDFFB583B00A
:102A50000F4603981B4940001646085AFFF70EFE22
:102A600004002AD00125601C2670002F03D006998F
:102A7000B847401C85B2300610D51021039803F0EA
:102A8000F5F8002801D0192613E06219E9B22046B2
:102A9000FFF722FE06000CD10C35ADB204216846CA
:102AA00001800194058169460398FFF7CDFD06007A
:102AB00004D02046FDF758FB00E01326304607B04F
:102AC000F0BD0000147DFF1F0FB410B503AA044829
:102AD000029903F0DDF810BC08BC04B018470000F0
:102AE0003F2A021138B5034B00240FCB0094FDF7A9
:102AF0005FFB38BD74790211F8B5496894460A78CD
:102B00004978069C090251188EB2444A11210025C9
:102B10000798B71A091B964243D009DC404AB218FD
:102B200013D0012A1CD0022A25D0032A08D12EE076
:102B3000012F40D0022F48D0032F50D0292F5AD038
:102B4000002018700A252846F8BD082C55D2082107
:102B5000091B814200D80846C2B21A70314857E0BA
:102B60000C2C4AD20C21091B814200D80846C2B263
:102B70001A702D484CE00D2C3FD20D21091B8142CB
:102B800000D80846C2B228481A700D3040E0112C17
:102B900033D2814200D80846C2B223481A701B3093
:102BA00036E0112C29D2814200D80846C2B21E4814
:102BB0001A702D302CE0112C1FD2814200D808460B
:102BC000C2B219481A703F3022E0112C15D281424E
:102BD00000D80846C2B214481A70513018E00E2CC2
:102BE0000BD20E21091B814200D80846C2B20E4802
:102BF0001A7063300CE0072C01D30725A3E70721E7
:102C0000091B814200D80846C2B206481A70C01F8C
:102C100001196046FDF7FAF995E70000272A000040
:102C2000DDD5FFFF8F4CFF1FC879021110B50C4690
:102C300002F08CFF002804D040882146FDF75EFAA0
:102C400010BD122010BD0022002913D0002811D081
:102C5000012806D04A799206920E4A71032805D0BF
:102C600007E04879C0221043487102E04020024347
:102C70004A7101221046704770B51248002500784D
:102C8000052108421BD02020FDF708FA0E4C002831
:102C9000A06013D020220021FDF7C4F92020FDF709
:102CA000FDF9E060002804D020220021FDF7BAF9E8
:102CB00005E0A068FDF7F8F90020A060132528467C
:102CC00070BD0000F34EFF1F644FFF1F10B5054C91
:102CD000E069002803D0FDF7B7F90020E0610A2081
:102CE000E07210BD2C4BFF1FF3B54B4C4B4FE0690E
:102CF00085B00E46002819D1059800287ED0002EF8
:102D00007CD000F0C3F9E0720A2812D300250E200F
:102D10006843C0190622FF21FDF78AF9002804D173
:102D20006D1CEDB20A2DF2D30A25E572E07A0A286D
:102D300070D2E06900280ED082680025002A29D0D0
:102D4000E07A062148432130C0B21C2103F0B6F9D5
:102D5000E069856054E0E07A062148432030C0B243
:102D60000E21059A03F0AAF91022FF216846FDF70B
:102D700059F9E07A6A467030C0B2102103F09EF92A
:102D8000E07A0E2148430A46C0190599FDF73EF93D
:102D9000E66135E00269002A0AD0E07A062148435C
:102DA0002230C0B21C2103F089F9E069056127E0F7
:102DB0004269002A0AD0E07A062148432330C0B293
:102DC000102103F07BF9E069456119E0C268002A2F
:102DD00019D0E07A062148432430C0B2102103F014
:102DE0006DF9E0690621C268E07A10324843253067
:102DF000C0B2042103F062F9E06900E00AE0C560B6
:102E0000002007B0F0BD607A002801D000F060FA21
:102E100000F078FA0120F4E72C4BFF1FF471FF1F3C
:102E2000F0B589B017460E460446202200216846B8
:102E3000FDF7F8F8684604802E4C0225A178017150
:102E4000E2784271217A017706984108E0794900D9
:102E5000C307DB0F1943069181070029069901DAA0
:102E6000294300E0A94306910107234B069901D5A8
:102E7000194300E099430691C106204B069901D5FC
:102E8000194300E09943069181061D4B069901D52F
:102E9000194300E099430691400704210028069851
:102EA00001DA084300E088430690002A05D001A813
:102EB000102214490230FDF7A9F82079002804D027
:102EC000002E02D00699294306916946897D002883
:102ED00000D001200143684681756078002800D049
:102EE00004200143684681753946FEF725FA09B08A
:102EF000F0BD00002C4BFF1F00010000000200008D
:102F000000040000E471FF1F70B50025094E2C4637
:102F10000E20604380190622FF21FDF789F8002862
:102F200001D16D1CEDB2641CE4B20A2CF0D328462A
:102F300070BD0000F471FF1F7FB50C4606214843A9
:102F4000064615462036F0B26A460E2103F08AF88E
:102F5000002806D10622FF216846FDF769F80028FF
:102F600002D0002004B070BD68468189002DC8B22F
:102F700002D02043C0B200E0A043814206D069469F
:102F80008881F0B26A460E2103F098F80120E9E743
:102F900010B50024204600F007F8641CE4B20A2CA7
:102FA00001D20028F6D010BDF0B5374C0546E07AC6
:102FB0008FB0854209D10121207BFDF7FFF8022166
:102FC000207BFDF7FBF8FFF781FE2C4606204443EB
:102FD00026462036F0B207AA0E2103F043F8002857
:102FE00006D10622FF2107A8FDF722F8002803D00A
:102FF000002108460FB0F0BD0E22FF2107A8FDF703
:1030000011F81C22FF216846FDF70CF81022FF2161
:103010000BA8FDF707F8F0B207AA0E2103F04EF84F
:10302000064620462130C0B26A461C2103F046F80D
:103030003043074620462230C0B26A461C2103F0C6
:103040003DF80646204623303E43C0B26A46102172
:1030500003F034F8064320462430C0B26A461021FB
:1030600003F02CF806432534E0B26A46042103F04D
:1030700025F8304304467035E8B20BAA102103F05E
:103080001DF801462143B4E72C4BFF1F70B50A4DD4
:10309000064600240E206043401906223146FCF704
:1030A000BBFF002801D0204670BD641CE4B20A2C8E
:1030B000F0D30A2070BD0000F471FF1F00229300BE
:1030C000CB5A834202D1900040187047521CD2B2B2
:1030D000042AF4D3002070477FB50C460A280CD28E
:1030E000002C0AD0062148432030C0B26A460E2187
:1030F00002F0B8FF050003D007E0022004B070BD65
:10310000062269462046FCF781FF2846F6E70021A3
:103110008A00835A491CDB43835212189378C9B240
:10312000DB4393700429F3D37047000070B5144E4D
:1031300000240E2060438219204606214843203097
:103140001546C0B20E2102F08DFF00280BD0284694
:103150000622FF21FCF766FFA81D0622FF21FCF7CF
:1031600061FF0020A881641CE4B20A2CE1D3054869
:10317000407A002801D000F0ABF800F0C3F870BD31
:10318000F471FF1F2C4BFF1F10B503494088097BCA
:10319000FEF76EFE10BD00002C4BFF1F70B50E46F3
:1031A00004460621484388B015462030C0B204AA20
:1031B0000E2102F057FF002843D10622FF2104A868
:1031C000FCF736FF00283CD17034E0B26A4610218B
:1031D00002F048FF002831D16846FFF798FF002E23
:1031E00006D069463046FFF769FF00280DD015E08C
:1031F000102200216846FCF71BFF00281ED1102278
:1032000000216846FCF70EFF10E0002D19D069463A
:103210000020FFF753FF002813D006808178A942D1
:103220000CD08570002D01D1002101806846FFF788
:103230006EFFE0B26A46102102F040FF012008B0A4
:1032400070BD0020FBE7000070B51E4C0646206AEA
:103250001D4D86B000280BD120461030009002236F
:103260001A4A29460120FEF7DDFE2062002826D0FA
:1032700004A80222002100900292019103AB228A4D
:103280003046216AFEF738FC00280CD16846017BE5
:10329000407B000208180204120C04D0206A418905
:1032A0003046FDF7ABFD0023228A2946206AFEF74F
:1032B000EBFE2062002802D0002006B070BD012085
:1032C000FBE700002C4BFF1FFFFF0000C87A021134
:1032D00070B5FCF779FF0A4E00240E206043801978
:1032E00005460622FF21FCF7A3FE002802D129464D
:1032F000FCF770FF641CE4B20A2CEED370BD000032
:10330000F471FF1F08B5FFF7FFFD012801D9022066
:1033100000E00A20694608706A4601210520FFF78F
:1033200061F808BD002909D0012807D14979890928
:103330008901C02902D0402901D002207047032012
:103340007047FFB500200E4608701AE01C5C401C58
:10335000C5B2002C17D02819904214D85F5D6D1C9F
:10336000EDB2384600F08BFE002806D0641EE0B2B5
:10337000307000998F4202D1581904B0F0BD401945
:10338000C0B29042E2D30020F7E7000010B5044C31
:103390002068002803D0FCF787FE0020206010BDC5
:1033A000504FFF1F10B50D4CA068002815D0006AC3
:1033B000002801D0FCF778FEA068406A002801D000
:1033C000FCF772FEA068806A002801D0FCF76CFE52
:1033D000A068FCF769FE0020A06010BD544FFF1FDD
:1033E00010B5044C6068002803D0FCF75DFE002097
:1033F000606010BD544FFF1F0100044805D104490F
:103400008978002901D00248801D7047347DFF1F54
:10341000F24EFF1F0148807870470000F24EFF1FF8
:103420000148406870470000247DFF1F0148806804
:1034300070470000247DFF1F0148C0680068704786
:10344000247DFF1F10B50748C0680168491C016052
:1034500005480078FF2803D001218903FCF7FAFD15
:1034600010BD0000247DFF1FF24EFF1F0248406880
:10347000002800D0012070474C4FFF1FFFB581B0DE
:103480000B9F0D9E0A9D039802F04CFB040042D056
:10349000019800283FD12079102108432071049918
:1034A000490702D50221084301E0FD2108402071AF
:1034B00028460C99384308433043207902D0042130
:1034C000084301E0FB2108402071002E06D030693E
:1034D000102220623146A018FCF798FD002D02D082
:1034E0000298002805D0002F15D00298012808D096
:1034F00011E0606A002801D0FCF7D6FD1C212846A7
:1035000006E0606A002801D0FCF7CEFD1C21384699
:10351000FCF7D0FD6062224CA06800283ED0002D50
:103520000FD0006A002806D11C20FCF7B7FDA16867
:103530000028086205D0A0681C22006A2946FCF712
:1035400065FD0C98002810D0A068406A002806D1BC
:103550001620FCF7A3FDA1680028486205D0A068EA
:103560001622406A0C99FCF751FD002E10D0A0687D
:10357000806A002806D11420FCF790FDA16800287D
:10358000886205D0A0681422806A3146FCF73EFDAF
:103590003B46049A0399019802F0C2FE05B0F0BDC3
:1035A000544FFF1FF3B581B0019802F0BBFA05003C
:1035B00029D00E20FCF7BAFD040024D02620FDF708
:1035C0009DFF060000D12E78D02020700027677064
:1035D0000B20A0700622A91DE01CFCF717FD019826
:1035E00060810298C1070120002901D0207300E00A
:1035F00027730299890701D5607300E06773F0B201
:103600002146FCF775FDFEBD10B581881F4B0124D6
:10361000CA1A994237D011DC1D4BCA1A994219D0E7
:1036200007DC1C4A8A1810D0022A1ED0032A29D18E
:103630001BE0472A27D0482A24D124E01300FCF7B6
:103640000FFD06212222222222218068007800F02C
:10365000D7FC08E08068827841781202891889B224
:10366000007800F02DFD04460DE0094A921E9142BB
:1036700001D1012200E0002280680178104600F0AC
:1036800007FD00E00024204610BD0000532000008C
:103690000A200000FADFFFFF70B51A4D1A4A0146F2
:1036A000002628781268194C01290CD0002A09D06C
:1036B00017490978490705D50221FCF7E3FC668024
:1036C000FFF764FE70BD6188002903D0114B1B78A1
:1036D000002B05D0002AF5D01078FDF7E5FE70BD6F
:1036E0003C2902D33C39618070BD0221FCF7CAFC41
:1036F00062887D20C000424302212878FCF7BCFC90
:10370000668070BD814FFF1F504FFF1F644FFF1F2A
:10371000F34EFF1FF54EFF1F08B541890091038945
:10372000C2888188C07800F0B7FB08BDF0B587B0CB
:10373000040053D02A4D6868002823D00678294811
:103740000068002804D04168002901D00020884783
:103750002146E07908310591FFF7E4FDE07102466A
:10376000277D638A218AE089019002A88AC0A08807
:103770000090E0783146059B02F03EFEE07800289C
:1037800002D00CE01848D9E7E18905980090019132
:10379000E379A1880122304602F074F9E07068688C
:1037A000002811D0FFF71CFE287800280CD069787B
:1037B000FFF73CFA002807D0E078A2880346297872
:1037C00002F047FE00202870A0881721FDF786F838
:1037D000A088FEF7EDFEA088FEF714FF07B0F0BD4D
:1037E000544FFF1F844FFF1FF24EFF1F70B504465A
:1037F0000025808802F096F9002803D00578A0887B
:1038000002F018FA124E3078002808D0854206D10E
:103810007178FFF70BFA002809D000203070002DD6
:1038200005D0A379A288A078294602F012FEB068DC
:10383000002801D0FFF7B6FDA0881721FDF74EF84C
:10384000A088FEF7B5FEA088FEF7DCFE70BD000084
:10385000544FFF1F70B58288294D0124531B2949FD
:10386000AA4242D019DC284D531BAA4218D00BDCC7
:10387000264BD21826D0254B1033D2181ED0032A3F
:1038800017D0042A39D10BE0012B09D0022B07D025
:10389000032B21D0042B30D11AE0433B072B2CD82B
:1038A000496800292AD00968002927D0884704469A
:1038B00024E08068007800F0ADF81FE0806800F038
:1038C00001F9F4E78068411C007800F0D9F8EEE7D0
:1038D00083681B78002B11D0896800290ED00B68F3
:1038E00008E0014610469847E1E7094909680029C0
:1038F00004D04B68002BF4D100E00024204670BDBA
:103900000E200000804FFF1F08200000F7EFFFFF90
:10391000604FFF1F10B5094CA17800290CD001465B
:103920000622A01DFCF772FBA11DA078FFF78BF902
:10393000A01DFCF755FC10BD002010BDF24EFF1F6E
:103940001CB52F49037801240A68912B02D0A22BC1
:103950002ED13EE04178052909D00E2904D00F2947
:1039600008D03E2924D115E0FFF774FF10E0FFF7DF
:103970003DFF42E001468088224B0124C31801D05C
:10398000062B15D1002A38D05268002A35D090472E
:10399000044632E081780124032917D004DC012990
:1039A00011D0022904D105E0152926D0162924D0EA
:1039B000002422E01449896800291ED049680029A2
:1039C0001BD0884719E0FFF7B1FE16E0FFF7A4FE11
:1039D00013E00E490978490707D500216A4611808E
:1039E00001794088FEF764FD07E0002A05D052689F
:1039F000002A02D001460648904720461CBD000020
:103A0000604FFF1FF3DFFFFF804FFF1FF34EFF1FCD
:103A1000FFFF0000F8B5164F0646BD1F2878FF28A7
:103A200014D00A20FCF782FB04000FD0D0202070B5
:103A300066700820A070A878E07006223946201D24
:103A4000FCF7E4FA21462878FCF752FBE8780128D5
:103A50000DD108480068002803D08068002800D0F5
:103A600080470648044A04210078FCF735FBF8BD7E
:103A7000F84EFF1F844FFF1F60EA0000814FFF1FB9
:103A800070B500240546002805D1002903D0062280
:103A90000B48FCF7BBFA0A4810380178012907D116
:103AA0000124002D06D000210170284600F0D0F935
:103AB000204670BD02210170FCF798FBF8E700007A
:103AC000347DFF1F10B50024002813D002780B4965
:103AD000002A03D14288CA8202790A760A78022A29
:103AE00008D102780124002A06D000220A7000784A
:103AF00000F0AEF9204610BD0322F7E7247DFF1F3A
:103B00000149486070470000804FFF1FF8B57A4CAC
:103B100087780146002507266079A2793B00FCF7EB
:103B20009FFA0805361A37375F9ACD36487800284D
:103B30005CD1714806223C30C91CFCF767FA0120B1
:103B4000A0716D4B0146423362786079FDF702FF48
:103B500000284BD1A8E00F464978002946D1F978D2
:103B6000002906D0654BA2780021FDF7F3FE78709E
:103B70000AE0022A0BD00121FCF78AFA002803D1BF
:103B800001216079FCF766FA787800282ED1F8BD1B
:103B9000497800292AD1032F09D0A289002A0CD004
:103BA000217800290AD00121FCF766FA06E0052AEF
:103BB00001D0022012E0062010E02570A07906282E
:103BC00002D0042802D008E0052007E00120207080
:103BD00001466079FCF73EFA66E00320A07163E0DD
:103BE00048780F46002803D0312832D0A6715BE018
:103BF00041480622391D3630FCF708FA7889E08101
:103C0000B8892082F88960820520A071A28A002AE2
:103C100003D002216079FCF72FFAB889E083F88994
:103C20002084388A6084E07801280AD11F20FDF7BB
:103C300065FC7D21C9004843024604216079FCF7F8
:103C40001BFA7A89F8780423391DFCF76FFE25707A
:103C50002AE02570C1E728480E46062200213630AA
:103C6000FCF7E0F9E5832584658404216079FCF79D
:103C700009FA08216079FCF705FAB079082808D01C
:103C80000320A0712078002805D06079FDF70CFC96
:103C900007E00420F5E70120207001466079FCF779
:103CA000D9F90020C043E081606A002800D16EE7A6
:103CB00001680029FBD0A0798847F8BD0D4608218E
:103CC000FCF7E0F9687829460028F6D1E888E08317
:103CD000288920844889608404216079FCF7D8F918
:103CE0000028EAD1A06A0028E7D00368628C218C02
:103CF000E08B9847F8BD0000D44BFF1FA072FF1F58
:103D000010B50178224C912906D0A22926D0D029BD
:103D100001D1FFF7FBFE10BD41780E29FBD1818850
:103D20001C4A91420FD1816803200856A1790529C8
:103D3000F1D17F28EFD0616A0029ECD049680029D1
:103D4000E9D0884710BD144A9142FBD1806883783E
:103D50004278017811A0FEF7B7FE10BD4179132912
:103D6000FBD10089012802D12079022808D0052042
:103D7000FDF7C4FB024608216079FCF77DF910BD10
:103D800008216079FCF77EF9FDF7C6FA10BD000046
:103D9000D44BFF1F05140000222000005B4843495C
:103DA00020444C455D25642025642025640A0000DC
:103DB0007CB5154C0546E08BE18A88420AD3218BFD
:103DC000884207D8208C618B884203D1608CA18BFC
:103DD000884217D00520FDF791FB0646E18A684628
:103DE0000180218B4180618B8180A18BC1806279B0
:103DF0006946E089FEF768FB257132460821607943
:103E0000FCF73AF97CBD0000D44BFF1FF8B507461C
:103E10000E46084601F086FE040018D02620FDF765
:103E20006DFB050000D125780620FCF77FF9040022
:103E30000DD006220021FCF7F5F8D0202070677025
:103E40000E20A070A680E8B22146FCF751F9F8BD1B
:103E500070B50F4D06462878FF2818D00E20FCF7C5
:103E600065F9040013D0D020207066700020A07087
:103E700006220849E01CFCF7C9F806481038C18A38
:103E80006181007E207321462878FCF731F970BDEE
:103E9000F24EFF1F347DFF1FFFB581B01E4617464F
:103EA0000D460C20FCF742F9040013D0284601F01F
:103EB00039FE002810D00078D0212170019961705E
:103EC0000721A170A580E78026810A99618121469A
:103ED000FCF70EF905B0F0BD0048ECE7F24EFF1F0D
:103EE00070B50D4D044628680E46002812D00620F5
:103EF000FCF71CF9010009D0D02008704C70032099
:103F000088708E8028680078FCF7F2F8002C01D0C9
:103F1000FFF73CFA70BD0000504FFF1FFFB581B0A6
:103F20001F460E46084601F0FDFD050022D0102078
:103F3000FCF7FCF804001DD010220021FCF772F8F9
:103F40002620FDF7DBFA002800D12878D021217047
:103F5000019961700F21A170A68003992172677287
:103F60000A99A1720B99E1720C99E160C0B22146E5
:103F7000FCF7BEF805B0F0BDF0B51F4D85B0286860
:103F8000002837D08778FDF735FB002805D00A20B8
:103F9000FDF7B4FA04900B200EE001F04FF9002871
:103FA00005D00620FDF7AAFA0490072004E00820B7
:103FB000FDF7A4FA04900920FDF7A0FA04460F4883
:103FC0000078002814D001262968C878091DFEF75A
:103FD0003AFE29686D46CA7A8B7A091D0BC5039291
:103FE00033463A4621460498FCF706F905B0F0BD81
:103FF0000026E9E70120F9E7504FFF1FF44EFF1FAD
:1040000010B50949096800290CD0002805D1012004
:104010004870FCF755F8002802D00021FFF760FF38
:10402000012010BD002010BD504FFF1FF8B50C46F9
:1040300001F078FD020021D026201462FDF75EFA1F
:1040400005062D0E00D115785679901D0090102090
:10405000176AFCF76BF8040010D0D0202070002005
:1040600060700920A070E6700622201D0099FBF701
:10407000CDFF21462846E760FCF73AF8F8BD411E1F
:10408000152903D9FF2801D000207047012070476F
:1040900070B50A4E054630780C46FF280DD0042036
:1040A000FCF744F8010008D0D02008704C700220C2
:1040B0008870CD703078FCF71BF870BD644FFF1F1F
:1040C000F3B5284D81B0286800284AD04078264EA4
:1040D000012803D03078002831D041E001F0AEF85B
:1040E000224F002813D00120FDF708FA044641288A
:1040F00008D91F4A02213878FBF7EEFF1D483C3CE7
:1041000044800EE07D20C0002246424303E00020B0
:10411000FDF7F4F90246002A03D002213878FBF7B4
:10412000ABFF2968022048703078002802D00020B8
:10413000307015E002990198FFF7D2FE10E00320DD
:10414000019CFBF7F3FF010008D0D02008704C70F1
:104150000420887028680078FBF7CAFFFFF716F97B
:104160000120FEBD504FFF1FF54EFF1F814FFF1F67
:1041700060EA0000644FFF1F074A00218B00D35AFA
:10418000834202D1880080187047491CC9B20929AE
:10419000F4D3002070470000407DFF1F10B50C468F
:1041A000FFF7EAFF00280DD0002C00D020608078B7
:1041B000FE2803D0FF2803D0162010BD172010BD05
:1041C000002010BD022010BDFFB581B0FF201E46AB
:1041D000174605300A9DFBF7A9FF04001BD0B0204D
:1041E00020706770029860802671002D06D02046EE
:1041F000FC2229460830FBF709FF05E02046FC2297
:1042000000210830FBF70EFF21460198FBF770FFF5
:10421000002005B0F0BD1320FBE700000548172281
:1042200002800988172901D20420704701800020EC
:1042300070470000EE4EFF1F0020704708B50A4689
:104240000888498888420BD8002809D000230093A9
:104250001379521DFDF7E6FE002803D0002008BDAB
:10426000012008BD0A2008BDF3B50D46088849881D
:10427000002687B0814215D3002813D00027694655
:104280000F710097002369881A46FDF7CBFE0400E2
:104290004FD068460079002807D06946497901293E
:1042A00025D008E0012009B0F0BD217802291BD0FB
:1042B00002216A4651711222504301AA6189801875
:1042C0004180684600791223584380181022001D4F
:1042D0006168FBF79BFE68460079401C0106090EE9
:1042E000684601711FD11AE001216A465171217897
:1042F00002291ED1820001A86189121851806A46E4
:1043000012796168920010180222001DFBF77EFEF0
:104310006A461079401CC0B21071052803D2618929
:104320000A48814200D101266089401C80B2002EDB
:10433000A7D068460079002805D001A90798FCF7A6
:1043400039F90020AFE70A20ADE70000FFFF0000C9
:1043500038B50C4608884988884215D8002813D0FB
:104360002379621D02210B48FCF7A9F800280DD023
:1043700000200090237961882088621DFDF752FE9D
:10438000002805D0002038BD012038BD102038BDE0
:104390000A2038BDBC7A021108B50A460888498847
:1043A00088420BD8002809D0002300931379521DAE
:1043B000FDF738FE002803D0002008BD012008BD0D
:1043C0000A2008BDF8B500250F4606460C46E03722
:1043D00017E06800205A0021FDF7FEFD002809D0F3
:1043E000017A3046FDF7BAFF002808D06900615A0B
:1043F0002180F8BD6800205A20800120F8BD6D1C86
:10440000EDB2B87DA842E4D80020F8BD10B504464E
:1044100008880021FDF7E0FD002804D0017A20463D
:10442000FDF79CFF10BD012010BD000030B585B028
:1044300005466946FCF742F9040026D168468078B3
:10444000C1071E4809D08268002A04D068886946DE
:104450009047044619E0062417E04268002A05D078
:10446000688869469047040001D10EE0062468463A
:104470004078002809D16846817801730021C18104
:104480000474688803A9FCF755F8A868002801D0CF
:10449000FBF76AFE002C05D168468078122807D009
:1044A0001B2803D068880121FEF71EF805B030BD37
:1044B000684640780128F5D1F8E70000944FFF1FC7
:1044C00070B505460C4608880021FDF785FD0028DB
:1044D00005D0017A22462846FDF753FF70BD012022
:1044E00070BD00000149486070470000944FFF1FF5
:1044F00010B50446801C00F047FDFF20E07010BDA1
:1045000010B500F025F8002800D0806810BD00220A
:104510009300CB5A834202D1900040187047521C3E
:10452000D2B2092AF4D3002070470000074A0021C4
:10453000CB00D35A834202D1C80080187047491C6F
:10454000C9B20829F4D3002070470000E072FF1FB1
:104550000649496805E08A88824201D18868704727
:1045600009680029F7D1002070470000384CFF1F70
:10457000F8B50746012906D0022923D1012101F00F
:1045800075FB00281ED13846FFF7D0FF050015D077
:1045900000240D4E0CE0F82069686043081801887B
:1045A000002908D0F8220021FBF73CFD641CE4B28E
:1045B00070788442EFD30020C043288003493846F6
:1045C000FDF73AFAF8BD0000384CFF1FD07CFF1F02
:1045D000F3B5064683B00830019000200090708843
:1045E000FFF7A4FF07002FD0002523E0F82079680B
:1045F00068430C182188002920D0019800780128F0
:104600000FD16088009023797088621DFDF74EFC01
:104610000090002805D00199002008700498218896
:104620000180F82200212046FBF7FCFC00206D1CD5
:104630002080EDB2074840788542D7D30020C043A0
:1046400038800098002802D17088FBF79DFF009801
:1046500005B0F0BD384CFF1FF3B50546374C064694
:1046600085B00835F62200212046FBF7DBFC03A8C5
:1046700000902B79698828886A1DFDF7D3FC0746CE
:1046800045E070882E4A4100515C2E4BC91FC9B2CB
:104690000093002202910192284B69468A89F63BD9
:1046A0003946FDF729FA002812D12648E979C01EBB
:1046B000C27891420CD121492846F6390830FBF7DF
:1046C000ABFC002804D0217878898900091948803A
:1046D00068468289698804AB3846FDF7D5FC0746F1
:1046E0002078810009194A88002A10D0002F05D0AF
:1046F0006A46128A401C20708A800AE00206002165
:10470000920DC9431219401C2070918006E0002FC1
:1047100004D00D48217800888142B2D32078002847
:1047200006D070882146FBF737FF002007B0F0BDA8
:104730000698298801800A20F8E70000D67BFF1F31
:10474000147DFF1F3B4CFF1FEA4EFF1FF0B585B0E5
:10475000044600206946888120790E2869D00FDC44
:10476000082823D004DC022813D0062818D118E02A
:1047700025460835484F0A281DD00C2810D138E0AE
:1047800010285BD012285ED0162861D0182877D167
:1047900063E043484149008808806088FBF7D4FE05
:1047A0006EE003A92046FFF757FF5AE003A9204611
:1047B00000F076F955E0288804A9FDF70DFC01000A
:1047C00015D06088354E4200BA5C0023521ED2B22A
:1047D0000193029200966A46731C128AFDF78CF9C7
:1047E00000281DD160883146FCF76EF848E00120B2
:1047F00016E0288804A9FDF7EFFB0100F7D06088D8
:104800006B884200BA5C254E521ED2B201930292CE
:1048100000966A46731C128AFDF76EF9002803D0D1
:1048200029886A4691811CE060883146FCF71CF8B3
:1048300026E003A9204600F0D3F912E003A92046A0
:1048400000F082F80DE003A9204600F039FA08E0F4
:1048500003A9204600F028F803E003A92046FFF74B
:10486000B7FE00280CD06178142909D00B492279B1
:104870000A706A4692894A8008716088FBF75AFE7E
:104880002046FDF792FB07488168002901D02046A9
:10489000884705B0F0BD0000147DFF1FD67BFF1FC9
:1048A000E84EFF1F384CFF1FF8B504460F4605467B
:1048B000083400896946FDF78FFB06003AD0307A4C
:1048C00080060ED568460088FFF71AFE030006D062
:1048D0006888122231469847060002D02BE00E2647
:1048E00029E06E883046FFF721FE010005D114480B
:1048F000FFF71CFE01000ED00E80124A00205278F5
:1049000007E0F8264B6846439B5B002B05D0401C14
:10491000C0B29042F5D309260DE04968F822504311
:1049200008182146FBF772FB002668882146FBF732
:1049300091FF02E00126208838803046F8BD000053
:10494000FFFF0000384CFF1FF3B58BB000200B9E1B
:104950000746039004A800903246337B7189308962
:104960004C4C0D320836FDF75DFB054678E00B98A0
:10497000297A4088FDF7F2FC070003D00C9869897A
:1049800001806FE00B984449408800234200895C15
:104990000193891FCAB24149009102923D4B694679
:1049A0000A8AF63B2946FDF7A7F80700E6D10398E7
:1049B000002833D039486178C01EC078021D91426A
:1049C00053D1039909180B98408842003248805A05
:1049D000801F814249DC0399A87A61188870039886
:1049E0006989401CC0B22218090A401C9170C0B2EB
:1049F00003906846028A718807AB2846FDF744FB9E
:104A0000050011D003986946898B2018817003989E
:104A10006946401C898BC0B2090A0CE01F48C01EC1
:104A2000C078001D6070D6E70398FF2120188170C0
:104A30000398401CC0B222189170401CC0B21749A4
:104A40000390C91ECA7813492018F639801CFBF759
:104A5000DDFA12490398C91EC9784018C0B2039004
:104A6000002D84D1039800280CD061780398FBF7BF
:104A7000C9FB20700B9821464088FBF7FFFE002001
:104A80000DB0F0BD002F00D10A270C9831880180AD
:104A90003846F5E7D67BFF1F147DFF1F3B4CFF1FF9
:104AA000F3B50746044608378BB049480490388868
:104AB00000252E4605906AE007A800903B7979888A
:104AC0007A1D0598FDF7AEFA0890002852D040896B
:104AD00005900898017A6088FDF740FC06005DD1DA
:104AE00060883C494200895C3B4B091FC9B2009376
:104AF000002202910192364B69468A8BF63B089957
:104B0000FCF7FAFF060049D1002D36D00498417811
:104B10003148C01EC078801C814241D12E4BDB1E23
:104B2000D8782918608842002A48805A001F81429C
:104B300020DC0898817A04984019817008996D1CCE
:104B40004989E8B20A0A049909188A70401CC5B25A
:104B500019460498CA781E494019F639801CFBF79B
:104B600055FA1D481D49C01EC0782818C5B20598C1
:104B7000884209D1002D13D123E017480499C01EA3
:104B8000C078801C4870C9E7401C80B205906088DE
:104B900041001048405A001FA8428DDA002D0ED067
:104BA000049841782846FBF72DFB014604980170D4
:104BB00060880499FBF770FE00200DB0F0BD002E58
:104BC00000D10A260C99059808803046F5E70000C8
:104BD000D67BFF1F147DFF1F3B4CFF1FFFFF000014
:104BE000F3B506460446002085B0324D00900836E5
:104BF000287007463046E030049048E07800305A8C
:104C000003A9FDF7E9F901001AD060882B4B84460F
:104C100042002948805C0093401EC0B200220290EE
:104C20000192244B68468289F63B6046FCF764FF9C
:104C30000090002807D07800315A0698018035E0AE
:104C400001200090F7E71D492878C91EC97842184D
:104C500061884B001849C95A4B1E9A4204DD081A54
:104C60001649C91E401EC8702978681C08181349C7
:104C7000C91ECA780F49F639FBF7C8F90F482978D9
:104C8000C01EC078081828707F1C0498FFB2807D71
:104C9000B84207D96088297842000748805A401EE8
:104CA0008142ABDB60882946FBF704FE009807B021
:104CB000F0BD0000D67BFF1F147DFF1F3B4CFF1F84
:104CC000F3B5054683B004460835008901A9FDF710
:104CD00083F92746E8370646002822D0307A800636
:104CE0000ED568468088FFF70BFC030006D060886D
:104CF000122231469847060002D013E00E2611E03A
:104D000000200090AB7829886088EA1CFDF7CEF877
:104D1000060007D1387E002807D16088FBF7EAFD3E
:104D200003E00126049829880180387E002802D0FB
:104D3000002005B0F0BD3046FBE70000F8B50446A2
:104D40001F208001604382B218480025184F45702B
:104D50007868002807D00020C100C919401CC0B2E3
:104D60004D600828F8D3124E002140363046FBF73C
:104D700059F9002108466043C0B2F8225043831914
:104D80000B48CA0012180020536005E0F82747437B
:104D90005368401CDD53C0B2A042F7D3491CC9B2CE
:104DA0000829E7D3014844700020F8BD384CFF1FA4
:104DB000E072FF1F7CB50C78069D022C0ED14C686A
:104DC0002678647824023419054EA4B2F44205D141
:104DD000022400950194FCF747FE7CBD01207CBDB8
:104DE000FED6FFFFF8B505461D48854223D0461C78
:104DF000002921D001292BD002291CD101212846CC
:104E000000F034FF002816D12846FFF7B5F904005A
:104E100011D0A078FF280ED0FE2807D000200090E7
:104E2000E0781E2314222946FFF7CEF92046FFF72B
:104E30005FFBFF20A070F8BD2846FFF79DF9002812
:104E4000F9D13046FFF798F90028F4D00580F8BD75
:104E50002846FFF791F90400F9D02680D9E7000031
:104E6000FEFF000038B5040010D0A078FF280DD058
:104E7000FE280BD0002000902188E0781E23172206
:104E8000FFF7A2F9FE20A070FF20E07038BD0000FF
:104E9000F3B50C468978C1B01E2914D02E4D287860
:104EA000FF2829D0182927D84808C2002B481218F3
:104EB000803A976F002F1FD0D06F00281CD0207829
:104EC000002817D113E04198FFF756F905000BD0E1
:104ED00000200090A378E87800224199FFF774F948
:104EE00006462846FFF704FB304643B0F0BD627823
:104EF000012A03D1122901D00620F6E702AE00965E
:104F0000A3886178A268B8470028EED1A07840084D
:104F1000C100124808188038C26F02A94198904712
:104F200000280FD061780029DFD1A27869460A7085
:104F3000087168460189418069464198FBF7FAFA91
:104F40000020D2E7A378042BCFD000960022287847
:104F50004199FFF739F9C8E78C4FFF1F587A0211C2
:104F600000B50346FDF7EAF9002803D0C018401E3B
:104F700080B200BD184600BD10B57D24E400624338
:104F800092B2FBF745F910BD10B5040008D02078A7
:104F9000FF2805D0FE2803D0FBF740F9FF20207042
:104FA00010BD0000F7B506460F461020FBF776F857
:104FB00005461020FBF772F80446002D3AD0002C6D
:104FC0002DD010220021FBF72DF82A46214630462D
:104FD00001F08CFA060023D12878000604D4394663
:104FE000284600F041FD08E02146284600F03CFD3F
:104FF0003A461149204602F0B1FC3878000604D444
:105000003846029900F030FD0AE02146384600F0AB
:105010002BFD09492046029A02F0A0FC00E013266D
:105020002846FBF741F8002C02D02046FBF73CF85D
:105030003046FEBD1326F6E7E27A0211F8B506986F
:1050400000271D4614460E46002801D00B20F8BD4F
:1050500030780021022801D019704DE07068027884
:10506000407800021018152280B25202801A030004
:10507000FAF7F6FF0504121F1A254100F068FBF746
:105080004FF8C2B20798824200D902462A70F168EE
:105090002046FAF7BBFF30E0F06802210088297053
:1050A0002070000A607028E0062028700246F1682F
:1050B000EEE701202870F068007820701DE0F068AD
:1050C000002816D008212970017821700188090A6A
:1050D00061708178A1704188090AE17001792171BC
:1050E0008188090A61718179A171C088000AE07123
:1050F00003E0297001E0297001273846F8BD10B59A
:105100000B78840702D50224234301E0FD242340C9
:105110000B7003070B7802D50824234301E0F72422
:1051200023400B7083060B7802D52024234301E033
:10513000DF2423400B700A21084201D1810603D5E8
:1051400010780C21084304E0002803D11078F321E3
:105150000840107010BD0000FFB581B00878002431
:105160000A9E1F460D4602280FD1686801784078D4
:1051700000020818152180B24902401A09D00128FE
:1051800029D0022848D003283CD00124204605B06D
:10519000F0BDE868FAF7C4FFC0B2864205D8F0193E
:1051A0000090152803D90D24F0E70724EEE7E868FE
:1051B0003A4680190399FAF729FF0098EA6880B205
:1051C000002111541C4840680028DFD001680029E4
:1051D000DCD0002012E0002E12D1022BE3D1039983
:1051E000E8680A7849780902511801801248406835
:1051F0000028CBD001680029C8D001208847C5E726
:105200000B24C3E7002EFBD1062BCCD10622E86885
:105210000399FAF7FBFEB9E7002EF1D1012BC2D1B9
:1052200003980078002803D0012801D08024ADE73E
:10523000E9680870AAE70000504BFF1F08B509484D
:105240008368002B0CD01A78694601205B1CFEF79E
:1052500078F8002804D00078C00701D0012008BDEC
:10526000002008BD644FFF1F10B503460B4A002005
:105270000A21414389184988002905D0401CC0B241
:105280000328F5D3002010BD0A21002441435454C3
:105290000446403488184480037210BD747DFF1F9B
:1052A0000A7802700A88120A42708A7882704A88E4
:1052B000120AC2700A7902718A88120A42718A79C6
:1052C0008271C988090AC17108207047F8B505467E
:1052D0000C4648680421FAF753FF217A01702189AE
:1052E0000346401C090A0170217841702188090A8F
:1052F0008170207A001DC2B2FB2A35D81B48854236
:1053000015D114461E460C20FAF710FF01000CD0F0
:1053100090200870022008714D808E601448CC8067
:105320000078FAF7E5FE00271CE013271AE05C205E
:1053300010496843441826464036307E002805D080
:105340000D480727416A491C41620BE02146284667
:1053500000F08EF90746307E002803D1214628460A
:10536000FAF7B7FF3846F8BD0220F8BDFEFF00008F
:10537000A14FFF1F847FFF1F6482FF1F10B50A4AE1
:1053800000210A234B439B185C88002C06D01B7914
:10539000834203D10A204143881810BD491CC9B279
:1053A0000329EED3002010BD747DFF1F0021418032
:1053B0000170704770477CB504000FD060880028EA
:1053C0000CD00025009501951323E188207A17223F
:1053D00000F028F8FF206072658025707CBDF8B56C
:1053E000074615460E461020FAF7A0FE040017D017
:1053F000A0202070002060706680002D05D00C2257
:105400002946201DFAF702FE04E00C220021201D8F
:10541000FAF708FE21463846FAF76AFE0020F8BD82
:105420000120F8BDFFB581B01E46174614200B9D24
:10543000FAF77CFE04001AD0A22020706770029850
:1054400060800A9820716671002D06D020460C22DB
:1054500029460830FAF7DAFD05E020460C22002143
:105460000830FAF7DFFD21460198FAF741FE05B052
:10547000F0BD022A1CD34B780A781B02D21892B2D4
:105480000280012A02D0022A06D00FE08A78C97869
:1054900009025118418009E0CB788A781B02D218A2
:1054A00042800A79497909025118818000207047A9
:1054B00001207047F8B506464D88002070600A79D3
:1054C0000C46022A11D029015B480091415A00295B
:1054D00006D0009B1F18BB68002B01D0012A7AD090
:1054E00056484169491C4161A1E0E288042A41D340
:1054F000A068437801781B02C91889B20091C3786B
:1055000081781B02C9188FB2017AC079000208188D
:105510004B4948800099091D8A421FD1072F12D09C
:10552000052F10D0042F02D0062F23D10BE04248C4
:105530002901405A002806D02846FDF739F83F488F
:105540000169491C01610098308137800321C943FA
:10555000A068FAF715FE70600020F8BD072F16D07E
:10556000052F14D0042F06D0062F10D03348C16861
:10557000491CC1605EE030482901405A002806D02D
:105580002846FDF715F82D480169491C01612A4993
:105590002D01002048536E180098B081B780009804
:1055A000FDF76CF8B060002816D00321C943A0684D
:1055B000FAF7E6FDE28801461F4F121FB068FAF7BE
:1055C00025FD785BE1884018001F78531B4801686F
:1055D000491C01602EE004E018488169491C816182
:1055E00028E0E2888918009A89B28152BA899142EA
:1055F00019D80546B868E2884018801AA168FAF7F9
:1056000005FD0098295AB889814213D13081B888A4
:105610003080B8687060009900206852074841687F
:10562000491C416006E005488168491C81602846A4
:10563000FCF7BEFF0120F8BD047FFF1F6482FF1F3F
:10564000B64FFF1F022A01D0012070470A7849781F
:10565000090251180180002070470A7802704A78C8
:1056600042708A78C9780902511841807047000059
:10567000FFB50C4607463D49A120800009687843E4
:105680004018FF30C130067E89B015463846FAF71B
:10569000A5FF001DB04204D23846FAF79FFF001D57
:1056A000C6B2B54207D82A46002138460C9BFAF705
:1056B000FDFD0DB0F0BD31462846FAF7A3FD2746A3
:1056C000403738740C99616501467143691AC9B253
:1056D00002910C9904910299002901D0401C387460
:1056E000002523E00299002904D0401EA84201D1E0
:1056F000084600E03046E900059103916054FCF74C
:10570000EFFE03990919486000281BD00599625CD7
:105710000499FAF77BFC0598215C0498081804901A
:105720001348C169491C6D1CEDB2C161387CA842A7
:10573000D8D8606D002803D0FAF716FD0020606508
:105740000020B6E7002038740646606506E0F000E9
:1057500000194068FAF708FD761CF6B2AE42F6D39F
:105760000348C16A491CC1621320A2E73409FF1F24
:105770006482FF1FF7B586B016460D464878FFF7DE
:10578000FDFD040010D0002727712878012802D0E1
:10579000132809D105E06A88314602A8FFF769FE9F
:1057A0000AE02078032802D0002009B0F0BD6A8802
:1057B000314602A8FFF746FF0646204600F04CF9A6
:1057C00002A8019000972B78207A32460699FFF7BD
:1057D00029FE2046FFF7EAFD3046E6E7FEB504461F
:1057E000468801466846FFF765FE05460198002891
:1057F0002FD068460088052806D0042809D006283E
:1058000007D0072805D026E06946304600F030F87A
:1058100021E081001548081801464039098E002909
:1058200019D02038807C6A463146FFF7D8FD002821
:1058300011D168460088042803D001213046FCF7C6
:1058400053FE012D04D1A068002801D0FAF78CFC8A
:10585000FEBD012D04D1A068002801D0FAF784FC18
:1058600001213046FCF740FEFEBD0000647DFF1FB5
:1058700030B50546088987B00C46042817D302A81E
:105880006168FFF7EAFE68464089172837D8218902
:10589000001D81421ED16846007AC10709D06268A6
:1058A00002A92846121DFFF765FF002812D107B094
:1058B00030BD6168091D122805D0002069460880A6
:1058C000497A6A4622E06846428903A8FCF73CFE12
:1058D000002803D02846FFF76DFDE8E70D488188D2
:1058E0000029E4D06946497A03AA019200916946E9
:1058F0000B7A807900222946FFF794FDD7E7012132
:105900006846018017214180417A6A462846FCF7A3
:10591000CFFDCCE7647DFF1FF8B500252C46164867
:10592000290144520E18B481B480B068002802D016
:10593000FAF71AFCB4605C20294641430E488030D7
:105940000F183E464036347474743476786D0028EF
:1059500002D0FAF709FC7C650026F0003818406890
:10596000002801D0FAF700FC761C0A2EF5DB6D1C2E
:10597000082DD4DBF8BD0000047FFF1FFFB589B000
:1059800015460E461720129FFCF778FE040021D022
:10599000684606704570002F03D0201D0C99B8474B
:1059A00000E0002069464880267065704888A07035
:1059B000010AE170052269468A82001D06948883E7
:1059C00005A90998FFF782FC050004D02046FAF7E4
:1059D000CBFB00E0132528460DB0F0BDFFB581B02C
:1059E0001E46054601210A9F0B9C00F03FF9002846
:1059F00011D02046FFF738FC00280AD0C5800446A5
:105A0000077012484178491C0A06120E427004D0F1
:105A100005E015250FE014250DE0012242702271EA
:105A200000962846039B0299FFF7A8FF050005D0C2
:105A30002046FFF7BBFC284605B0F0BD23462146B3
:105A4000034A09330348FAF7E3FBF4E7B64FFF1FB5
:105A500030750000B753021110B50446407AFAF7CA
:105A6000DDFBFF20607210BD10B500240F22835CA7
:105A70005B0023438B54835C521EDC0952B2002A24
:105A8000F5DA10BDFFB581B01E4617460D46084633
:105A900000F048F8002802D0112005B0F0BD0D48F4
:105AA00000F040F8040013D066710622A01D0A9988
:105AB000FAF7ACFA658027710198207000206062C7
:105AC0000B98A0810021284600F04CFB0020E4E761
:105AD0001520E2E7FFFF000070B514460D460646AC
